:020000040800F2
:1000000000000220B95800088557000887570008EB
:10001000895700088B5700088D5700080000000022
:10002000000000000000000000000000614D00081A
:100030008F57000800000000014E0008654E0008C0
:100040000959000809590008095900080959000808
:1000500009590008095900080959000809590008F8
:1000600009590008095900080959000809590008E8
:1000700009590008095900080959000809590008D8
:10008000095900080959000809590008653D000888
:1000900009590008793D0008095900080959000864
:1000A0000959000891570008095900080959000822
:1000B0000959000809590008095900080959000898
:1000C0000959000809590008095900080959000888
:1000D0000959000809590008095900080959000878
:1000E000095900080959000800000000693E00088D
:1000F000893E0008095900080959000809590008F3
:100100000959000809590008095900080959000847
:100110000959000809590008293E0008493E00080D
:100120000959000809590008095900080959000827
:100130000959000809590008095900080959000817
:1001400000000000000000000000000000000000AF
:1001500009590008095900080959000809590008F7
:1001600009590008095900080959000809590008E7
:100170000959000809590008095900080000000041
:1001800009590008095900080959000809590008C7
:1001900009590008095900080959000809590008B7
:1001A00009590008095900080959000809590008A7
:1001B0000959000809590008095900080959000897
:1001C0000959000809590008095900080959000887
:1001D0000959000809590008095900080959000877
:1001E0000959000809590008095900080959000867
:1001F0000959000809590008095900080959000857
:100200000959000809590008095900080959000846
:100210000959000809590008095900080959000836
:100220000959000809590008095900080000000090
:100230000959000809590008000000000959000880
:100240000959000809590008095900080959000806
:1002500009590008095900080959000809590008F6
:1002600009590008095900080959000809590008E6
:100270000959000809590008095900080000000040
:100280000959000809590008095900080000000030
:080290000000000009590008FC
:1002A00010B5054C237833B9044B13B10448AFF3B0
:1002B00000800123237010BDA40000200000000076
:1002C000CC67000808B5034B1BB103490348AFF3E3
:1002D000008008BD00000000A8000020CC670008D6
:1002E00010B5032000F056F801F0F2FA0F498B69BF
:1002F000C3F303230E4AD35C03F01F03D8408B697A
:1003000003F00F03D35C03F01F0320FA03F3094A41
:100310001360094B1860002005F0F4F910B10124B6
:10032000204610BD044605F091F9F9E70044025853
:10033000686800083C00002038000020034B1B7850
:10034000034A11680B441360704700BF000000208F
:10035000983E0020014B1868704700BF983E00206F
:1003600038B50446FFF7F6FF0546B4F1FF3F02D06B
:10037000044B1B781C44FFF7EDFF401BA042FAD34F
:1003800038BD00BF00000020014B1868000C70470A
:100390000010005C0649CB6823F4E0631B041B0CCF
:1003A000000200F4E0600343024A1A43CA60704747
:1003B00000ED00E00000FA0530B4154BDB68C3F334
:1003C0000223C3F10704042C28BF04241D1D062D9D
:1003D00014D9033B4FF0FF3505FA04F421EA040178
:1003E000994005FA03F322EA03031943002807DBC7
:1003F0000901C9B2074B195430BC70470023E9E723
:1004000000F00F000901C9B2034B1954F4E700BF13
:1004100000ED00E000E400E014ED00E0002807DB60
:1004200000F01F02400901239340024A42F82030A5
:10043000704700BF00E100E030B4446B0268D2F8BE
:1004400084106F4B194041EA8401C2F8841002689D
:10045000D2F8841021F47F01856B41EA0541C2F88E
:100460008410826B22440468D4F88810194041EA51
:100470008201C4F888100468D4F8881021F4FE01C1
:10048000C56B41EA0541C4F88810C16B02EB41021B
:100490000468D4F8A010194041EA8201C4F8A01001
:1004A0000468D4F8A01021F4FE01056C41EA05416E
:1004B000C4F8A010046C416C01FB04240268D2F85B
:1004C000B010194041EA8401C2F8B0100268D2F8B5
:1004D000B01021F4FE01856C41EA0541C2F8B0106C
:1004E000826CC16C01FB02440268D2F8AC10194066
:1004F00041EA8401C2F8AC10026D416D01FB024279
:100500000468D4F8F010194041EA8201C4F8F010F0
:100510000468D4F8F01021F47C11856D41EA05419E
:10052000C4F8F010816D02EB41020468D4F8C010E9
:100530000B4043EA8202C4F8C0200268D2F8C030FF
:1005400023F47C13C16D43EA0143C2F8C030026852
:10055000D2F8C03023F07C53016E43EA0163C2F845
:10056000C030436B274A1A449200C266836B02EB89
:1005700083030367C16B03EBC1034367046C416CE6
:1005800001FB04F103EB81038367846CC16C01FB05
:1005900004F103EB8103C367046D416D01FB04F1BA
:1005A00003EB8103C0F88030816D03EBC103C0F819
:1005B0008430C46D856E05FB04F403EB8403C0F83E
:1005C0008830016E01FB05F103EB8103C0F8903028
:1005D0000D498B420DD9D0F89C3043F02003C0F870
:1005E0009C30032380F89830012007E0002342F874
:1005F000043BD0F890309342F8D8002030BC7047CC
:100600000300FFFF002B0010FCD30040F0B44C6847
:10061000E4B90E698C6826430C6846EA84460D6A84
:10062000CC6944EA05648D692C434D692C43CD683F
:100630002C43D0F88470806E03FB00F307EB830536
:1006400047F823606C600835002015E00E698C685F
:1006500026430C68264346F08046E0E71418E67807
:10066000A3781B0443EA0663647843EA0423145C1A
:10067000234345F8043B0430CB89034CE35C8342BD
:10068000ECD8F0BC704700BFE467000830B595B007
:1006900004464C22A04901A805F0D4FF002C00F02C
:1006A000388123689D4A934220D094F898300BB348
:1006B0002268936923F010039361FFF74BFE054610
:1006C00023689A6912F0080F1AD0FFF743FE401B07
:1006D0000A28F5D9D4F89C3043F00103C4F89C30C3
:1006E000032384F89830012015B030BD03F58073E2
:1006F0006360DAE784F89930204604F0B9FFD7E761
:100700009A6942F001029A61FFF724FE05462368C8
:100710009A6912F0010F0FD1FFF71CFE401B0A2847
:10072000F5D9D4F89C3043F00103C4F89C3003237E
:1007300084F898300120D7E79A6942F002029A6162
:10074000237C012B40D02268936943F040039361DE
:10075000637C012B3ED02268936923F4804393612C
:10076000A37C012B3CD02268936943F480539361AE
:100770002268936923F44073A1680B439361226854
:10078000936923F0A40393612268136923F0100393
:100790001361E368012B29D0002B2CD0022B00F031
:1007A0009B802268936943F08003936122681369F8
:1007B00043F010031361E368032B1CD12268936993
:1007C00043F02003936116E02268936923F040030D
:1007D0009361BDE72268936943F480439361BFE767
:1007E0002268936923F480539361C1E72268936977
:1007F00043F004039361A3695A1EE369013B1B02A2
:1008000043EA4263226A013A13436269013A21686A
:1008100043EA0243CB61A368B3F5407F62D0236E05
:1008200033B12268D2F8C030616E0B43C2F8C030D9
:10083000E36D226ED3420DD02168D1F8C83023F089
:100840000703A26E14A800EB820252F84C2C13434B
:10085000C1F8C830236C6BB12168D1F8BC3023F0EB
:100860000703626C14A800EB820252F84C2C13436D
:10087000C1F8BC30A36C73B12168D1F8BC3023F04F
:100880007003E26C14A800EB820252F84C2C43EA8D
:100890000213C1F8BC30236D73B12168D1F8BC30AC
:1008A00023F4E063626D14A800EB820252F84C2C32
:1008B00043EA0223C1F8BC302268184B9A4222D086
:1008C0000023C4F89430C4F89C30012384F8983095
:1008D0002046FFF7B1FD07E72268936943F0200344
:1008E000936188E7A36A013BE26A013A43EA022383
:1008F000226B013A43EA0213626A013A216843EA31
:100900000243CB608BE76268936823F00303936034
:10091000D6E70120E8E600BFF467000800A0004029
:1009200090F89830013BDBB2012B07D9D0F89C300E
:1009300043F00203C0F89C3001207047CB680A687E
:10094000D2B9072B0ED08A68DB0643EA82730A69A4
:1009500043EA02434A691343C26E496842F82130B0
:10096000002070470A69CB691B0243EA02438A6987
:10097000134343F06053EFE710B40A6942EA43724D
:10098000072B0ED08C684B6943EA8473006F49686B
:1009900000EBC10440F83120636000205DF8044B97
:1009A00070478B69F2E790F89830DBB2012B07D0E3
:1009B000D0F89C3043F00403C0F89C30012070470D
:1009C000036842EA01229A640020704790F8983048
:1009D000DBB2012B07D0D0F89C3043F00403C0F801
:1009E0009C30012070470268D36843F40003D36051
:1009F0000020704790F89830DBB2012B07D0D0F878
:100A00009C3043F00403C0F89C300120704702235F
:100A100080F898300268936923F001039361002302
:100A2000C0F89C301846704738B590F89830DBB263
:100A3000022B07D0D0F89C3043F00803C0F89C305C
:100A4000012038BD0368D3F8C04014F07C5F0CD09F
:100A5000D3F8C44014F4001F0FD0D0F89C3043F4F6
:100A60000073C0F89C300120EBE7D0F89C3043F0D5
:100A70002003C0F89C300120E3E70546D3F8C440CA
:100A8000C4F304442346FFF7C1FD2A680123A340B1
:100A9000C2F8D030C5F894300020D2E7F0B490F816
:100AA0009840E4B2022C08D0D0F89C3043F0080300
:100AB000C0F89C300120F0BC7047402939D0412952
:100AC00064D0046D8C4240F28E80C46F456D01FB92
:100AD00005F504EB85044FF0000C256805F0804512
:100AE0005560002D40F087802568C5F38A45156064
:100AF000256805F000559560256805F000451561ED
:100B0000A588D561656805F47025D560656805F42C
:100B100080155561656805F400159561E57905F066
:100B20007F0515626568ED0F556204F10805002424
:100B300069E00468D4F8A05015F4FE0F16D0D4F87C
:100B4000A45015F07F0F19D0D4F8A45015F0807F71
:100B500001D0D4F8A050D4F8A440C4F3052C446FBD
:100B6000456C0CFB05F504EB8504B6E7D0F89C302A
:100B700043F02003C0F89C3001209CE7D0F89C3063
:100B800043F48073C0F89C30012094E70468D4F8E3
:100B9000B05015F4FE0F16D0D4F8B45015F07F0FF6
:100BA00019D0D4F8B45015F0807F01D0D4F8B050EB
:100BB000D4F8B440C4F3052C846FC56C0CFB05F568
:100BC00004EB850489E7D0F89C3043F02003C0F89B
:100BD0009C3001206FE7D0F89C3043F48073C0F85C
:100BE0009C30012067E7D0F89C3043F02003C0F828
:100BF0009C3001205FE7256825F06045156077E7A8
:100C00002E5D1E550134D689124FBE5DA642F7D81F
:100C100040290BD041290ED01F2911D80268012389
:100C200003FA01F1C2F89810002044E70368C3F802
:100C3000A8C000203FE70368C3F8B8C000203AE727
:100C400001F01F010268012303FA01F1C2F89C10B0
:100C5000002030E7E4670008402905D00368D3F896
:100C6000B40000F07F0070470368D3F8A40000F0E0
:100C70007F00704790F89830013BDBB2012B07D919
:100C8000D0F89C3043F00203C0F89C30012070473C
:100C900010B403689C6D0C4224D1DC6D44F0010457
:100CA000DC6511F4007F05D00468D4F8E03013430C
:100CB000C4F8E03011F4806F05D00468D4F8E43053
:100CC0001A43C4F8E4200068436D0C4A0A401343F9
:100CD00043650B4A536943EA9171516100205DF805
:100CE000044B70479C6D31EA040402D00324DC6598
:100CF000D7E7DC6D44F00204DC65D2E7FFFFCF3FAD
:100D000000A80040704770477047704770477047B1
:100D10007047704770477047704770472DE9F0473C
:100D20000446954B1A695B694FEA837A0AEA827A2C
:100D300003681A6D02F470495A6D09EA02091A6DC6
:100D400002F00F085A6D08EA02081F6D07F0F0075D
:100D50005A6D17401D6D05F071555A6D15401E6D89
:100D600006F060765A6D16405A6D12F4807F03D0FB
:100D70001A6D12F4807F78D123685A6D12F4806F57
:100D800003D01A6D12F4806F78D1BAF1000F40F0E1
:100D90008480B9F1000F40F08C80B8F1000F40F072
:100DA0009480002F40F09D8023685A6D12F4006FEC
:100DB00004D01A6D12F4006F40F09D8023685A6DC4
:100DC00012F4007F04D01A6D12F4007F40F09D8071
:100DD00023685A6D12F4002F04D01A6D12F4002FFC
:100DE00040F0A28023685A6D12F4803F04D01A6D3F
:100DF00012F4803F40F0A28023685A6D12F4802FD5
:100E000004D01A6D12F4802F40F0A28023685A6D2E
:100E100012F4003F0FD01A6D12F4003F0BD04FF4C4
:100E200000321A65544B00221A61D4F89C3043F00A
:100E30008003C4F89C30002E40F094804DB12368AC
:100E40001D65AA0F4C4B1A61D4F89C301D43C4F8A1
:100E50009C502268494B9A4200F09280D4F89C3012
:100E6000002B40F0ED80BDE8F0874FF480721A65EA
:100E7000414B00221A61FFF74BFF7DE7D3F8DC10EE
:100E8000D3F8E4204FF4806018653B4B00201861D4
:100E900011402046FFF739FF77E7236800221A65E3
:100EA0004FEA9A72344B1A6151462046FFF72AFFE7
:100EB0006FE72368C3F850904FEA99722E4B1A617E
:100EC00049462046FFF71FFF67E72368C3F85080B5
:100ED0004FEA9872284B1A614146204602F056FFAD
:100EE0005FE723681F65BA0F234B1A613946204616
:100EF000FFF70AFF58E74FF400621A651E4B002205
:100F00001A61204602F04AFF58E7D3F8D810D3F808
:100F1000E0204FF400701865174B00201861114055
:100F2000204602F03FFF53E74FF400221A65124BB0
:100F300000221A61204602F02DFF53E74FF4803261
:100F40001A650D4B00221A612046FFF7DFFE53E7BA
:100F50004FF480221A65084B00221A612046FFF7E1
:100F6000D6FE53E723681E65B20F034B1A61314664
:100F70002046FFF7CEFE61E700A8004000A0004039
:100F800063689A6812F0030F3FF468AF196A01F0C2
:100F90000F015A6A186A00F03008586A08EA000817
:100FA0001F6A07F4C077586A07401E6A06F4FC46B9
:100FB000586A06401D6A05F4F025586A054011403C
:100FC0001FD1B8F1000F21D163685A6A12F0400FA7
:100FD00003D01A6A12F0400F20D157BB36B16368B4
:100FE0001E62D4F89C301E43C4F89C60002D3FF470
:100FF00035AF63681D62D4F89C301D43C4F89C5023
:101000002CE719622046FFF785FEDAE76368C3F82C
:10101000208041462046FFF77EFED5E7D96BDA6B8C
:101020004020186202F03F02090C2046FFF774FED0
:10103000D3E763681F6239462046FFF76EFECDE7AF
:10104000204602F0B8FE0EE7F0B583B000233AE088
:10105000092400E00024B4403C4302356E4E46F8BB
:1010600025406E4C2568D44304EA05064F6817F402
:10107000803F01D042EA0506684D2E606E6804EAA2
:1010800006054F6817F4003F01D042EA0605634E9B
:1010900075604FF0B0452D6804EA05064F6817F4F7
:1010A000801F01D042EA05064FF0B0452E606D6802
:1010B0002C404E6816F4001F01D042EA05044FF0A0
:1010C000B042546001330A6832FA03F400F0A2809F
:1010D00001249C402240F5D04D686E1E112D18BF92
:1010E000012E01D9122D12D186685F000325BD4063
:1010F00026EA0506CD68BD4035438560466826EA88
:1011000004064D68C5F300149C4034434460C6682F
:101110005F000325BD40EC4326408D68BD4035434C
:10112000C5604D68122D18BF022D13D1DE08083698
:1011300050F826E003F007054FEA850C0F2505FA65
:101140000CF52EEA050E0D6905FA0CF545EA0E05BB
:1011500040F82650056825404C6804F00304BC4064
:101160002C4304604C6814F0805FABD02C4CD4F856
:10117000F45045F00205C4F8F450D4F8F44004F0FB
:1011800002040194019C9D08AE1C234C54F8267067
:1011900003F00304A6000F24B44027EA0407214CFF
:1011A000A0423FF457AF04F58064A04222D004F57A
:1011B0008064A04220D004F58064A0421ED004F5D3
:1011C0008064A0421CD004F58064A0421AD004F5CB
:1011D0008064A04218D004F58064A04216D004F5C3
:1011E0008064A04214D004F58064A0423FF430AF84
:1011F0000A2430E701242EE702242CE703242AE7FF
:10120000042428E7052426E7062424E7072422E708
:10121000082420E703B0F0BD000400588000005807
:10122000004402580000025812B909048161704755
:1012300081617047134BDB6813F0040F07D1114B2A
:10124000DB6803F0070383421AD00120704710B512
:101250000C4AD36823F007031843D060FFF77AF8ED
:101260000446084B5B6813F4005F07D1FFF772F880
:10127000001BB0F57A7FF4D9012000E0002010BDFA
:101280000020704700480258002800F00C8338B551
:101290000446036813F0010F25D09D4A136903F03B
:1012A0003803926A102B15D0182B0FD06368B3F552
:1012B000803F3FD0002B53D1954B1A6822F48032E7
:1012C0001A601A6822F480221A6038E002F00302E1
:1012D000022AEBD18E4B1B6813F4003F03D06368E6
:1012E000002B00F0E282236813F0020F00F08B80E5
:1012F000874A1369926A13F038035AD0182B55D0D5
:10130000E368002B00F0C88081490A6822F01902C6
:1013100013430B60FFF71EF805467D4B1B6813F067
:10132000040F40F09780FFF715F8401B0228F4D90E
:101330000320BFE2764A136843F480331360636886
:101340002BB3FFF707F80546714B1B6813F4003FFA
:10135000C9D1FEF7FFFF401B6428F5D90320A9E29D
:10136000B3F5A02F09D06A4B1A6822F480321A60B4
:101370001A6822F480221A60E1E7654B1A6842F489
:1013800080221A601A6842F480321A60D7E7FEF7AA
:10139000E1FF05465E4B1B6813F4003FA3D0FEF748
:1013A000D9FF401B6428F5D9032083E212F0030F14
:1013B000A6D1574B1B6813F0040F03D0E368002B32
:1013C00000F07582FEF7E0FF41F20303984212D865
:1013D0002269402A07D04E494B6823F47C3343EA04
:1013E00002334B600FE04A4A536823F47C3343F4E2
:1013F0000033536007E0464A536823F0FE432169F7
:1014000043EA01635360236813F0100F00F08A80F1
:101410003F4A136903F03803926A082B54D0182B03
:101420004ED0E369002B00F0BA80394A136843F0CC
:1014300080031360FEF78EFF0546354B1B6813F4DF
:10144000807F40F08A80FEF785FF401B0228F4D998
:1014500003202FE2FEF798FF41F20303984212D8CF
:101460002269402A07D02A494B6823F47C3343EA97
:1014700002334B60C7E7264A536823F47C3343F4B6
:1014800000335360BFE7224A536823F0FE432169CB
:1014900043EA01635360B6E71D4A136823F0010372
:1014A0001360FEF757FF0546194B1B6813F0040F36
:1014B000A9D0FEF74FFF401B0228F5D90320F9E120
:1014C00002F00302012AACD1114B1B6813F4807F98
:1014D00004D0E369802B01D00120EBE1FEF754FF3B
:1014E00041F20303984215D8226A202A07D00849FE
:1014F0004B6823F0F84343EA82634B6012E0044AEE
:10150000536823F0F84343F0804353600AE000BF80
:10151000004402589A4AD36823F07C53216A43EA74
:101520000163D360236813F0080F60D06369002B58
:1015300049D0934A536F43F001035367FEF70AFF04
:1015400005468F4B5B6F13F0020F50D1FEF702FF81
:10155000401B0228F5D90320ACE1FEF715FF41F24C
:101560000303984212D8226A202A07D084494B6884
:1015700023F0F84343EA82634B60D3E7804A536821
:1015800023F0F84343F080435360CBE77C4AD368B1
:1015900023F07C53216A43EA0163D360C2E7784AAF
:1015A000136823F080031360FEF7D4FE0546744BE6
:1015B0001B6813F4807FB5D0FEF7CCFE401B0228D9
:1015C000F5D9032076E16E4A536F23F00103536788
:1015D000FEF7C0FE05466A4B5B6F13F0020F06D0A4
:1015E000FEF7B8FE401B0228F5D9032062E123680C
:1015F00013F0200F29D0A3699BB1614A136843F40B
:1016000080531360FEF7A6FE05465D4B1B6813F47E
:10161000005F1AD1FEF79EFE401B0228F5D9032079
:1016200048E1574A136823F480531360FEF792FE93
:101630000546534B1B6813F4005F06D0FEF78AFE85
:10164000401B0228F5D9032034E1236813F0040F6E
:1016500021D1636A002B00F02C81494A126902F003
:101660003802182A00F0EE80022B75D0444A136825
:1016700023F080731360FEF76DFE0446404B1B6839
:1016800013F0007F00F0DC80FEF764FE001B0228F0
:10169000F4D903200EE13B4A136843F480731360CE
:1016A000FEF758FE0546374B1B6813F4807F06D1C2
:1016B000FEF750FE401B6428F5D90320FAE0A3682A
:1016C000012B0AD00BBB2E4B1A6F22F001021A67B6
:1016D0001A6F22F004021A6704E0294A136F43F0DC
:1016E00001031367A36833B3FEF734FE0546244BAA
:1016F0001B6F13F0020FACD1FEF72CFE401B41F222
:1017000088339842F3D90320D4E0052B09D01C4B31
:101710001A6F22F001021A671A6F22F004021A6788
:10172000E0E7174B1A6F42F004021A671A6F42F093
:1017300001021A67D6E7FEF70DFE0546104B1B6F38
:1017400013F0020F85D0FEF705FE401B41F28833EF
:101750009842F3D90320ADE0094A136823F080735F
:101760001360FEF7F7FD0546054B1B6813F0007F7D
:101770000AD0FEF7EFFD401B0228F5D9032099E0BF
:1017800000440258004802584E4B996A4E4A0A409B
:10179000A16AE06A41EA00110A439A62226B013AA7
:1017A000C2F30802616B0139490289B20A43A16B95
:1017B0000139090401F4FE010A43E16B013909060C
:1017C00001F0FE410A431A63DA6A22F00102DA628A
:1017D000596B3E4A0A40A16C42EAC1025A63DA6A76
:1017E00022F00C02216C0A43DA62DA6A22F0020269
:1017F000616C0A43DA62DA6A42F48032DA62DA6AE7
:1018000042F40032DA62DA6A42F48022DA62DA6A98
:1018100042F00102DA621A6842F080721A60FEF742
:1018200099FD0446274B1B6813F0007F06D1FEF795
:1018300091FD001B0228F5D903203BE0002039E090
:10184000002037E01F4A916A106B012B33D001F062
:101850000303A26A934201D001202BE0C1F30511DA
:10186000E36A994201D0012024E0C0F30802236B0F
:10187000013B9A4201D001201CE0C0F34622636B79
:10188000013B9A4201D0012014E0C0F30642A36B51
:10189000013B9A4211D1C0F30660E36B013B9842D1
:1018A0000DD0012006E001207047012002E0012058
:1018B00000E0002038BD0120FCE70120FAE700200D
:1018C000F8E700BF004402580CFCFFFF0700FFFFD1
:1018D000724B1B6903F03803102B00F0DB80182BD0
:1018E00010D00BB16E4870476C4B1B6813F0200F83
:1018F00000F0D280694B1868C0F3C100694B23FA2D
:1019000000F07047654A916A01F00301906AC0F3E4
:101910000510D36A03F00103526BC2F3CC0203FB40
:1019200002F307EE903AF8EE677A002800F0B580EF
:10193000012966D0F9B1022900F08F8007EE100A64
:10194000F8EE476A9FED586A86EE267A534B1B6B7A
:10195000C3F3080306EE903AF8EE666A9FED536A09
:1019600067EE867A76EEA77AF7EE006A77EEA67AC9
:1019700027EE277A61E0494B1B6813F0200F23D034
:1019800046490A68C2F3C102464BD34007EE103AFB
:10199000F8EE476A07EE100AB8EE476A86EE867AD6
:1019A0000B6BC3F3080306EE903AF8EE666A9FED00
:1019B0003F6A67EE867A76EEA77AF7EE006A77EEF0
:1019C000A67A27EE277A38E007EE100AF8EE476A83
:1019D0009FED376A86EE267A304B1B6BC3F3080304
:1019E00006EE903AF8EE666A9FED306A67EE867A08
:1019F00076EEA77AF7EE006A77EEA67A27EE277AD8
:101A00001BE007EE100AF8EE476A9FED276A86EEA4
:101A1000267A224B1B6BC3F3080306EE903AF8EECE
:101A2000666A9FED226A67EE867A76EEA77AF7EE0F
:101A3000006A77EEA67A27EE277A184B1B6BC3F362
:101A40004623013307EE903AF8EE677AC7EE276A2D
:101A5000FCEEE67A17EE900A704707EE100AF8EEF1
:101A6000476A9FED146A86EE267A0C4B1B6BC3F314
:101A7000080306EE903AF8EE666A9FED0C6A67EE90
:101A8000867A76EEA77AF7EE006A77EEA67A27EEE8
:101A9000277AD2E708487047024870470044025846
:101AA00000093D000090D0030024744A0000003972
:101AB0000024744C0024F44A00127A00002800F03C
:101AC000368103469C4A126802F00F028A420CD209
:101AD0009948026822F00F020A430260026802F08D
:101AE0000F028A4201D00120704770B51A6812F0C7
:101AF000040F0CD01869914A926902F0700290426A
:101B000005D98E4CA26922F070021043A0611A68B8
:101B100012F0080F0CD05869884AD26902F070029E
:101B2000904205D9854CE26922F070021043E061D1
:101B30001A6812F0100F0CD09869804AD26902F42A
:101B4000E062904205D97D4CE26922F4E0621043E4
:101B5000E0611A6812F0200F0CD0D869774A126A37
:101B600002F07002904205D9744C226A22F0700291
:101B7000104320621A6812F0020F0CD0D8686F4A26
:101B8000926902F00F02904205D96C4CA26922F0D2
:101B90000F021043A0611C460D461B6813F0010F95
:101BA00041D0664A936923F47063A1680B43936143
:101BB0006368022B0AD0032B27D0012B2CD05F4A5D
:101BC000126812F0040F06D10120AFE0126812F47F
:101BD000003F00F0AE8059490A6922F00702134322
:101BE0000B61FEF7B7FB0646544B1B6903F0380345
:101BF0006268B3EBC20F16D0FEF7ACFB801B41F25C
:101C000088339842F0D9032090E04C4A126812F0D1
:101C1000007FE0D1012089E0484A126812F4807FF9
:101C2000D9D1012082E0236813F0020F0CD0E268C2
:101C3000424B9B6903F00F039A4205D23F498B69DF
:101C400023F00F031A438A613B4B1B6803F00F0319
:101C5000AB420CD9384A136823F00F032B431360AF
:101C6000136803F00F03AB4201D001205EE023684C
:101C700013F0040F0CD02269304B9B6903F0700302
:101C80009A4205D22D498B6923F070031A438A6169
:101C9000236813F0080F0CD06269284BDB6903F04E
:101CA00070039A4205D22549CB6923F070031A4389
:101CB000CA61236813F0100F0CD0A2691F4BDB69B7
:101CC00003F4E0639A4205D21C49CB6923F4E06334
:101CD0001A43CA61236813F0200F0CD0E269174B36
:101CE0001B6A03F070039A4205D214490B6A23F071
:101CF00070031A430A62FFF7EBFD10498B69C3F3C7
:101D000003230F4AD35C03F01F03D8408B6903F011
:101D10000F03D35C03F01F0320FA03F3094A136097
:101D2000094B1860094B186803F0ECFC70BD0120EA
:101D300070470120FAE700BF00200052004402581B
:101D4000686800083C0000203800002004000020E3
:101D500008B5FFF7BDFD0B4A9369C3F303230A4996
:101D6000CB5C03F01F0320FA03F3926902F00F0229
:101D7000885C00F01F0023FA00F0044A1060044A57
:101D8000136008BD00440258686800083C00002049
:101D90003800002008B5FFF7DBFF054BDB69C3F314
:101DA0000223044AD35C03F01F03D84008BD00BFE0
:101DB00000440258686800083F230360114B1A6909
:101DC00002F0070242609A6902F4706282609A69C6
:101DD00002F00F02C2609A6902F070020261DA69D1
:101DE00002F070024261DA6902F4E06282611B6A09
:101DF00003F07003C361044B1B6803F00F030B6017
:101E0000704700BF0044025800200052404B9B6ABC
:101E100003F00303032B79D070B50E4604463C4A09
:101E2000136823F080631360FEF794FA0546384B7D
:101E30001B6813F0006F06D0FEF78CFA401B0228D7
:101E4000F5D9032070BD324B9A6A22F47C322168A6
:101E500042EA01329A626268013AC2F30802A1685A
:101E60000139490289B20A43E1680139090401F4E0
:101E7000FE010A4321690139090601F0FE410A43C6
:101E80009A63DA6A22F0C00261690A43DA62DA6AA6
:101E900022F02002A1690A43DA62DA6A22F0100213
:101EA000DA62D96B1B4A0A40E16942EAC102DA638D
:101EB000DA6A42F01002DA62C6B91A46DB6A43F403
:101EC0000023D362124A136843F080631360FEF765
:101ED00041FA04460E4B1B6813F0006F14D1FEF755
:101EE00039FA001B0228F5D90320ABE7012E05D0F3
:101EF000074AD36A43F40013D362E3E7044AD36A80
:101F000043F48013D362DDE700209BE70120704794
:101F1000004402580700FFFF404B9B6A03F0030395
:101F2000032B79D070B50E4604463C4A136823F063
:101F300080531360FEF70EFA0546384B1B6813F00A
:101F4000005F06D0FEF706FA401B0228F5D90320F1
:101F500070BD324B9A6A22F07C72216842EA0152CB
:101F60009A626268013AC2F30802A1680139490223
:101F700089B20A43E1680139090401F4FE010A4308
:101F800021690139090601F0FE410A431A64DA6A3F
:101F900022F4406261690A43DA62DA6A22F400726A
:101FA000A1690A43DA62DA6A22F48072DA62596C51
:101FB0001B4A0A40E16942EAC1025A64DA6A42F401
:101FC0008072DA62C6B91A46DB6A43F48003D362D0
:101FD000124A136843F080531360FEF7BBF90446BE
:101FE0000E4B1B6813F0005F14D1FEF7B3F9001B12
:101FF0000228F5D90320ABE7012E05D0074AD36AA2
:1020000043F08073D362E3E7044AD36A43F40003E6
:10201000D362DDE700209BE70120704700440258AF
:102020000700FFFFF8B50446036813F0006F2BD0DC
:10203000436EB3F5801F18D007D9B3F5001F1DD02C
:10204000B3F5401F2ED1002506E05BBB934AD36A4F
:1020500043F40033D3620025904A136D23F44013F8
:10206000616E0B431365002610E002210430FFF778
:10207000CDFE0546002DEFD02E4607E0022124308C
:10208000FFF74AFF0546F5E700263546236813F4B7
:10209000807F17D0636D042B32D8DFE803F006246D
:1020A0002A0B0B0001263546F0E77C4AD36A43F43D
:1020B0000033D3623DBB794A136D23F00703616D92
:1020C0000B431365236813F4007F33D0A36D802B7B
:1020D00044D01AD80BB3402B1CD10021201DFFF790
:1020E00095FE05461EE00021201DFFF78FFE0546E8
:1020F000E0E7002104F12400FFF70EFF0546D9E7D1
:1021000001263546DEE72E46DCE7C02B0AD0B3F5C4
:10211000807F07D0012635460CE0604AD36A43F43D
:102120000033D3620DBB5D4A136D23F4E073A16DE0
:102130000B431365236813F4806F2FD0D4F8A430B9
:10214000B3F5800F3ED012D8D3B1B3F5001F14D130
:102150000021201DFFF75AFE054616E0002104F17C
:102160002400FFF7D9FE0546DCE72E46E2E7B3F58B
:10217000C00F0AD0B3F5000F07D0012635460DE099
:10218000464AD36A43F40033D36215BB434A936D86
:1021900023F46003D4F8A4100B439365236813F46D
:1021A000006F2FD0D4F8A830B3F1007F37D012D809
:1021B000D3B1B3F1807F14D10021201DFFF726FE9B
:1021C000054616E0002104F12400FFF7A5FE0546B0
:1021D000DBE72E46E2E7B3F1407F0AD0B3F1806F30
:1021E00007D0012635460DE02C4AD36A43F400336C
:1021F000D362DDB9294A936D23F0E063D4F8A810C7
:102200000B439365236813F0007F2AD0A36C102B37
:1022100012D00DD9202B1DD0302B12D009E0002177
:1022200004F12400FFF778FE0546E2E72E46E9E7D1
:102230003BB10126354614E0184AD36A43F4003313
:10224000D3626DB9154AD36C23F03003A16C0B43F4
:10225000D36406E00221201DFFF7D8FD0546F0E714
:102260002E46236813F4805F27D0E36DB3F5005F3B
:102270003ED009D8A3B1B3F5805F0BD10021201D5A
:10228000FFF7C4FD054610E0B3F5405F0DD0B3F590
:10229000804F0AD0012635460FE000BF00440258A7
:1022A000934AD36A43F40033D36245BB904A136D1B
:1022B00023F4E043E16D0B431365236813F4005FDF
:1022C00033D0236EB3F5003F27D01AD83BB1B3F516
:1022D000803F1FD10121201DFFF798FD05461DBB42
:1022E000834A136D23F4E023216E0B4313651CE036
:1022F000002104F12400FFF70FFE0546D5E72E4626
:10230000DBE7B3F5802FEAD0B3F5A02FE7D0B3F524
:10231000403FE4D00126354607E0012104F12400C6
:10232000FFF7FAFD0546DAE72E46236813F4804FDF
:102330002CD0D4F8AC30B3F1005F1FD012D83BB131
:10234000B3F1805F17D10121201DFFF75FFD054626
:10235000DDB9674A936D23F0E043D4F8AC100B432A
:10236000936513E0B3F1804FF2D0B3F1A04FEFD0FB
:10237000B3F1405FECD00126354607E0012104F1BE
:102380002400FFF7C9FD0546E2E72E46236813F453
:10239000004F1FD0E36EB3F1805F06D0B3F1005F52
:1023A00011D03BB10126354614E0514AD36A43F4BB
:1023B0000033D3626DB94E4A136D23F04053E16E82
:1023C0000B43136506E00121201DFFF71FFD0546A5
:1023D000F0E72E46236813F0807F1ED0636C032B3A
:1023E00017D8DFE803F007021007414AD36A43F425
:1023F0000033D36285B93E4AD36C23F00303616C8A
:102400000B43D36409E00221201DFFF7FFFC0546C2
:10241000F0E70126354600E02E46236813F4800FCE
:102420001FD1236813F0010F00F09E80A36F282BAB
:1024300000F29680DFE803F084949494949494944A
:102440007F949494949494948D9494949494949468
:10245000849494949494949484949494949494945C
:102460008400244A136843F480731360FDF772FFFD
:102470000746204B1B6813F4807F05D1FDF76AFFE8
:10248000C01B6428F5D90325002D50D1184B1B6FB4
:10249000D4F8B020534013F4407F0CD0144B1A6F83
:1024A00022F44072196F41F480311967196F21F4D9
:1024B000803119671A67D4F8B030B3F5807F1BD02C
:1024C000002D36D1D4F8B03003F44072B2F5407F1D
:1024D00023D0074A136923F47C53136104490B6F1B
:1024E000D4F8B020C2F30B0213430B6799E700BF87
:1024F0000044025800480258FDF72CFF0746AC4B39
:102500001B6F13F0020FDBD1FDF724FFC01B41F25C
:1025100088339842F3D90325D2E7A548026922F40B
:102520007C52A44901EA131313430361D6E72E46F4
:1025300077E72E4675E70121201DFFF767FC05466A
:102540008DB99B4A536D23F03803A16F0B4353653C
:102550000AE0012104F12400FFF7DEFC0546EFE765
:102560000126354600E02E46236813F0020F20D0E6
:10257000636F052B19D8DFE803F00803110808087A
:102580000121201DFFF742FC05468DB9884A536D95
:1025900023F00703616F0B4353650AE0012104F147
:1025A0002400FFF7B9FC0546EFE70126354600E0B9
:1025B0002E46236813F0040F22D0D4F89030052B58
:1025C0001AD8DFE803F00803120808080121201DCB
:1025D000FFF71CFC054695B9754A936D23F0070378
:1025E000D4F890100B4393650AE0012104F1240014
:1025F000FFF792FC0546EEE70126354600E02E4641
:10260000236813F0200F2CD0D4F88C30B3F1005F86
:102610001FD012D83BB1B3F1805F17D10021201D2C
:10262000FFF7F4FB0546DDB9614A536D23F0E04343
:10263000D4F88C100B43536513E0B3F1804FF2D004
:10264000B3F1A04FEFD0B3F1405FECD00126354697
:1026500007E0022104F12400FFF75EFC0546E2E7F3
:102660002E46236813F0400F2CD0D4F89830B3F5E1
:10267000006F1FD012D83BB1B3F5806F17D1002186
:10268000201DFFF7C3FB0546DDB9494A936D23F4CE
:10269000E053D4F898100B43936513E0B3F5805FD3
:1026A000F2D0B3F5A05FEFD0B3F5406FECD00126C8
:1026B000354607E0022104F12400FFF72DFC054612
:1026C000E2E72E46236813F0800F2CD0D4F89C301C
:1026D000B3F5804F1FD012D83BB1B3F5005F17D1CF
:1026E0000021201DFFF792FB0546DDB9304A936DAE
:1026F00023F46043D4F89C100B43936513E0B3F5C7
:10270000004FF2D0B3F5204FEFD0B3F5C04FECD06F
:102710000126354607E0022104F12400FFF7FCFB07
:102720000546E2E72E46236813F0080F0CD0D4F8D4
:102730008030B3F5805F28D01D4A536D23F4405399
:10274000D4F880100B435365236813F0100F0CD09E
:10275000D4F89430B3F5807F20D0154A936D23F4DC
:102760004073D4F894100B439365236813F4002F3F
:1027700039D0D4F8A030B3F5803F2CD0B3F5003F6A
:102780001FD0CBB1012635462DE0022104F12400F3
:10279000FFF7C2FB0028CFD00126CDE7022104F1CC
:1027A0002400FFF7B9FB0028D7D00126D5E700BFEA
:1027B00000440258CFFFFF000021201DFFF726FB39
:1027C00005467DB9644A936D23F44033D4F8A010D4
:1027D0000B43936507E0022104F12400FFF79CFB03
:1027E0000546EEE72E46236813F4802F24D0D4F854
:1027F0008430B3F5001F17D0B3F5401F0AD0B3F5EE
:10280000801F02D00126354616E0534AD36A43F4AE
:102810000033D3627DB9504A536D23F44013D4F88A
:1028200084100B43536507E0012104F12400FFF7F6
:1028300073FB0546EEE72E46236813F4803F14D061
:10284000E36C2BB1B3F5803F23D0012635460CE075
:10285000414AD36A43F40033D36205BB3E4AD36C8A
:1028600023F48033E16C0B43D364236813F0005FDF
:1028700017D1236813F4003F2DD0E36FB3F5807FA9
:102880001BD017D9B3F5007F1CD0B3F5407F12D110
:1028900018E00221201DFFF7B9FA0546DDE72E46B4
:1028A000E3E7022104F12400FFF736FB0028E0D023
:1028B0000126DEE733B101260DE0274AD36A43F44F
:1028C0000033D362002D3DD1234A536D23F440736E
:1028D000E16F0B435365236813F4801F06D01E4A33
:1028E000136D23F00043216F0B431365236813F02E
:1028F000805F07D0184A136923F48043D4F8B410DA
:102900000B431361236813F4001F06D0124A136DA2
:1029100023F08073A16E0B431365236813F0804F7F
:1029200009D00D4B1A6922F400421A611A69D4F8D1
:10293000B8100A431A612368002B05DB06B1012693
:102940003046F8BD2E46C6E7034AD36C23F0405309
:10295000216D0B43D364F1E7004402587047000037
:1029600090F83D30DBB2012B01D0012070470223EB
:1029700080F83D300268D36843F00103D3600268F9
:102980009168074B0B40062B18BFB3F5803F05D06D
:10299000136843F001031360002070470020704764
:1029A00007000100704770477047704710B5044634
:1029B00003681A6912F0020F11D0DA6812F0020FE0
:1029C0000DD06FF002021A610123037703689B693F
:1029D00013F0030F79D0FFF7E6FF00232377236876
:1029E0001A6912F0040F12D0DA6812F0040F0ED038
:1029F0006FF004021A610223237723689B6913F4A2
:102A0000407F68D02046FFF7CEFF0023237723685E
:102A10001A6912F0080F12D0DA6812F0080F0ED0FF
:102A20006FF008021A61042323772368DB6913F02F
:102A3000030F57D02046FFF7B6FF00232377236804
:102A40001A6912F0100F12D0DA6812F0100F0ED0BF
:102A50006FF010021A61082323772368DB6913F4EF
:102A6000407F46D02046FFF79EFF00232377236850
:102A70001A6912F0010F03D0DA6812F0010F3FD18A
:102A800023681A6912F0800F03D0DA6812F0800F01
:102A90003DD123681A6912F4807F03D0DA6812F0FE
:102AA000800F3BD123681A6912F0400F03D0DA6817
:102AB00012F0400F39D123681A6912F0200F03D0A9
:102AC000DA6812F0200F37D110BDFFF76BFF2046F8
:102AD000FFF76AFF81E72046FFF764FF2046FFF714
:102AE00063FF92E72046FFF75DFF2046FFF75CFF9C
:102AF000A3E72046FFF756FF2046FFF755FFB4E750
:102B00006FF001021A61204602F092FDB8E76FF003
:102B100080021A61204600F0C7F8BAE76FF48072AD
:102B20001A61204600F0C1F8BCE76FF040021A615C
:102B30002046FFF73AFFBEE76FF020021A612046F9
:102B400000F0B1F8C0E7000070B40368374CA04251
:102B500014BF00240124B0F1804F14BF224644F07A
:102B60000102AAB9324DA84214BF00250125314EF9
:102B7000B0420DD065B905F1804505F58235A84212
:102B800014BF0025012506F50066B04200D01DB136
:102B900023F070034D682B4312BB254A904214BFAB
:102BA00000220122234DA8421AD0CAB902F1804264
:102BB00002F58232904214BF0022012205F5006521
:102BC000A8420DD062B91C4A904214BF00220122D3
:102BD00005F59A35A84203D012B9184A904203D19C
:102BE00023F44073CA68134323F080034A691343F4
:102BF00003608A68C2620A688262114B984214BFFD
:102C0000234644F001035BB90B4B984214BF0023E9
:102C100001230C4A904203D013B9084B984201D1CA
:102C20000B6903630123436170BC704700000140DE
:102C300000080040000400400044014000480140FA
:102C4000000401400040014058B310B5044690F81C
:102C50003D300BB3022384F83D30211D2068FFF77F
:102C600073FF012384F8483084F83E3084F83F3005
:102C700084F8403084F8413084F8423084F843309E
:102C800084F8443084F8453084F8463084F847307E
:102C900084F83D30002010BD80F83C30FFF75EFE28
:102CA000D8E70120704770477047704708B5FDF7B7
:102CB00057FB08BD0000000038B504460D4610A1C2
:102CC000D1E90001C4E9000184ED020AC4ED030A60
:102CD00084ED041A6361C4ED061A22779DF8103062
:102CE0006377002384F82E3084F82F3084F8303056
:102CF000042002F00AFE05602062204638BD00BFB5
:102D0000182D4454FB21094030B595B00446036AA0
:102D10001868002106910591049103910291019197
:102D2000237F00938123022200F093FF0120FDF70F
:102D300017FB217F42F21073012201F5E061206A46
:102D400000F0B1FD05464FF47A70FDF709FB236AE8
:102D5000186800F077FF30B1236A08AA0AA918683A
:102D600000F0D5FFF3E7284615B030BD30B589B087
:102D70000446036A186800210691059104910391A5
:102D800002910191237F00930123022200F061FF51
:102D90000120FFF78BFF217F42F21073012201F522
:102DA000E061206A00F07FFD05464FF47A70FFF77E
:102DB0007DFF236A186800F045FF0028F9D12846F6
:102DC00009B030BD10B582B00446017F06230093E0
:102DD000002346F24002006A00F0E3FB3220FFF7D6
:102DE00065FF217F07230093002346F24002206AFB
:102DF00000F0D7FB3220FFF759FF206A217F0F2315
:102E00000093002346F2400200F0CBFB012002B009
:102E100010BD000070B584B00446017F0423009308
:102E2000002346F26002006A00F08EFB217F4FF41F
:102E30007A730093002346F27202206A00F0B1FB1D
:102E4000002504AB43F8045D217F0093012342F287
:102E50003B02206A00F09BFCD4ED027A9FED217AC0
:102E600067EE877AFCEEE77ACDED037A217FCDED30
:102E7000007A012342F23B02206A00F0F3FB322089
:102E8000FFF714FF217F64230093022342F23B02E9
:102E9000206A00F0E7FB3220FFF708FF44F62063CA
:102EA00004AE46F8083D217F00932B4646F2870288
:102EB000206A00F0D7FB217F00962B4646F287025E
:102EC000206A00F064FC3220FFF7F0FE206A217FC8
:102ED00000952B4646F2710200F093FB012004B0EE
:102EE00070BD00BF00007A4410B582B00446017F77
:102EF00000F13C030093002342F25A02006A00F002
:102F000046FCE06B02B010BD10B582B004464369C8
:102F1000017F0093012346F28F02006A00F0A2FBBA
:102F20000A20FFF7C3FE206A217F012400940223B8
:102F300046F28F0200F096FB0A20FFF7B7FE20460C
:102F400002B010BD10B582B00446017F00F1380315
:102F50000093012346F28F02006A00F018FC206AF9
:102F6000217F34340094022346F28F0200F00FFCDC
:102F7000012002B010BD30B583B00446017F862326
:102F80000093002346F24002006A00F00AFB054667
:102F90001D20FFF78BFE236A186800F053FE0028FF
:102FA000F9D1284603B030BD2DE9F04383B0044683
:102FB000017F284B0B44009301234FF4C052006A59
:102FC00000F050FB0546217F234B0B440093012367
:102FD00041F60102206A00F045FB8146217F1F4B2C
:102FE0000B440093012341F60202206A00F03AFBF1
:102FF0000646217F1A4B0B440093012341F603023E
:10300000206A00F02FFB0746217F164B0B440093EC
:1030100001234FF4A052206A00F024FB8046217F58
:10302000114B0B44206A0093012341F2014200F04E
:1030300019FB45EA090313F0FF0307D146EA07032A
:1030400013F0FF0302D148EA0003DBB2184603B0D5
:10305000BDE8F08380010080800200808003008052
:1030600080040080000200800003008030B583B03F
:103070000446017F06230093002346F24002006AC3
:1030800000F08FFA05461D20FFF710FE236A18682E
:1030900000F0D8FD0028F9D1284603B030BD30B586
:1030A00095B00446036A18680021069105910491C1
:1030B000039102910191237F00938023022200F06B
:1030C000C8FD0120FFF7F2FD217F42F210730122BB
:1030D00001F5E061206A00F0E6FB05464FF47A70E6
:1030E000FFF7E4FD236A186800F0ACFD30B1236AF5
:1030F00008AA0AA9186800F00AFEF3E7284615B0E6
:1031000030BDF0B583B00446017F01F5C073009374
:1031100001234FF4C052006A00F0A4FA0546217F53
:1031200001F520730093012341F60102206A00F0AB
:1031300099FA0746217F01F50073009301234FF4AC
:10314000A052206A00F08EFA0646217F01F54073F6
:10315000206A0093012341F2014200F083FA45EA1C
:10316000070313F0FF0302D146EA0003DBB218465F
:1031700003B0F0BDF0B583B00446017F8023009317
:10318000002341F20502006A00F06CFA217F02265A
:10319000009633464FF4C052206A00F0A8F9217F10
:1031A0000025009503234FF4C052206A00F0F9F97E
:1031B000217F0096334641F60102206A00F097F91C
:1031C000217F0095032341F60102206A00F0E9F90E
:1031D000217F00952B464FF4D052206A00F087F9EA
:1031E000217F364B009301234FF4D052206A00F028
:1031F00039FA217F324B009333464FF4D052206A84
:1032000000F030FA217F2F4B009303234FF4D0526C
:10321000206A00F027FA217F032300932B464FF406
:10322000D052206A00F063F9217F00952B4641F6C9
:103230000122206A00F05BF9217F234B00930123D8
:1032400041F60122206A00F00DFA217F0127009744
:103250002B4641F60122206A00F049F9217F0097B0
:1032600033464FF4A052206A00F041F9217F0097C5
:10327000334641F20142206A00F039F9217F00957E
:103280002B4641F20162206A00F031F9217F0F4B99
:1032900000933B4641F20162206A00F0E3F9217F8E
:1032A00000972B4641F20162206A00F020F9204687
:1032B000FFF727FF384603B0F0BD00BF10004160A4
:1032C0000800616020006460100077601000716089
:1032D00010B582B00446FFF717FD2046FFF7DFFE6A
:1032E0002046FFF761FE8DF80700637F13BB204681
:1032F000FFF7BCFE2046FFF73EFE2046FFF722FE0A
:103300002046FFF701FE2046FFF7EEFD2046FFF7BF
:1033100081FD2046FFF72AFD2046FFF753FD0123DC
:1033200084F83030637F1BB194F82F3003B1012053
:1033300002B010BD2046FFF71DFF84F82F00D6E72E
:1033400000B583B002469FED187A20EE070AD0ED53
:10335000037A80EE276ABDEEC66AD0ED025A65EEAA
:10336000875AFDEEE55A15EE903A5B4207EE103AA9
:10337000B8EEC66BB8EEC77B86FE077BB8EEE56B92
:1033800087FE467BBDEEC77B17EE103A1BB2006A84
:10339000117F0093002346F2710200F032F9012000
:1033A00003B05DF804FB00BF00007A4410B582B0A2
:1033B0000446017F00F144030093002346F26402B7
:1033C000006A00F05CFA606C02B010BD10B50446F3
:1033D000FFF7ECFF94ED007B37EE077B06EE900ADB
:1033E000B8EEE66B26EE077B94ED056AB8EE466B09
:1033F00087EE060BB7EEC00B10BDC8B27047080AC7
:1034000070472DE9F04188B004461546984601F50D
:10341000C0661146FFF7F1FF074629462046FFF731
:10342000EEFF246800230693059304930393CDF8DD
:10343000088001900097402308223146204600F082
:1034400008FC08B0BDE8F0812DE9F0419CB00446CD
:10345000884616461F46229D006800F0F3FB039045
:1034600008F5B06302930023019313E0129A0892C7
:103470009DF81A109DF8193003EB01239BB2ADF8AB
:103480000230029B9A421FD00120FCF769FF019B8A
:1034900001330193019BAB4225D2206800F0D2FB9F
:1034A0000390039B002BEFD006AA12A9206800F01E
:1034B0002EFC0023072BD9DC1CAA1A4412F8581C36
:1034C00002F8601C0133F5E79DF81830802BDBD043
:1034D000BDF802309BB2B342D6D19DF81B30BB423F
:1034E000D2D1012000E000201CB0BDE8F0812DE920
:1034F000F04389B004460E4615461F4601F5C068E4
:103500001146FFF77AFF814629462046FFF777FFED
:1035100000230693059304939DF84030039302978C
:103520000190CDF800902F2308224146206800F03A
:1035300090FB032300933B462A4631462046FFF783
:1035400083FF09B0BDE8F0832DE9F04389B004465C
:103550000E4615461F4601F5C0681146FFF74DFFA0
:10356000814629462046FFF74AFF9DF84020002368
:10357000069305930493039202970190CDF800906F
:103580002F2308224146206800F063FB03230093A9
:103590003B462A4631462046FFF756FF09B0BDE8B4
:1035A000F0832DE9F04788B005460F461646984649
:1035B000BDF8404001F5C0691146FFF71EFF824685
:1035C00031462846FFF71BFFE2B2240A0023069388
:1035D000059304940392CDF808800190CDF800A0E3
:1035E0002B2308224946286800F033FB032300936D
:1035F0004346324639462846FFF726FF08B0BDE865
:10360000F0872DE9F04788B005460F4616469846E4
:10361000BDF9404001F5C0691146FFF7EEFE824654
:1036200031462846FFF7EBFEE2B2C4F3072400233D
:103630000693059304940392CDF808800190CDF889
:1036400000A02B2308224946286800F002FB032330
:1036500000934346324639462846FFF7F5FE08B048
:10366000BDE8F0872DE9F04788B005460F461646BD
:103670009846109C01F5C0691146FFF7BEFE8246D0
:1036800031462846FFF7BBFEE3B2C4F30722C4F37A
:103690000741240E0694059104920393CDF8088007
:1036A0000190CDF800A0232308224946286800F0A5
:1036B000D0FA032300934346324639462846FFF7A3
:1036C000C3FE08B0BDE8F0872DE9F0419CB0044688
:1036D000884616461F46229D006800F0B3FA039004
:1036E00008F5B06302930023019313E0129A089245
:1036F0009DF81A109DF8193003EB01239BB2ADF829
:103700000230029B9A421FD00120FCF729FE019B48
:1037100001330193019BAB4235D2206800F092FA4D
:103720000390039B002BEFD006AA12A9206800F09B
:10373000EEFA0023072BD9DC1CAA1A4412F8581CF5
:1037400002F8601C0133F5E79DF81830802BDBD0C0
:10375000BDF802309BB2B342D6D19DF81B30BB42BC
:10376000D2D19DF81F209DF81E301B0403EB02638D
:103770009DF81D2003EB02239DF81C201344239A7F
:103780001360012000E000201CB0BDE8F081F0B51E
:1037900083B004460D4616461F46FFF732FE089BCF
:1037A0000193022300933B46324629462046FFF709
:1037B0008BFF03B0F0BD2DE9F0419EB00446884672
:1037C00016461F46249D006800F03CFA049008F558
:1037D000B06303930023029313E0139A09929DF8B8
:1037E0001E109DF81D3003EB01239BB2ADF806308F
:1037F000039B9A421FD00120FCF7B2FD029B0133CC
:103800000293029BAB4236D2206800F01BFA049070
:10381000049B002BEFD007AA13A9206800F077FAC9
:103820000023072BD9DC1EAA1A4412F85C1C02F8EC
:10383000641C0133F5E79DF81C30802BDBD0BDF80C
:1038400006309BB2B342D6D19DF81F30BB42D2D1D5
:103850000023032B0ADC1A1D1EA90A4412F85C1C63
:103860001EAA1A4402F8041C0133F2E71D9A259B94
:103870001A60012000E000201EB0BDE8F081F0B524
:1038800083B004460D4616461F46FFF7BAFD089B57
:103890000193022300933B46324629462046FFF718
:1038A0008AFF03B0F0BD2DE9F0419AB00546884685
:1038B00017461E460024059418E003AA10A928689C
:1038C00000F025FA0023072B07DC1AAA1A4412F885
:1038D0005C1C02F8641C0133F5E7109B069343451A
:1038E0000DD1012010E00120FCF73AFDB4420AD2CC
:1038F000286800F0A7F90590059B002BDDD1002F6B
:10390000F1D00134EFE700201AB0BDE8F0810000EB
:103910002DE9F04788B004460023039304930593F0
:1039200006930793504B1B6883B1226B537B013383
:10393000537300236360A36023616361A3614FF449
:103940000002E261236208B0BDE8F087B02001F018
:10395000DCFF0546444A1060B022002102F07DFEE3
:10396000256301202870236B00211973236B597381
:10397000256B032200F0C4FB6860236B58680028A5
:103980006CD03A4900F0D6FD206B00231A46194648
:10399000406800F0DDFB256B03220021012000F0D0
:1039A000AFFBA860236B986800285AD0304900F01C
:1039B000C1FD206B00231A461946806800F0C8FB41
:1039C000236B4FF0FF31986800F0E6FC294DD5F8E5
:1039D000E03043F00803C5F8E030D5F8E03003F0FC
:1039E00008030193019B022703970497012605967C
:1039F0004FF0030ACDF818A04FF00909CDF81C903C
:103A0000DFF8748003A94046FDF71EFB0396049778
:103A10000596CDF818A0CDF81C9003A94046FDF7F7
:103A200013FBD5F8EC3043F48073C5F8EC30D5F8CF
:103A3000EC3003F480730293029B002211461320A2
:103A4000FCF7BAFC1320FCF7E9FC00221146152014
:103A5000FCF7B2FC1520FCF7E1FC66E700232363CA
:103A600071E7002323636EE7C00000207868000838
:103A70008868000800440258000C0258036B1A7B47
:103A800012B91A78012A00D07047F0B589B00446FF
:103A9000654A1A61036B00269E61036BDE61036B4E
:103AA000012583F82050036B83F82150036B83F8C2
:103AB0002250036B04225A62036B9D62036B0D213B
:103AC000D962036B02271F63006B08234362206BDC
:103AD0008262206BC162216B0F63216B4D62216B8F
:103AE0008D62206B4FF0050CC0F82CC0206B076373
:103AF000206B4562206B8562206BC362206B05637F
:103B0000206B4762206B85620620216BC862216BA7
:103B10000D63216B4862206B8362206BC362206B54
:103B20000563206B4262206B8362206BC362206B53
:103B30000563206B4562206B83621F20216BC86286
:103B4000206B0363236BC3F824C0236B07219962A6
:103B5000236B0A21D962236B1D63236B5E64236B85
:103B60009D64236BDE64236B14211965236B5A65F6
:103B7000236B9E65236BDA65236B1E66236B5A6687
:103B8000236B9E66236BDD66236B1D67236B5E676D
:103B9000236B9A67206B324639461030FCF703FFDF
:103BA000206B324639461030FCF7FDFE206B10309A
:103BB000FCF70CFF0096019602960395049540F2DF
:103BC000FF730593206B1030FCF760FDE0B9206BAC
:103BD00069461030FCF7A4FEC8B9206B1030FCF722
:103BE00009FFB8B9206B002240F601211030FDF723
:103BF00041F890B9206B00224FF400611030FDF7BE
:103C000039F868B909B0F0BD01F01EFDDFE701F039
:103C10001BFDE2E701F018FDE4E701F015FDE9E71F
:103C200001F012FDEEE700BF00A0004010B5044611
:103C3000FFF76EFE2046FFF721FF002384F838309F
:103C4000204610BD08B5006B40211030FDF704F888
:103C500008BD10B504460160082A4FD8DFE802F01D
:103C6000052E32363A3E42464A000022C26084F8AF
:103C700024309DF8083084F825309DF80C3084F805
:103C800026309DF8103084F827309DF8143084F8E1
:103C900028309DF8183084F829309DF81C3084F8BD
:103CA0002A309DF8203084F82B30206B04F1240258
:103CB00021461030FCF7B8FE18BB10BD4FF480321F
:103CC000C260D4E74FF40032C260D0E74FF4403214
:103CD000C260CCE74FF48022C260C8E74FF4A02254
:103CE000C260C4E74FF4C022C260C0E74FF4E022D4
:103CF000C260BCE74FF40022C260B8E70022C26095
:103D0000B5E7022384F8253001F09EFCD5E708B51D
:103D1000006B13460A4640211030FCF7BFFE00B985
:103D200008BD01F091FCFBE702680C4B9A4200D001
:103D3000704710B504460A4B186800231A46194606
:103D4000806800F005FA002240F601212046FCF7C9
:103D500091FF00B910BD01F077FCFBE700A0004027
:103D6000C000002008B5034B186810B11030FCF7F4
:103D7000D5FF08BDC000002008B5034B186810B17E
:103D80001030FCF7CBFF08BDC000002008B5FFF7DE
:103D9000CBFF08BD08B5FFF7C7FF08BD08B5FFF7A3
:103DA000C3FF08BD00B583B000230193FFF7BCFF3C
:103DB00003B05DF804FB82B00023019302B07047AA
:103DC00003691A6912F0010F2AD0DA6812F0010FA4
:103DD00026D010B582B004466FF001021A61038943
:103DE000C26813440133C360406E80B1002102AA4F
:103DF00042F8041D0B4600F069FA019B3BB1094BE8
:103E00004FF080521A60BFF34F8FBFF36F8F236E56
:103E100003B19847E06D08B100F018FC02B010BD86
:103E2000704700BF04ED00E008B5054B186820B9E5
:103E3000044B6FF0FF021A6108BDFFF7C1FFFBE7FB
:103E4000CC0000200010004008B5054B586820B990
:103E5000044B6FF0FF021A6108BDFFF7B1FFFBE7EB
:103E6000CC0000200014004008B5054B986820B92C
:103E7000044B6FF0FF021A6108BDFFF7A1FFFBE7DB
:103E8000CC0000200018004008B5054BD86820B9C8
:103E9000044B6FF0FF021A6108BDFFF791FFFBE7CB
:103EA000CC000020001C004000F1080343604FF0EC
:103EB000FF328260C3600361002303607047436880
:103EC0004B609A688A609A685160996008610368DB
:103ED00001330360704730B40D68B5F1FF3F02D085
:103EE00000F1080202E0026904E01A4653681C6807
:103EF000AC42FAD953684B6099608A60516008619E
:103F000003680133036030BC70470369426881680D
:103F100091608268416851605A68824206D00022EE
:103F200002611A68013A1A601868704782685A601C
:103F3000F5E7436A23B1036B1868C0F107007047C7
:103F40000020704710B5044600F01CFFA26BE36B25
:103F50009A4204D0002400F037FF204610BD01240F
:103F6000F9E710B5044600F00DFFA36B23B1002460
:103F700000F02AFF204610BD0124F9E770B5044681
:103F80001646856B026C5AB903681BB100200135D7
:103F9000A56370BD806800F019FE0023A360F6E7FA
:103FA0006EB9406802F04EFB226C63681344636094
:103FB000A268934219D3236863600020E7E7C068D2
:103FC00002F040FB226C5242E3681344E360216834
:103FD0008B4202D2A3681A44E260022E01D0002074
:103FE000D5E725B1013D0020D1E70020CFE7002033
:103FF000CDE738B5054600F0C5FE95F8454064B2FA
:1040000003E000F069FD013C64B2002C08DD6B6A3E
:1040100033B105F1240000F0D3FC0028F3D0F0E721
:10402000FF2385F8453000F0CFFE00F0ABFE95F899
:10403000444064B203E000F04FFD013C64B2002C48
:1040400008DD2B6933B105F1100000F0B9FC002840
:10405000F3D0F0E7FF2385F8443000F0B5FE38BD1B
:1040600038B540B94FF0500383F31188BFF36F8F19
:10407000BFF34F8FFEE704460D4600F083FE216834
:10408000E26B236C03FB0210A0600020A063616060
:10409000013A02FB0313E360FF2384F8443084F801
:1040A0004530A5B923691BB900F08EFE012038BD4B
:1040B00004F1100000F084FC0028F5D0084B4FF00C
:1040C00080521A60BFF34F8FBFF36F8FECE704F19C
:1040D0001000FFF7E9FE04F12400FFF7E5FEE3E737
:1040E00004ED00E010B5029B0C4639B11A60D863AC
:1040F0001C6401211846FFF7B3FF10BD1B60F6E7F3
:1041000040B94FF0500383F31188BFF36F8FBFF3B3
:104110004F8FFEE7F0B583B0064611B101FB00F00A
:1041200000E0002017460C46483000F02DFF054601
:1041300050B1002380F8463000903B4600F1480221
:1041400021463046FFF7CEFF284603B0F0BD000001
:10415000F0B585B0019260B1044699B9026C8AB19C
:104160004FF0500383F31188BFF36F8FBFF34F8F6E
:10417000FEE74FF0500383F31188BFF36F8FBFF357
:104180004F8FFEE7022B0BD1E26B012A08D04FF0D4
:10419000500383F31188BFF36F8FBFF34F8FFEE798
:1041A0001E460F4600F0A0FC50B9019B53B14FF0E2
:1041B000500383F31188BFF36F8FBFF34F8FFEE778
:1041C00000253AE0002538E0324639462046FFF720
:1041D000D5FE636A4BB9A8B13B4B4FF080521A60D1
:1041E000BFF34F8FBFF36F8F0CE004F1240000F09A
:1041F000E7FB38B1344B4FF080521A60BFF34F8F5A
:10420000BFF36F8F00F0E0FD012005B0F0BD00F0BE
:10421000DBFD0020F9E702A800F014FC012519E0FD
:10422000002384F8443021E0002384F8453023E063
:104230002046FFF7DEFE00F0E9FA00F0A3FDA26BD6
:10424000E36B9A42C0D3022EBED0019B002BDED07E
:10425000002DE0D000F0B8FD00F048FA00F092FD2B
:1042600094F844305BB2B3F1FF3FD9D094F84530B5
:104270005BB2B3F1FF3FD7D000F0A6FD01A902A8C1
:1042800000F0EAFBC8B92046FFF75CFE0028CFD05B
:10429000019904F1100000F079FB2046FFF7A9FE18
:1042A00000F0B4FA0028C8D1074B4FF080521A60D2
:1042B000BFF34F8FBFF36F8FBFE72046FFF799FE25
:1042C00000F0A4FA0020A0E704ED00E02DE9F84397
:1042D00060B1044699B9006C88B14FF0500383F384
:1042E0001188BFF36F8FBFF34F8FFEE74FF050037E
:1042F00083F31188BFF36F8FBFF34F8FFEE7022B5D
:104300000BD1E06B012808D04FF0500383F31188E4
:10431000BFF36F8FBFF34F8FFEE71F46904689466E
:1043200000F0B6FDEFF311864FF0500383F31188D0
:10433000BFF36F8FBFF34F8FA26BE36B9A4203D330
:10434000022F01D000200FE094F845506DB23A469C
:1043500049462046FFF712FEB5F1FF3F08D06B1C1F
:104360005BB284F84530012086F31188BDE8F883FC
:10437000636A5BB104F1240000F022FB40B1B8F1A4
:10438000000F07D00120C8F80000EDE70120EBE79F
:104390000120E9E70120E7E770B584B0019140B959
:1043A0004FF0500383F31188BFF36F8FBFF34F8F2C
:1043B000FEE70446036C43B14FF0500383F31188CA
:1043C000BFF36F8FBFF34F8FFEE700F08DFB50B947
:1043D000019B5BB14FF0500383F31188BFF36F8FE4
:1043E000BFF34F8FFEE700252E4651E000252E46F5
:1043F0004EE0013BA363236813B900F0A1FCA06069
:10440000236963B104F1100000F0DAFA38B1484BC7
:104410004FF080521A60BFF34F8FBFF36F8F00F0E1
:10442000D3FC0125284604B070BD45B14FF05003C0
:1044300083F31188BFF36F8FBFF34F8FFEE700F058
:10444000C3FCEFE702A800F0FDFA01262AE00023F2
:1044500084F8443032E0002384F8453034E000F042
:1044600091FCA06800F050FB054600F0ADFC3BE07D
:104470002046FFF7BEFD00F0C9F909E02046FFF72E
:10448000B8FD00F0C3F92046FFF76BFD002840D1CE
:1044900000F078FCA36B002BABD1019B002BC4D0A8
:1044A000002ECFD000F090FC00F020F900F06AFC64
:1044B00094F844305BB2B3F1FF3FC8D094F8453074
:1044C0005BB2B3F1FF3FC6D000F07EFC01A902A8A9
:1044D00000F0C2FA0028D1D12046FFF742FD0028A3
:1044E000C6D02368002BBAD0019904F1240000F053
:1044F0004DFA2046FFF77DFD00F088F90028C7D16E
:104500000B4B4FF080521A60BFF34F8FBFF36F8F8A
:10451000BEE7002D86D000F035FC2046FFF709FDF0
:104520000146A06800F0AAFB00F04EFC002579E7E8
:1045300004ED00E00023072B0CD8074A52F8332083
:104540000AB10133F7E7044A42F8331002EBC30320
:1045500058607047704700BF9C3E002050B14169D1
:104560000C4A91420FD1836A143293420DD073B139
:10457000002070474FF0500383F31188BFF36F8F13
:10458000BFF34F8FFEE700207047002070470120E7
:10459000704700BFDC000020074B9B6A1B6833B1EB
:1045A000054B9A6AD268D2685268DA627047024B49
:1045B0004FF0FF32DA627047DC00002070B504462D
:1045C0000E46214BD3F81451D3F800010430FFF705
:1045D0009CFC60B91C4BD3F80021D16A012202FA7D
:1045E00001F1D3F80C2122EA0102C3F80C21B4F145
:1045F000FF3F14BF00230123002E08BF002393B9FF
:104600002C44114BD3F800315C60A54212D80E4DFA
:10461000A86AD5F800110431FFF75DFCEB6AA342EC
:1046200010D9EC620EE00848D0F800110431FFF711
:1046300046FC07E0044BD3F8F800D3F8001104312E
:10464000FFF749FC70BD00BFDC000020F8B540B9A1
:104650004FF0500383F31188BFF36F8FBFF34F8F79
:10466000FEE7044600F014FCEFF311874FF050030F
:1046700083F31188BFF36F8FBFF34F8F2046FFF78F
:104680006DFF60B3174BD3F818310BBBE26A154BC3
:10469000D3F80031DB6A9A4218D20025261D304635
:1046A000FFF733FCE06A012282400E4BD3F80C1175
:1046B0000A43C3F80C2130333146142202FB003088
:1046C000FFF7FDFB87F311882846F8BD0125E5E7D4
:1046D00004F118010448FFF7F2FB0025F2E700257A
:1046E000F0E700BFDC000020F0000020034AD2F811
:1046F00018310133C2F81831704700BFDC000020C8
:104700002DE9F041404BD3F81831002B6CD13E4BD2
:10471000D3F814510135C3F81451CDB99B6A1B6805
:1047200043B14FF0500383F31188BFF36F8FBFF392
:104730004F8FFEE7344B9A6AD3F8F8109962C3F8AA
:10474000F820D3F81C210132C3F81C21FFF724FF05
:104750002D4BDB6AAB423DD900242B4AD2F8003105
:10476000DB6A03EB830399000A44136B012B42D9E4
:10477000012440E00124244B9B6A1B6863B3224B55
:104780009B6ADB68DE6873689D422AD306F10408E1
:104790004046FFF7BAFBB36A1BB106F11800FFF7FA
:1047A000B4FBF36A01229A40174FD7F80C110A4361
:1047B000C7F80C2107F1300003EB83039A00414650
:1047C0001044FFF77CFBF26AD7F80031DB6A9A42AB
:1047D000D0D2D0E70024CEE70B4B4FF0FF32DA62A5
:1047E000BBE7094AD362B8E7074AD2F82031013360
:1047F000C2F820310024044BD3F8243103B1012442
:104800002046BDE8F08100BFDC000020394BD3F822
:10481000183143B94FF0500383F31188BFF36F8F02
:10482000BFF34F8FFEE770B500F0ACFA314BD3F811
:104830001821013AC3F81821D3F81831002B54D1AC
:104840002C4BD3F8FC3023B9002400F0BDFA2046ED
:1048500070BD0024274B5B692BB3264D2B6ADC68A7
:1048600004F11800FFF751FB261D3046FFF74DFB02
:10487000E36A01229A40D5F80C110A43C5F80C21CD
:1048800005F1300003EB83039A0031461044FFF733
:1048900016FBE26AD5F80031DB6A9A42DAD30122CC
:1048A000C5F82421D6E70CB1FFF776FE114BD3F8FB
:1048B000204164B1FFF724FF18B10E4B0122C3F869
:1048C0002421013CF6D10B4B0022C3F82021094BD7
:1048D000D3F824315BB1084B4FF080521A60BFF31C
:1048E0004F8FBFF36F8F0124AFE70024ADE70024A3
:1048F000ABE700BFDC00002004ED00E0224BD3F862
:10490000183123B1204B0122C3F8242170471E4ADD
:104910000023C2F82431D2F80C31B3FA83F3DBB2AE
:10492000C3F11F0303EB830081000A44126B42B9F9
:104930004FF0500383F31188BFF36F8FBFF34F8F96
:10494000FEE710B4104A9900CC18A0001044446B44
:104950006468446330321944880008300244944249
:104960000BD0094903EB83039A000A44536BDB68BD
:10497000C1F800315DF8044B7047616802481422A9
:1049800002FB03025163ECE7DC00002040B94FF06A
:10499000500383F31188BFF36F8FBFF34F8FFEE790
:1049A00010B50C46054BD3F800111831FFF793FAF8
:1049B00001212046FFF702FE10BD00BFDC000020F1
:1049C00038B5C368DC6844B94FF0500383F31188ED
:1049D000BFF36F8FBFF34F8FFEE704F11805284632
:1049E000FFF793FA154BD3F8183103BB251D284662
:1049F000FFF78BFAE36A01219940104AD2F80C01C3
:104A00000143C2F80C11303203EB830398002946AE
:104A10001044FFF754FAE26A084BD3F80031DB6A1E
:104A20009A4209D90120054BC3F8240138BD294613
:104A30000348FFF744FAEEE70020F7E7DC00002028
:104A4000F0000020034BD3F81C210260D3F814318E
:104A500043607047DC000020F8B550B1054689B9C5
:104A60004FF0500383F31188BFF36F8FBFF34F8F65
:104A7000FEE74FF0500383F31188BFF36F8FBFF34E
:104A80004F8FFEE70C4600F07DF9124BD3F814115E
:104A900068680A1A2368B3F1FF3F17D02F680D4EDC
:104AA000D6F81C61B74201D0884211D9934203D88D
:104AB00000232360012405E09B1A23602846FFF7AA
:104AC000C1FF002400F080F92046F8BD0024F9E77A
:104AD0000124F7E7DC000020024B0122C3F8242167
:104AE000704700BFDC000020064BD3F804313BB117
:104AF000044BD3F818310BB10020704702207047E7
:104B000001207047DC000020002859D038B5044649
:104B1000C26A2C49D1F80011C96A8A4245D281691A
:104B2000002906DB2749D1F80011C96AC1F1070144
:104B30008161606902EB82029100234A0A4490423B
:104B400006D0204AD2F80021D26AE262012038BDA4
:104B5000251D2846FFF7D9F980B9E26A02EB8203E6
:104B60009900184B0B441B6B43B901239340154923
:104B7000D1F80C2122EA0302C1F80C211148D0F827
:104B80000031DB6AE362012404FA03F2D0F80C116D
:104B90000A43C0F80C21303003EB83039A00294606
:104BA0001044FFF78CF92046D1E7426C054BD3F84F
:104BB0000031DB6A9A4201D20120C8E70020C6E733
:104BC00000207047DC0000200C01002000284DD0A0
:104BD00038B50446284AD2F80021824208D04FF066
:104BE000500383F31188BFF36F8FBFF34F8FFEE73E
:104BF000826C42B94FF0500383F31188BFF36F8F7B
:104C0000BFF34F8FFEE7013A8264C06A616C88424D
:104C10002ED07ABB251D2846FFF777F978B9E26ACE
:104C20001549142303FB02131B6B43B9012303FA39
:104C300002F2D1F80C3123EA0203C1F80C31626CA4
:104C4000E262C2F10703A361012404FA02F10A4BF4
:104C5000D3F80C010143C3F80C113033294614205A
:104C600000FB0230FFF72BF9204638BD00207047CB
:104C70000020FAE70020F8E7DC000020002859D0E7
:104C800038B50346806C40B94FF0500383F3118868
:104C9000BFF36F8FBFF34F8FFEE75A6C8A4200D28B
:104CA0000A46D96A914201D0012800D038BD224875
:104CB000D0F80001984208D14FF0500383F31188D7
:104CC000BFF36F8FBFF34F8FFEE7DA62986900285A
:104CD00002DBC2F107029A615A691848142404FBE6
:104CE00001018A42E2D11C461D1D2846FFF70DF93D
:104CF00078B9E26A1049142303FB02131B6B43B912
:104D0000012303FA02F2D1F80C3123EA0203C1F8BD
:104D10000C31E06A01228240074BD3F80C110A43A0
:104D2000C3F80C2130332946142202FB0030FFF770
:104D3000C6F8BBE7704700BFDC0000200C01002074
:104D4000064BD3F800312BB1044BD3F80021936C00
:104D500001339364014BD3F800017047DC0000205D
:104D6000074B19680868B0E8F04F80F30988BFF373
:104D70006F8F4FF0000080F311887047AFF3008011
:104D8000DC0100204FF0500383F31188BFF36F8FD5
:104D9000BFF34F8F0A4A136801331360012B00D011
:104DA0007047084B1B6813F0FF0FF9D04FF050030A
:104DB00083F31188BFF36F8FBFF34F8FFEE700BF00
:104DC0000800002004ED00E0094B1B6843B94FF0D8
:104DD000500383F31188BFF36F8FBFF34F8FFEE74C
:104DE000013B034A13600BB983F31188704700BF7E
:104DF000080000200000000000000000000000008B
:104E0000EFF30980BFF36F8F154B1A681EF0100F78
:104E100008BF20ED108A20E9F04F10602DE909004D
:104E20004FF0500080F31188BFF34F8FBFF36F8FA7
:104E3000FFF764FD4FF0000080F3118809BC19688A
:104E40000868B0E8F04F1EF0100F08BFB0EC108AF1
:104E500080F30988BFF36F8F704700BFAFF3008006
:104E6000DC01002008B54FF0500383F31188BFF335
:104E70006F8FBFF34F8FFFF743FC18B1034B4FF019
:104E800080521A60002383F3118808BD04ED00E00E
:104E9000EFF305830F2B0FD9104A9B5CDBB2104A4E
:104EA00012789A4208D94FF0500383F31188BFF368
:104EB0006F8FBFF34F8FFEE70A4B1B6803F4E0636D
:104EC000074A5268934208D94FF0500383F3118880
:104ED000BFF36F8FBFF34F8FFEE77047F0E300E043
:104EE000040200200CED00E0104A12F0070F1AD067
:104EF000D11D21F00701C1F5705313440A460C4936
:104F00000A60002048601344083B23F007038B60CD
:104F100058601860981A50601360C86008614FF0BC
:104F200000434B6170474FF47053E8E724020020C0
:104F30000C02002010B4134B1A6882421BD359682C
:104F40005C18844203D140680144596018464168A6
:104F50004418A24213D10B4CA468A2420DD052684F
:104F6000114441601A6812680260984200D01860CB
:104F70005DF8044B70471346DEE70460F5E7026016
:104F8000F3E700BF0C02002070B50446FFF7AEFB4C
:104F9000394B9B68BBB1384B5B691C4262D1ACB1E9
:104FA000083414F0070F11D024F00704083404F07B
:104FB00007035BB14FF0500383F31188BFF36F8F8A
:104FC000BFF34F8FFEE7FFF78FFFE4E7002C4BD0D6
:104FD000294B1B69A34249D3274B1D6801E02B468F
:104FE00015466A68A24202D22A68002AF7D1224AEC
:104FF0009268AA423CD01E6808362A681A606B681C
:105000001B1B102B10D9281910F0070F08D04FF0D8
:10501000500383F31188BFF36F8FBFF34F8FFEE709
:1050200043606C60FFF786FF6968134A13695B1A77
:105030001361D268934201D20F4AD3600E4B5B6971
:105040000B436B6000232B60FFF7E0FB16F0070FAC
:1050500010D04FF0500383F31188BFF36F8FBFF36D
:105060004F8FFEE70026EFE70026EDE70026EBE78F
:105070000026E9E7304670BD0C020020F0B52DEDAA
:10508000028BF9B069A8FEF7D1FD9FED678A002475
:105090000094F3EE0E1A42F21073B7EE001AF0EE1F
:1050A000480AB0EE000A012269A950A8FDF704FEE3
:1050B00050A8FEF70DF90094F3EE0E1A42F21073A9
:1050C000B7EE001AF0EE480AB0EE000A012269A914
:1050D00008A8FDF7F1FD0094F3EE0E1A42F21073EA
:1050E000B7EE001AF0EE480AB0EE000A022269A9F3
:1050F00020A8FDF7E1FD0094F3EE0E1A42F21073C2
:10510000B7EE001AF0EE480AB0EE000A032269A9D1
:1051100038A8FDF7D1FD022C54DC04EB4403580100
:1051200008AB1844FEF7D4F80134F4E70025022D4B
:105130003BDCAF003D4C3C442368E36005EB45039A
:105140005E0108AB1E443046FEF740F984ED000ACC
:10515000D4ED066AC4ED096A354B1F44D7ED007AD9
:1051600037EEC00A84ED060AD3ED037A60EE277AA3
:10517000C4ED0C7A93ED047A9FED2E6A27EE067A41
:1051800030EE660A27EE000A84ED0F0A9FED2A7AB8
:1051900084ED127A37EE800A30EE070A84ED150AA4
:1051A0003046FEF7CDF80135C1E7214BD3ED057A46
:1051B0009FED227A67EE877AFDEEE77A17EE900A86
:1051C000FBF7CEF802AC1E4B93E8070084E807001B
:1051D00005AC0C3393E8070084E807000024022C98
:1051E000A4DCFBF7B7F807EE900AB8EE670AA50053
:1051F00002AB2B4493ED008A05AB2B44D3ED007A30
:105200009FED107A67EE877A67EE807A9FED0B0A42
:1052100087EE800A00F092FB28EE000A044B2B4434
:1052200083ED000A0134DAE77DC5573F243E0020B4
:105230000C0000200000C8420000000000007A447A
:1052400040680008DB0FC9402DE9F04F8DB0002405
:105250000794089409940A940B94724BD3F8E020B5
:1052600042F00402C3F8E020D3F8E02002F0040288
:105270000092009AD3F8E02042F08002C3F8E020C8
:10528000D3F8E02002F080020192019AD3F8E020E6
:1052900042F00102C3F8E020D3F8E02002F001025E
:1052A0000292029AD3F8E02042F00202C3F8E02012
:1052B000D3F8E02002F002020392039AD3F8E02030
:1052C00042F00802C3F8E020D3F8E02002F0080220
:1052D0000492049AD3F8E02042F04002C3F8E020A0
:1052E000D3F8E02002F040020592059AD3F8E020BE
:1052F00042F01002C3F8E020D3F8E03003F01003CE
:105300000693069BDFF82C91224644F201014846A1
:10531000FBF78AFFDFF8208122464FF48061404688
:10532000FBF782FF224602213F48FBF77DFF4FF447
:10533000005BCDF81CB0089409943C4F07A938468F
:10534000FBF782FE322307930225089509940A94FD
:105350000B260B9607A93846FBF776FE86230793A4
:10536000089509940A940B96DFF8D0A007A9504637
:10537000FBF76AFE44F2010307930127089709949B
:105380000A9407A94846FBF75FFECDF81CB00895C4
:1053900009940A940B9607A94846FBF755FE4FF46B
:1053A00040730793089509940A9407230B9307A960
:1053B0004046FBF749FE4FF4806307930897099432
:1053C0000A9407A94046FBF73FFE80230793184B3A
:1053D0000893099408F5406807A94046FBF734FE96
:1053E0004FF4C8530793089509940A940A230B9322
:1053F00007A95046FBF728FE4FF420530793089562
:1054000009940A940B9607A94046FBF71DFE0795E1
:10541000089709940A9407A90348FBF715FE0DB0F5
:10542000BDE8F08F004402580010025800080258EE
:105430000000111100040258000C0258000002582C
:1054400010B588B0244A40F2213313600023536022
:1054500093604FF44031D160136153619361D36124
:1054600013620093019302220292039340F20172AD
:10547000049240F2FF720592184C194A2260A36010
:10548000E36023746374A37401226261A261062144
:10549000E161032121626262A262E26222636363CC
:1054A000A263E3631421216404216164A364E164C1
:1054B00023656165A365E36522666366A166204690
:1054C000FBF7E4F869462046FBF72AFA2046FBF78B
:1054D00091FA08B010BD00BF943F0020E43E0020C8
:1054E00000A0004010B5CCB04C22002139A801F03A
:1054F000B4F82022002131A801F0AFF8BC2200212D
:1055000002A801F0AAF80220FBF794FE0023019301
:10551000254BDA6A22F00102DA62DB6A03F001034A
:105520000193224A936923F4404343F480439361F7
:10553000936903F440430193019B1C4B9B6913F453
:10554000005FFAD00223399301223C9240223D921F
:10555000429300244394042244920B2245924693A2
:105560000322479248930C2249924A934FF40063D6
:105570004B9339A8FBF788FE3F2331933294339441
:1055800034943594369437943894214631A8FCF7F6
:1055900095FA4FF4004302934FF080531D9302A8F5
:1055A000FCF740FD4CB010BD000400580048025804
:1055B00010B50446012000F003F9022000F000F9C4
:1055C000002000F0FDF8012C07D014B1022C08D007
:1055D00010BD002000F0E4F8FAE7012000F0E0F848
:1055E000F6E7022000F0DCF8F2E7000008B5FAF771
:1055F00077FEFFF777FFFFF727FEFFF721FF0B4B43
:1056000008221A70AD225A700020FFF7D1FF012046
:10561000FFF7CEFF0220FFF7CBFF0020FFF7C8FF08
:105620000120FFF7C5FFFFF729FDFCE7843F0020BD
:1056300008B50268034B9A4200D008BDFAF77EFE17
:10564000FBE700BF000001407047000082B0074B3D
:10565000D3F8F42042F00202C3F8F420D3F8F43077
:1056600003F002030193019B02B07047004402580B
:1056700010B588B000230393049305930693079312
:1056800002681D4B9A4201D008B010BD1B4BD3F8E5
:10569000EC2042F48072C3F8EC20D3F8EC2002F442
:1056A00080720192019AD3F8E02042F00802C3F818
:1056B000E020D3F8E03003F008030293029B0323B9
:1056C00003930224049406930923079303A90C4827
:1056D000FBF7BAFC002201211320FAF76DFE13201C
:1056E000FAF79CFE002221461520FAF765FE1520E8
:1056F000FAF794FEC8E700BF00A00040004402583B
:10570000000C025800B58BB0002201461920FAF7B0
:1057100053FE1920FAF782FE164BD3F8F02042F020
:105720000102C3F8F020D3F8F03003F00103009336
:10573000009B01A902A8FCF73FFBFCF72BFB0E4BDB
:10574000A3FB00239B0C013B0C480D4A026040F276
:10575000E732C2604360002303618360FDF774FA9F
:1057600018B101200BB05DF804FB0448FDF7F8F810
:10577000F8E700BF0044025883DE1B43E03F0020EF
:10578000000001407047FEE7FEE7FEE7FEE77047D6
:1057900008B50248FDF70AF908BD00BFE03F002048
:1057A00008B50122044B33F81010044B53F82000C5
:1057B000FBF73AFD08BD00BF58680008280000202C
:1057C00008B50022044B33F81010044B53F82000A6
:1057D000FBF72AFD08BD00BF58680008280000201C
:1057E0000120704708B500F0FBFE162303604FF060
:1057F000FF3008BD08B54FF0FF31FFF7F3FFFEE7BC
:1058000008B503460B4A126842B10A4A10680344BD
:105810006A46934206D8074A136008BD054A0649FE
:105820001160F2E700F0DCFE0C2303604FF0FF3064
:10583000F3E700BF843E002030400020184AD2F831
:10584000883043F47003C2F88830164B1A6842F06F
:1058500001021A6000221A61186813490140196098
:105860009A61DA611A629A62DA621A635A639A6317
:10587000DA631A645A64196821F4802119601A667F
:105880000A4B1A680A4B1340B3F1005F02D2094B6E
:1058900001221A60024B4FF000629A60704700BF0D
:1058A00000ED00E0004402587FEDF6EA0010005CD5
:1058B0000000FFFF08810051DFF834D0002103E031
:1058C0000C4B5B58435004310B480C4B42189A4226
:1058D000F6D30B4A02E0002342F8043B094B9A42FC
:1058E000F9D3FFF7ABFF00F081FEFFF77FFE7047B3
:1058F00000000220706C000800000020A4000020BE
:10590000A400002030400020FEE710B5002814BF9E
:1059100004460124204600F08DFE30B900F006F860
:1059200008B900F055FE8047F4E710BD024B186837
:10593000BFF35B8F704700BF8C3E002000B510EEB8
:10594000103A214A23F00043934283B01ADDB3F1A9
:10595000FF4F04DB30EE400A03B05DF804FB6846FD
:1059600000F036F800F00300012813D0022820D000
:10597000B8B1DDED010A9DED000A00F075F9B1EE58
:10598000400AE9E70020DFED110A00F017FD03B03F
:105990005DF804FBDDED010A9DED000A00F064F9FD
:1059A000DAE70120DDED010A9DED000A00F006FDB9
:1059B000D2E70120DDED010A9DED000A00F0FEFCBA
:1059C000B1EE400AC8E700BFD80F493F0000000011
:1059D00070B510EE103A964A23F00044944286B017
:1059E000054669DD934A944210EE106A1ADC002BDA
:1059F00024F00F04DFED907A904A64DD944270EE5B
:105A0000677A00F0CF809FED8E7A77EEC76A01202B
:105A100077EEE67AC5ED006A77EEC77AC5ED017AD2
:105A200006B070BD874A944261DDB4F1FF4F80F249
:105A3000B180E215863AA4EBC25307EE903ABDEE70
:105A4000E77ADFED816AB8EEC77A77EEC77A8DED37
:105A5000037A67EEA67ABDEEE77AB8EEC77A77EEFC
:105A6000C77A8DED047A67EEA67AF5EE407AF1EE0C
:105A700010FACDED057A40F0C780B5EE407AF1EE30
:105A800010FA0CBF012302237049019102210091F9
:105A900003A8294600F06AF9002E12DA95ED007A83
:105AA000D5ED017AB1EE477AF1EE677A404285EDA5
:105AB000007AC5ED017A04E0002285ED000A42601B
:105AC000002006B070BD944270EE277A00F0898005
:105AD0009FED5B7A77EE876A4FF0FF3077EEE67ADC
