:020000040800F2
:1000000000000220497500082374000825740008C8
:1000100027740008297400082B74000800000000F1
:10002000000000000000000000000000E163000884
:100030002D7400080000000081640008E5640008D9
:100040009975000899750008997500089975000858
:100050009975000899750008997500089975000848
:100060009975000899750008997500089975000838
:100070009975000899750008997500089975000828
:10008000997500089975000899750008B94200082B
:1000900099750008CD420008997500089975000807
:1000A00099750008997500089975000899750008F8
:1000B00099750008997500089975000899750008E8
:1000C00099750008997500089975000899750008D8
:1000D00099750008997500089975000899750008C8
:1000E00099750008997500080000000099470008FC
:1000F000B9470008997500089975000899750008B6
:100100009975000899750008997500089975000897
:100110009975000899750008594700087947000843
:100120009975000899750008997500089975000877
:100130009975000899750008997500089975000867
:1001400000000000000000000000000000000000AF
:100150009975000899750008997500089975000847
:100160009975000899750008997500089975000837
:10017000997500089975000899750008000000003D
:100180009975000899750008997500089975000817
:100190009975000899750008997500089975000807
:1001A00099750008997500089975000899750008F7
:1001B00099750008997500089975000899750008E7
:1001C00099750008997500089975000899750008D7
:1001D00099750008997500089975000899750008C7
:1001E00099750008997500089975000899750008B7
:1001F00099750008997500089975000899750008A7
:100200009975000899750008997500089975000896
:10021000997500089D730008997500089975000884
:10022000997500089975000899750008000000008C
:10023000997500089975000800000000997500087C
:100240009975000899750008997500089975000856
:100250009975000899750008997500089975000846
:100260009975000899750008997500089975000836
:10027000997500089975000899750008000000003C
:10028000997500089975000899750008000000002C
:08029000000000009975000850
:1002A00010B5054C237833B9044B13B10448AFF3B0
:1002B00000800123237010BDA40000200000000076
:1002C0005C84000808B5034B1BB103490348AFF336
:1002D000008008BD00000000A80000205C84000829
:1002E00010B5032000F030F801F0E6FA0F498B69F1
:1002F000C3F303230E4AD35C03F01F03D8408B697A
:1003000003F00F03D35C03F01F0320FA03F3094A41
:100310001360094B1860002006F0F4FF10B10124AF
:10032000204610BD044606F04BFFF9E70044025892
:10033000108500083C00002038000020014B1868A0
:10034000000C70470010005C0649CB6823F4E063A2
:100350001B041B0C000200F4E0600343024A1A4332
:10036000CA60704700ED00E00000FA0530B4154B9C
:10037000DB68C3F30223C3F10704042C28BF042461
:100380001D1D062D14D9033B4FF0FF3505FA04F46B
:1003900021EA0401994005FA03F322EA0303194311
:1003A000002807DB0901C9B2074B195430BC70475C
:1003B0000023E9E700F00F000901C9B2034B19540B
:1003C000F4E700BF00ED00E000E400E014ED00E021
:1003D000002807DB00F01F02400901239340024A76
:1003E00042F82030704700BF00E100E030B4446BB9
:1003F0000268D2F884106F4B194041EA8401C2F8B8
:1004000084100268D2F8841021F47F01856B41EAE0
:100410000541C2F88410826B22440468D4F8881025
:10042000194041EA8201C4F888100468D4F88810A1
:1004300021F4FE01C56B41EA0541C4F88810C16B87
:1004400002EB41020468D4F8A010194041EA82018D
:10045000C4F8A0100468D4F8A01021F4FE01056CC3
:1004600041EA0541C4F8A010046C416C01FB04246E
:100470000268D2F8B010194041EA8401C2F8B01005
:100480000268D2F8B01021F4FE01856C41EA054102
:10049000C2F8B010826CC16C01FB02440268D2F851
:1004A000AC10194041EA8401C2F8AC10026D416DF4
:1004B00001FB02420468D4F8F010194041EA8201BD
:1004C000C4F8F0100468D4F8F01021F47C11856DA4
:1004D00041EA0541C4F8F010816D02EB4102046865
:1004E000D4F8C0100B4043EA8202C4F8C02002686E
:1004F000D2F8C03023F47C13C16D43EA0143C2F843
:10050000C0300268D2F8C03023F07C53016E43EA59
:100510000163C2F8C030436B274A1A449200C26696
:10052000836B02EB83030367C16B03EBC103436778
:10053000046C416C01FB04F103EB81038367846C61
:10054000C16C01FB04F103EB8103C367046D416DD2
:1005500001FB04F103EB8103C0F88030816D03EBF4
:10056000C103C0F88430C46D856E05FB04F403EB51
:100570008403C0F88830016E01FB05F103EB8103B1
:10058000C0F890300D498B420DD9D0F89C3043F023
:100590002003C0F89C30032380F89830012007E046
:1005A000002342F8043BD0F890309342F8D8002062
:1005B00030BC70470300FFFF002B0010FCD300404D
:1005C000F0B44C68E4B90E698C6826430C6846EABE
:1005D00084460D6ACC6944EA05648D692C434D69F3
:1005E0002C43CD682C43D0F88470806E03FB00F35D
:1005F00007EB830547F823606C600835002015E0A1
:100600000E698C6826430C68264346F08046E0E776
:100610001418E678A3781B0443EA0663647843EA77
:100620000423145C234345F8043B0430CB89034C7A
:10063000E35C8342ECD8F0BC704700BF74840008D0
:1006400030B595B004464C22A04901A807F042FEFF
:10065000002C00F0388123689D4A934220D094F802
:1006600098300BB32268936923F01003936106F06E
:10067000C1FE054623689A6912F0080F1AD006F0E9
:10068000B9FE401B0A28F5D9D4F89C3043F0010389
:10069000C4F89C30032384F89830012015B030BD95
:1006A00003F580736360DAE784F89930204606F03A
:1006B000A1FDD7E79A6942F001029A6106F09AFE1D
:1006C000054623689A6912F0010F0FD106F092FED9
:1006D000401B0A28F5D9D4F89C3043F00103C4F834
:1006E0009C30032384F898300120D7E79A6942F0C0
:1006F00002029A61237C012B40D02268936943F067
:1007000040039361637C012B3ED02268936923F4FC
:1007100080439361A37C012B3CD02268936943F40E
:10072000805393612268936923F44073A1680B435B
:1007300093612268936923F0A4039361226813698B
:1007400023F010031361E368012B29D0002B2CD078
:10075000022B00F09B802268936943F08003936131
:100760002268136943F010031361E368032B1CD163
:100770002268936943F02003936116E0226893692D
:1007800023F040039361BDE72268936943F48043FB
:100790009361BFE72268936923F480539361C1E7B3
:1007A0002268936943F004039361A3695A1EE369C5
:1007B000013B1B0243EA4263226A013A1343626926
:1007C000013A216843EA0243CB61A368B3F5407F55
:1007D00062D0236E33B12268D2F8C030616E0B4311
:1007E000C2F8C030E36D226ED3420DD02168D1F83B
:1007F000C83023F00703A26E14A800EB820252F85F
:100800004C2C1343C1F8C830236C6BB12168D1F86C
:10081000BC3023F00703626C14A800EB820252F88C
:100820004C2C1343C1F8BC30A36C73B12168D1F8D0
:10083000BC3023F07003E26C14A800EB820252F883
:100840004C2C43EA0213C1F8BC30236D73B121680C
:10085000D1F8BC3023F4E063626D14A800EB82028F
:1008600052F84C2C43EA0223C1F8BC302268184BE2
:100870009A4222D00023C4F89430C4F89C3001235B
:1008800084F898302046FFF7B1FD07E722689369A6
:1008900043F02003936188E7A36A013BE26A013ACF
:1008A00043EA0223226B013A43EA0213626A013AE5
:1008B000216843EA0243CB608BE76268936823F0C8
:1008C00003039360D6E70120E8E600BF84840008B4
:1008D00000A0004090F89830013BDBB2012B07D913
:1008E000D0F89C3043F00203C0F89C3001207047E0
:1008F000CB680A68D2B9072B0ED08A68DB0643EAB8
:1009000082730A6943EA02434A691343C26E496823
:1009100042F82130002070470A69CB691B0243EA84
:1009200002438A69134343F06053EFE710B40A6946
:1009300042EA4372072B0ED08C684B6943EA8473FA
:10094000006F496800EBC10440F83120636000206B
:100950005DF8044B70478B69F2E790F89830DBB292
:10096000012B07D0D0F89C3043F00403C0F89C3032
:1009700001207047036842EA01229A640020704710
:1009800090F89830DBB2012B07D0D0F89C3043F0C0
:100990000403C0F89C30012070470268D36843F418
:1009A0000003D3600020704790F89830DBB2012B31
:1009B00007D0D0F89C3043F00403C0F89C300120ED
:1009C0007047022380F898300268936923F001038E
:1009D00093610023C0F89C301846704738B590F8F2
:1009E0009830DBB2022B07D0D0F89C3043F00803DC
:1009F000C0F89C30012038BD0368D3F8C04014F023
:100A00007C5F0CD0D3F8C44014F4001F0FD0D0F892
:100A10009C3043F40073C0F89C300120EBE7D0F821
:100A20009C3043F02003C0F89C300120E3E70546EA
:100A3000D3F8C440C4F304442346FFF7C1FD2A6839
:100A40000123A340C2F8D030C5F894300020D2E78B
:100A5000D0F8940070470000F0B490F89840E4B2E9
:100A6000022C08D0D0F89C3043F00803C0F89C302A
:100A70000120F0BC7047402939D0412964D0046D71
:100A80008C4240F28E80C46F456D01FB05F504EB8E
:100A900085044FF0000C256805F080455560002D59
:100AA00040F087802568C5F38A451560256805F004
:100AB00000559560256805F000451561A588D5614C
:100AC000656805F47025D560656805F48015556185
:100AD000656805F400159561E57905F07F051562F7
:100AE0006568ED0F556204F10805002469E00468AB
:100AF000D4F8A05015F4FE0F16D0D4F8A45015F079
:100B00007F0F19D0D4F8A45015F0807F01D0D4F80D
:100B1000A050D4F8A440C4F3052C446F456C0CFBE2
:100B200005F504EB8504B6E7D0F89C3043F02003CC
:100B3000C0F89C3001209CE7D0F89C3043F48073CF
:100B4000C0F89C30012094E70468D4F8B05015F444
:100B5000FE0F16D0D4F8B45015F07F0F19D0D4F88A
:100B6000B45015F0807F01D0D4F8B050D4F8B44020
:100B7000C4F3052C846FC56C0CFB05F504EB8504F0
:100B800089E7D0F89C3043F02003C0F89C30012066
:100B90006FE7D0F89C3043F48073C0F89C3001209C
:100BA00067E7D0F89C3043F02003C0F89C30012068
:100BB0005FE7256825F06045156077E72E5D1E55D7
:100BC0000134D689124FBE5DA642F7D840290BD01A
:100BD00041290ED01F2911D80268012303FA01F11F
:100BE000C2F89810002044E70368C3F8A8C00020AA
:100BF0003FE70368C3F8B8C000203AE701F01F01DF
:100C00000268012303FA01F1C2F89C10002030E7CA
:100C1000748400080368D3F8CC300B4201D0012063
:100C2000704700207047402905D00368D3F8B4000E
:100C300000F07F0070470368D3F8A40000F07F0045
:100C40007047000090F89830013BDBB2012B07D9C8
:100C5000D0F89C3043F00203C0F89C30012070476C
:100C600010B403689C6D0C4224D1DC6D44F0010487
:100C7000DC6511F4007F05D00468D4F8E03013433C
:100C8000C4F8E03011F4806F05D00468D4F8E43083
:100C90001A43C4F8E4200068436D0C4A0A40134329
:100CA00043650B4A536943EA9171516100205DF835
:100CB000044B70479C6D31EA040402D00324DC65C8
:100CC000D7E7DC6D44F00204DC65D2E7FFFFCF3FDD
:100CD00000A80040704770477047704770477047E2
:100CE0007047704770477047704770477047000003
:100CF0002DE9F0470446954B1A695B694FEA837A00
:100D00000AEA827A03681A6D02F470495A6D09EA98
:100D100002091A6D02F00F085A6D08EA02081F6DE9
:100D200007F0F0075A6D17401D6D05F071555A6DAB
:100D300015401E6D06F060765A6D16405A6D12F41D
:100D4000807F03D01A6D12F4807F78D123685A6DAA
:100D500012F4806F03D01A6D12F4806F78D1BAF15B
:100D6000000F40F08480B9F1000F40F08C80B8F1A2
:100D7000000F40F09480002F40F09D8023685A6D52
:100D800012F4006F04D01A6D12F4006F40F09D80D1
:100D900023685A6D12F4007F04D01A6D12F4007F9C
:100DA00040F09D8023685A6D12F4002F04D01A6D14
:100DB00012F4002F40F0A28023685A6D12F4803F95
:100DC00004D01A6D12F4803F40F0A28023685A6D5F
:100DD00012F4802F04D01A6D12F4802F40F0A280FC
:100DE00023685A6D12F4003F0FD01A6D12F4003FC1
:100DF0000BD04FF400321A65544B00221A61D4F81C
:100E00009C3043F08003C4F89C30002E40F0948066
:100E10004DB123681D65AA0F4C4B1A61D4F89C3064
:100E20001D43C4F89C502268494B9A4200F09280BE
:100E3000D4F89C30002B40F0ED80BDE8F0874FF4F3
:100E400080721A65414B00221A61FFF74AFF7DE765
:100E5000D3F8DC10D3F8E4204FF4806018653B4BE6
:100E60000020186111402046FFF738FF77E723681C
:100E700000221A654FEA9A72344B1A615146204695
:100E8000FFF728FF6FE72368C3F850904FEA997285
:100E90002E4B1A6149462046FFF71DFF67E723687E
:100EA000C3F850804FEA9872284B1A614146204699
:100EB00003F016FA5FE723681F65BA0F234B1A6128
:100EC00039462046FFF708FF58E74FF400621A65DD
:100ED0001E4B00221A61204603F04AFA58E7D3F865
:100EE000D810D3F8E0204FF400701865174B00209D
:100EF000186111402046FFF7F0FE53E74FF400223F
:100F00001A65124B00221A61204603F00DFA53E7CE
:100F10004FF480321A650D4B00221A612046FFF70C
:100F2000DEFE53E74FF480221A65084B00221A6157
:100F30002046FFF7D5FE53E723681E65B20F034B2B
:100F40001A6131462046FFF7CDFE61E700A8004058
:100F500000A0004063689A6812F0030F3FF468AF86
:100F6000196A01F00F015A6A186A00F03008586ACD
:100F700008EA00081F6A07F4C077586A07401E6A2B
:100F800006F4FC46586A06401D6A05F4F025586AC6
:100F9000054011401FD1B8F1000F21D163685A6A92
:100FA00012F0400F03D01A6A12F0400F20D157BB45
:100FB00036B163681E62D4F89C301E43C4F89C604E
:100FC000002D3FF435AF63681D62D4F89C301D439B
:100FD000C4F89C502CE719622046FFF784FEDAE73C
:100FE0006368C3F8208041462046FFF77DFED5E7C1
:100FF000D96BDA6B4020186202F03F02090C2046E0
:10100000FFF773FED3E763681F6239462046FFF798
:101010006DFECDE7204603F0CFF90EE7F0B583B0C3
:1010200000233AE0092400E00024B4403C430235A8
:101030006E4E46F825406E4C2568D44304EA0506FA
:101040004F6817F4803F01D042EA0506684D2E60D4
:101050006E6804EA06054F6817F4003F01D042EAC3
:101060000605634E75604FF0B0452D6804EA05062D
:101070004F6817F4801F01D042EA05064FF0B045D3
:101080002E606D682C404E6816F4001F01D042EAB5
:1010900005044FF0B042546001330A6832FA03F499
:1010A00000F0A28001249C402240F5D04D686E1EC5
:1010B000112D18BF012E01D9122D12D186685F00A3
:1010C0000325BD4026EA0506CD68BD403543856051
:1010D000466826EA04064D68C5F300149C40344374
:1010E0004460C6685F000325BD40EC4326408D6820
:1010F000BD403543C5604D68122D18BF022D13D178
:10110000DE08083650F826E003F007054FEA850CA4
:101110000F2505FA0CF52EEA050E0D6905FA0CF5FA
:1011200045EA0E0540F82650056825404C6804F055
:101130000304BC402C4304604C6814F0805FABD0C7
:101140002C4CD4F8F45045F00205C4F8F450D4F80F
:10115000F44004F002040194019C9D08AE1C234C51
:1011600054F8267003F00304A6000F24B44027EAC5
:101170000407214CA0423FF457AF04F58064A0421D
:1011800022D004F58064A04220D004F58064A042FF
:101190001ED004F58064A0421CD004F58064A042F7
:1011A0001AD004F58064A04218D004F58064A042EF
:1011B00016D004F58064A04214D004F58064A042E7
:1011C0003FF430AF0A2430E701242EE702242CE755
:1011D00003242AE7042428E7052426E7062424E735
:1011E000072422E7082420E703B0F0BD00040058DC
:1011F00080000058004402580000025812B9090447
:101200008161704781617047436931EA030301D00E
:10121000816170470904816170470000134BDB68EE
:1012200013F0040F07D1114BDB6803F0070383426F
:101230001AD00120704710B50C4AD36823F0070379
:101240001843D06006F0D6F80446084B5B6813F4E8
:10125000005F07D106F0CEF8001BB0F57A7FF4D915
:10126000012000E0002010BD002070470048025817
:10127000002800F00C8338B50446036813F0010F12
:1012800025D09D4A136903F03803926A102B15D0BC
:10129000182B0FD06368B3F5803F3FD0002B53D19C
:1012A000954B1A6822F480321A601A6822F4802260
:1012B0001A6038E002F00302022AEBD18E4B1B6861
:1012C00013F4003F03D06368002B00F0E282236830
:1012D00013F0020F00F08B80874A1369926A13F0B3
:1012E00038035AD0182B55D0E368002B00F0C88083
:1012F00081490A6822F0190213430B6006F07AF85C
:1013000005467D4B1B6813F0040F40F0978006F0F4
:1013100071F8401B0228F4D90320BFE2764A136813
:1013200043F48033136063682BB306F063F805461B
:10133000714B1B6813F4003FC9D106F05BF8401BEA
:101340006428F5D90320A9E2B3F5A02F09D06A4B90
:101350001A6822F480321A601A6822F480221A6015
:10136000E1E7654B1A6842F480221A601A6842F479
:1013700080321A60D7E706F03DF805465E4B1B68E1
:1013800013F4003FA3D006F035F8401B6428F5D9CC
:10139000032083E212F0030FA6D1574B1B6813F012
:1013A000040F03D0E368002B00F07582FEF7C6FF40
:1013B00041F20303984212D82269402A07D04E49CD
:1013C0004B6823F47C3343EA02334B600FE04A4A14
:1013D000536823F47C3343F40033536007E0464AF8
:1013E000536823F0FE43216943EA01635360236895
:1013F00013F0100F00F08A803F4A136903F038039E
:10140000926A082B54D0182B4ED0E369002B00F0C1
:10141000BA80394A136843F08003136005F0EAFF8D
:101420000546354B1B6813F4807F40F08A8005F039
:10143000E1FF401B0228F4D903202FE2FEF77EFFD4
:1014400041F20303984212D82269402A07D02A4960
:101450004B6823F47C3343EA02334B60C7E7264AE8
:10146000536823F47C3343F400335360BFE7224ACC
:10147000536823F0FE43216943EA01635360B6E7F2
:101480001D4A136823F00103136005F0B3FF0546FE
:10149000194B1B6813F0040FA9D005F0ABFF401BDC
:1014A0000228F5D90320F9E102F00302012AACD1A8
:1014B000114B1B6813F4807F04D0E369802B01D0AB
:1014C0000120EBE1FEF73AFF41F20303984215D801
:1014D000226A202A07D008494B6823F0F84343EAE0
:1014E00082634B6012E0044A536823F0F84343F0F0
:1014F000804353600AE000BF004402589A4AD36810
:1015000023F07C53216A43EA0163D360236813F01C
:10151000080F60D06369002B49D0934A536F43F0A2
:101520000103536705F066FF05468F4B5B6F13F0B1
:10153000020F50D105F05EFF401B0228F5D90320B1
:10154000ACE1FEF7FBFE41F20303984212D8226A97
:10155000202A07D084494B6823F0F84343EA82638A
:101560004B60D3E7804A536823F0F84343F080434D
:101570005360CBE77C4AD36823F07C53216A43EA6B
:101580000163D360C2E7784A136823F080031360D5
:1015900005F030FF0546744B1B6813F4807FB5D00F
:1015A00005F028FF401B0228F5D9032076E16E4A9A
:1015B000536F23F00103536705F01CFF05466A4B88
:1015C0005B6F13F0020F06D005F014FF401B0228DA
:1015D000F5D9032062E1236813F0200F29D0A36915
:1015E0009BB1614A136843F48053136005F002FF16
:1015F00005465D4B1B6813F4005F1AD105F0FAFE37
:10160000401B0228F5D9032048E1574A136823F408
:101610008053136005F0EEFE0546534B1B6813F430
:10162000005F06D005F0E6FE401B0228F5D9032036
:1016300034E1236813F0040F21D1636A002B00F01A
:101640002C81494A126902F03802182A00F0EE8013
:10165000022B75D0444A136823F08073136005F0A1
:10166000C9FE0446404B1B6813F0007F00F0DC808D
:1016700005F0C0FE001B0228F4D903200EE13B4A0E
:10168000136843F48073136005F0B4FE0546374BCE
:101690001B6813F4807F06D105F0ACFE401B642864
:1016A000F5D90320FAE0A368012B0AD00BBB2E4B1F
:1016B0001A6F22F001021A671A6F22F004021A67E9
:1016C00004E0294A136F43F001031367A36833B39F
:1016D00005F090FE0546244B1B6F13F0020FACD1B2
:1016E00005F088FE401B41F288339842F3D903206D
:1016F000D4E0052B09D01C4B1A6F22F001021A67A7
:101700001A6F22F004021A67E0E7174B1A6F42F0D3
:1017100004021A671A6F42F001021A67D6E705F051
:1017200069FE0546104B1B6F13F0020F85D005F0C4
:1017300061FE401B41F288339842F3D90320ADE0AB
:10174000094A136823F08073136005F053FE0546C1
:10175000054B1B6813F0007F0AD005F04BFE401BC1
:101760000228F5D9032099E00044025800480258A5
:101770004E4B996A4E4A0A40A16AE06A41EA00115A
:101780000A439A62226B013AC2F30802616B013983
:10179000490289B20A43A16B0139090401F4FE012F
:1017A0000A43E16B0139090601F0FE410A431A635D
:1017B000DA6A22F00102DA62596B3E4A0A40A16CF1
:1017C00042EAC1025A63DA6A22F00C02216C0A432F
:1017D000DA62DA6A22F00202616C0A43DA62DA6AD9
:1017E00042F48032DA62DA6A42F40032DA62DA6AA9
:1017F00042F48022DA62DA6A42F00102DA621A689E
:1018000042F080721A6005F0F5FD0446274B1B6814
:1018100013F0007F06D105F0EDFD001B0228F5D97D
:1018200003203BE0002039E0002037E01F4A916AA6
:10183000106B012B33D001F00303A26A934201D055
:1018400001202BE0C1F30511E36A994201D0012088
:1018500024E0C0F30802236B013B9A4201D001202F
:101860001CE0C0F34622636B013B9A4201D0012089
:1018700014E0C0F30642A36B013B9A4211D1C0F3BE
:101880000660E36B013B98420DD0012006E0012089
:101890007047012002E0012000E0002038BD012057
:1018A000FCE70120FAE70020F8E700BF00440258F7
:1018B0000CFCFFFF0700FFFF724B1B6903F03803AE
:1018C000102B00F0DB80182B10D00BB16E48704746
:1018D0006C4B1B6813F0200F00F0D280694B186826
:1018E000C0F3C100694B23FA00F07047654A916A62
:1018F00001F00301906AC0F30510D36A03F00103FD
:10190000526BC2F3CC0203FB02F307EE903AF8EEFF
:10191000677A002800F0B580012966D0F9B1022964
:1019200000F08F8007EE100AF8EE476A9FED586AC4
:1019300086EE267A534B1B6BC3F3080306EE903AF0
:10194000F8EE666A9FED536A67EE867A76EEA77ABE
:10195000F7EE006A77EEA67A27EE277A61E0494B28
:101960001B6813F0200F23D046490A68C2F3C10256
:10197000464BD34007EE103AF8EE476A07EE100ADE
:10198000B8EE476A86EE867A0B6BC3F3080306EE61
:10199000903AF8EE666A9FED3F6A67EE867A76EED9
:1019A000A77AF7EE006A77EEA67A27EE277A38E074
:1019B00007EE100AF8EE476A9FED376A86EE267A40
:1019C000304B1B6BC3F3080306EE903AF8EE666AE1
:1019D0009FED306A67EE867A76EEA77AF7EE006AB8
:1019E00077EEA67A27EE277A1BE007EE100AF8EECC
:1019F000476A9FED276A86EE267A224B1B6BC3F35C
:101A0000080306EE903AF8EE666A9FED226A67EEEA
:101A1000867A76EEA77AF7EE006A77EEA67A27EE58
:101A2000277A184B1B6BC3F34623013307EE903A1A
:101A3000F8EE677AC7EE276AFCEEE67A17EE900AB0
:101A4000704707EE100AF8EE476A9FED146A86EEBB
:101A5000267A0C4B1B6BC3F3080306EE903AF8EEA4
:101A6000666A9FED0C6A67EE867A76EEA77AF7EEE5
:101A7000006A77EEA67A27EE277AD2E70848704701
:101A8000024870470044025800093D000090D0030E
:101A90000024744A000000390024744C0024F44AE5
:101AA00000127A00002800F0368103469C4A126832
:101AB00002F00F028A420CD29948026822F00F020B
:101AC0000A430260026802F00F028A4201D001203C
:101AD000704770B51A6812F0040F0CD01869914A5B
:101AE000926902F07002904205D98E4CA26922F0F0
:101AF00070021043A0611A6812F0080F0CD05869E8
:101B0000884AD26902F07002904205D9854CE26998
:101B100022F070021043E0611A6812F0100F0CD02E
:101B20009869804AD26902F4E062904205D97D4CFE
:101B3000E26922F4E0621043E0611A6812F0200FBB
:101B40000CD0D869774A126A02F07002904205D927
:101B5000744C226A22F07002104320621A6812F05C
:101B6000020F0CD0D8686F4A926902F00F029042BF
:101B700005D96C4CA26922F00F021043A0611C46EB
:101B80000D461B6813F0010F41D0664A936923F498
:101B90007063A1680B4393616368022B0AD0032B27
:101BA00027D0012B2CD05F4A126812F0040F06D107
:101BB0000120AFE0126812F4003F00F0AE805949F6
:101BC0000A6922F0070213430B6105F013FC064675
:101BD000544B1B6903F038036268B3EBC20F16D095
:101BE00005F008FC801B41F288339842F0D90320AD
:101BF00090E04C4A126812F0007FE0D1012089E0A9
:101C0000484A126812F4807FD9D1012082E023680B
:101C100013F0020F0CD0E268424B9B6903F00F03F4
:101C20009A4205D23F498B6923F00F031A438A6118
:101C30003B4B1B6803F00F03AB420CD9384A1368C7
:101C400023F00F032B431360136803F00F03AB4221
:101C500001D001205EE0236813F0040F0CD022694C
:101C6000304B9B6903F070039A4205D22D498B6972
:101C700023F070031A438A61236813F0080F0CD015
:101C80006269284BDB6903F070039A4205D225494B
:101C9000CB6923F070031A43CA61236813F0100F55
:101CA0000CD0A2691F4BDB6903F4E0639A4205D2B2
:101CB0001C49CB6923F4E0631A43CA61236813F01B
:101CC000200F0CD0E269174B1B6A03F070039A4295
:101CD00005D214490B6A23F070031A430A62FFF716
:101CE000EBFD10498B69C3F303230F4AD35C03F068
:101CF0001F03D8408B6903F00F03D35C03F01F036D
:101D000020FA03F3094A1360094B1860094B18685D
:101D100005F0F8FA70BD012070470120FAE700BF16
:101D20000020005200440258108500083C000020AA
:101D3000380000200400002008B5FFF7BDFD0B4A65
:101D40009369C3F303230A49CB5C03F01F0320FA12
:101D500003F3926902F00F02885C00F01F0023FA7F
:101D600000F0044A1060044A136008BD00440258A1
:101D7000108500083C0000203800002008B5FFF75F
:101D8000DBFF054BDB69C3F30223044AD35C03F09A
:101D90001F03D84008BD00BF00440258108500084A
:101DA0003F230360114B1A6902F0070242609A69EF
:101DB00002F4706282609A6902F00F02C2609A694E
:101DC00002F070020261DA6902F070024261DA69BF
:101DD00002F4E06282611B6A03F07003C361044B8A
:101DE0001B6803F00F030B60704700BF00440258EC
:101DF00000200052404B9B6A03F00303032B79D071
:101E000070B50E4604463C4A136823F080631360A5
:101E100005F0F0FA0546384B1B6813F0006F06D04A
:101E200005F0E8FA401B0228F5D9032070BD324BBB
:101E30009A6A22F47C32216842EA01329A6262682C
:101E4000013AC2F30802A1680139490289B20A4382
:101E5000E1680139090401F4FE010A4321690139ED
:101E6000090601F0FE410A439A63DA6A22F0C002D1
:101E700061690A43DA62DA6A22F02002A1690A4340
:101E8000DA62DA6A22F01002DA62D96B1B4A0A407F
:101E9000E16942EAC102DA63DA6A42F01002DA6208
:101EA000C6B91A46DB6A43F40023D362124A1368A8
:101EB00043F08063136005F09DFA04460E4B1B68E7
:101EC00013F0006F14D105F095FA001B0228F5D924
:101ED0000320ABE7012E05D0074AD36A43F4001371
:101EE000D362E3E7044AD36A43F48013D362DDE7A5
:101EF00000209BE701207047004402580700FFFFC5
:101F0000404B9B6A03F00303032B79D070B50E4658
:101F100004463C4A136823F08053136005F06AFAC4
:101F20000546384B1B6813F0005F06D005F062FAD7
:101F3000401B0228F5D9032070BD324B9A6A22F06B
:101F40007C72216842EA01529A626268013AC2F3E5
:101F50000802A1680139490289B20A43E1680139DE
:101F6000090401F4FE010A4321690139090601F05F
:101F7000FE410A431A64DA6A22F4406261690A4344
:101F8000DA62DA6A22F40072A1690A43DA62DA6A72
:101F900022F48072DA62596C1B4A0A40E16942EA13
:101FA000C1025A64DA6A42F48072DA62C6B91A4629
:101FB000DB6A43F48003D362124A136843F0805310
:101FC000136005F017FA04460E4B1B6813F0005F10
:101FD00014D105F00FFA001B0228F5D90320ABE756
:101FE000012E05D0074AD36A43F08073D362E3E73A
:101FF000044AD36A43F40003D362DDE700209BE781
:1020000001207047004402580700FFFFF8B504465E
:10201000036813F0006F2BD0436EB3F5801F18D008
:1020200007D9B3F5001F1DD0B3F5401F2ED10025F1
:1020300006E05BBB934AD36A43F40033D3620025C6
:10204000904A136D23F44013616E0B431365002611
:1020500010E002210430FFF7CDFE0546002DEFD041
:102060002E4607E002212430FFF74AFF0546F5E738
:1020700000263546236813F4807F17D0636D042B48
:1020800032D8DFE803F006242A0B0B000126354680
:10209000F0E77C4AD36A43F40033D3623DBB794A0C
:1020A000136D23F00703616D0B431365236813F46D
:1020B000007F33D0A36D802B44D01AD80BB3402BB4
:1020C0001CD10021201DFFF795FE05461EE00021D2
:1020D000201DFFF78FFE0546E0E7002104F12400F4
:1020E000FFF70EFF0546D9E701263546DEE72E4607
:1020F000DCE7C02B0AD0B3F5807F07D00126354638
:102100000CE0604AD36A43F40033D3620DBB5D4AEE
:10211000136D23F4E073A16D0B431365236813F46F
:10212000806F2FD0D4F8A430B3F5800F3ED012D8F2
:10213000D3B1B3F5001F14D10021201DFFF75AFEC3
:10214000054616E0002104F12400FFF7D9FE0546FC
:10215000DCE72E46E2E7B3F5C00F0AD0B3F5000F77
:1021600007D0012635460DE0464AD36A43F40033D2
:10217000D36215BB434A936D23F46003D4F8A410D3
:102180000B439365236813F4006F2FD0D4F8A83065
:10219000B3F1007F37D012D8D3B1B3F1807F14D11F
:1021A0000021201DFFF726FE054616E0002104F160
:1021B0002400FFF7A5FE0546DBE72E46E2E7B3F174
:1021C000407F0AD0B3F1806F07D0012635460DE07D
:1021D0002C4AD36A43F40033D362DDB9294A936DA4
:1021E00023F0E063D4F8A8100B439365236813F041
:1021F000007F2AD0A36C102B12D00DD9202B1DD01C
:10220000302B12D009E0002104F12400FFF778FE02
:102210000546E2E72E46E9E73BB10126354614E0E4
:10222000184AD36A43F40033D3626DB9154AD36CAC
:1022300023F03003A16C0B43D36406E00221201D80
:10224000FFF7D8FD0546F0E72E46236813F4805FBC
:1022500027D0E36DB3F5005F3ED009D8A3B1B3F545
:10226000805F0BD10021201DFFF7C4FD054610E063
:10227000B3F5405F0DD0B3F5804F0AD00126354647
:102280000FE000BF00440258934AD36A43F400337E
:10229000D36245BB904A136D23F4E043E16D0B43D9
:1022A0001365236813F4005F33D0236EB3F5003F4A
:1022B00027D01AD83BB1B3F5803F1FD10121201D93
:1022C000FFF798FD05461DBB834A136D23F4E023F9
:1022D000216E0B4313651CE0002104F12400FFF77D
:1022E0000FFE0546D5E72E46DBE7B3F5802FEAD093
:1022F000B3F5A02FE7D0B3F5403FE4D00126354633
:1023000007E0012104F12400FFF7FAFD0546DAE7B2
:102310002E46236813F4804F2CD0D4F8AC30B3F1A0
:10232000005F1FD012D83BB1B3F1805F17D10121FC
:10233000201DFFF75FFD0546DDB9674A936D23F069
:10234000E043D4F8AC100B43936513E0B3F1804F36
:10235000F2D0B3F1A04FEFD0B3F1405FECD0012643
:10236000354607E0012104F12400FFF7C9FD0546C9
:10237000E2E72E46236813F4004F1FD0E36EB3F15B
:10238000805F06D0B3F1005F11D03BB10126354626
:1023900014E0514AD36A43F40033D3626DB94E4A14
:1023A000136D23F04053E16E0B43136506E00121EA
:1023B000201DFFF71FFD0546F0E72E46236813F0AA
:1023C000807F1ED0636C032B17D8DFE803F0070271
:1023D0001007414AD36A43F40033D36285B93E4AB9
:1023E000D36C23F00303616C0B43D36409E0022137
:1023F000201DFFF7FFFC0546F0E70126354600E00B
:102400002E46236813F4800F1FD1236813F0010FA9
:1024100000F09E80A36F282B00F29680DFE803F087
:1024200084949494949494947F9494949494949491
:102430008D94949494949494849494949494949473
:1024400084949494949494948400244A136843F458
:102450008073136004F0CEFF0746204B1B6813F413
:10246000807F05D104F0C6FFC01B6428F5D9032581
:10247000002D50D1184B1B6FD4F8B020534013F4EB
:10248000407F0CD0144B1A6F22F44072196F41F444
:1024900080311967196F21F4803119671A67D4F8F0
:1024A000B030B3F5807F1BD0002D36D1D4F8B030DA
:1024B00003F44072B2F5407F23D0074A136923F436
:1024C0007C53136104490B6FD4F8B020C2F30B02A4
:1024D00013430B6799E700BF0044025800480258B5
:1024E00004F088FF0746AC4B1B6F13F0020FDBD1E3
:1024F00004F080FFC01B41F288339842F3D90325D2
:10250000D2E7A548026922F47C52A44901EA1313D8
:1025100013430361D6E72E4677E72E4675E7012180
:10252000201DFFF767FC05468DB99B4A536D23F0CC
:102530003803A16F0B4353650AE0012104F1240025
:10254000FFF7DEFC0546EFE70126354600E02E46A4
:10255000236813F0020F20D0636F052B19D8DFE832
:1025600003F00803110808080121201DFFF742FCB1
:1025700005468DB9884A536D23F00703616F0B43FD
:1025800053650AE0012104F12400FFF7B9FC054678
:10259000EFE70126354600E02E46236813F0040FCE
:1025A00022D0D4F89030052B1AD8DFE803F00803C6
:1025B000120808080121201DFFF71CFC054695B9EB
:1025C000754A936D23F00703D4F890100B4393657D
:1025D0000AE0012104F12400FFF792FC0546EEE732
:1025E0000126354600E02E46236813F0200F2CD03C
:1025F000D4F88C30B3F1005F1FD012D83BB1B3F1E7
:10260000805F17D10021201DFFF7F4FB0546DDB9DF
:10261000614A536D23F0E043D4F88C100B435365AB
:1026200013E0B3F1804FF2D0B3F1A04FEFD0B3F18C
:10263000405FECD00126354607E0022104F124007A
:10264000FFF75EFC0546E2E72E46236813F0400FD5
:102650002CD0D4F89830B3F5006F1FD012D83BB10E
:10266000B3F5806F17D10021201DFFF7C3FB05468E
:10267000DDB9494A936D23F4E053D4F898100B4325
:10268000936513E0B3F5805FF2D0B3F5A05FEFD0B0
:10269000B3F5406FECD00126354607E0022104F186
:1026A0002400FFF72DFC0546E2E72E46236813F0D1
:1026B000800F2CD0D4F89C30B3F5804F1FD012D8A7
:1026C0003BB1B3F5005F17D10021201DFFF792FB4E
:1026D0000546DDB9304A936D23F46043D4F89C106D
:1026E0000B43936513E0B3F5004FF2D0B3F5204FE1
:1026F000EFD0B3F5C04FECD00126354607E00221FC
:1027000004F12400FFF7FCFB0546E2E72E462368B0
:1027100013F0080F0CD0D4F88030B3F5805F28D0C8
:102720001D4A536D23F44053D4F880100B43536576
:10273000236813F0100F0CD0D4F89430B3F5807FD9
:1027400020D0154A936D23F44073D4F894100B43B2
:102750009365236813F4002F39D0D4F8A030B3F573
:10276000803F2CD0B3F5003F1FD0CBB101263546BA
:102770002DE0022104F12400FFF7C2FB0028CFD096
:102780000126CDE7022104F12400FFF7B9FB002860
:10279000D7D00126D5E700BF00440258CFFFFF0085
:1027A0000021201DFFF726FB05467DB9644A936D85
:1027B00023F44033D4F8A0100B43936507E00221C3
:1027C00004F12400FFF79CFB0546EEE72E46236844
:1027D00013F4802F24D0D4F88430B3F5001F17D021
:1027E000B3F5401F0AD0B3F5801F02D0012635464D
:1027F00016E0534AD36A43F40033D3627DB9504A9A
:10280000536D23F44013D4F884100B43536507E051
:10281000012104F12400FFF773FB0546EEE72E4685
:10282000236813F4803F14D0E36C2BB1B3F5803FE1
:1028300023D0012635460CE0414AD36A43F40033E5
:10284000D36205BB3E4AD36C23F48033E16C0B4367
:10285000D364236813F0005F17D1236813F4003F9B
:102860002DD0E36FB3F5807F1BD017D9B3F5007F70
:102870001CD0B3F5407F12D118E00221201DFFF7D4
:10288000B9FA0546DDE72E46E3E7022104F124000C
:10289000FFF736FB0028E0D00126DEE733B1012642
:1028A0000DE0274AD36A43F40033D362002D3DD1B3
:1028B000234A536D23F44073E16F0B435365236840
:1028C00013F4801F06D01E4A136D23F00043216FBE
:1028D0000B431365236813F0805F07D0184A136910
:1028E00023F48043D4F8B4100B431361236813F42A
:1028F000001F06D0124A136D23F08073A16E0B43A4
:102900001365236813F0804F09D00D4B1A6922F428
:1029100000421A611A69D4F8B8100A431A61236890
:10292000002B05DB06B101263046F8BD2E46C6E772
:10293000034AD36C23F04053216D0B43D364F1E77A
:102940000044025810B4036A046A24F001040462CB
:10295000846924F0F00444EA021223F00A030B43D2
:10296000826103625DF8044B704710B4036A23F080
:10297000100303628469036A24F4704444EA023257
:1029800023F0A00343EA0113826103625DF8044B64
:10299000704700008268034B1340194341F0070160
:1029A000816070478FFFCFFF7047000090F83D3087
:1029B000DBB2012B01D001207047022380F83D30AB
:1029C00002689168074B0B40062B18BFB3F5803F98
:1029D00005D0136843F00103136000207047002006
:1029E000704700BF0700010090F83D30DBB2012BBB
:1029F00001D001207047022380F83D300268D3687F
:102A000043F00103D36002689168074B0B40062B2B
:102A100018BFB3F5803F05D0136843F0010313607E
:102A20000020704700207047070001007047704782
:102A30007047704710B5044603681A6912F0020F18
:102A400011D0DA6812F0020F0DD06FF002021A6195
:102A50000123037703689B6913F0030F79D0FFF715
:102A6000E6FF0023237723681A6912F0040F12D0BF
:102A7000DA6812F0040F0ED06FF004021A6102231C
:102A8000237723689B6913F4407F68D02046FFF7C3
:102A9000CEFF0023237723681A6912F0080F12D0A3
:102AA000DA6812F0080F0ED06FF008021A610423E2
:102AB00023772368DB6913F0030F57D02046FFF715
:102AC000B6FF0023237723681A6912F0100F12D083
:102AD000DA6812F0100F0ED06FF010021A6108239E
:102AE00023772368DB6913F4407F46D02046FFF745
:102AF0009EFF0023237723681A6912F0010F03D089
:102B0000DA6812F0010F3FD123681A6912F0800FC2
:102B100003D0DA6812F0800F3DD123681A6912F4ED
:102B2000807F03D0DA6812F0800F3BD123681A69E6
:102B300012F0400F03D0DA6812F0400F39D1236849
:102B40001A6912F0200F03D0DA6812F0200F37D183
:102B500010BDFFF76BFF2046FFF76AFF81E72046B5
:102B6000FFF764FF2046FFF763FF92E72046FFF779
:102B70005DFF2046FFF75CFFA3E72046FFF756FF07
:102B80002046FFF755FFB4E76FF001021A612046B7
:102B900004F016FCB8E76FF080021A61204600F0DE
:102BA000F8F9BAE76FF480721A61204600F0F2F982
:102BB000BCE76FF040021A612046FFF73AFFBEE71C
:102BC0006FF020021A61204600F0E2F9C0E7000031
:102BD00070B40368374CA04214BF00240124B0F144
:102BE000804F14BF224644F00102AAB9324DA842D8
:102BF00014BF00250125314EB0420DD065B905F155
:102C0000804505F58235A84214BF0025012506F54B
:102C10000066B04200D01DB123F070034D682B4315
:102C200012BB254A904214BF00220122234DA84224
:102C30001AD0CAB902F1804202F58232904214BF22
:102C40000022012205F50065A8420DD062B91C4A98
:102C5000904214BF0022012205F59A35A84203D004
:102C600012B9184A904203D123F44073CA6813433F
:102C700023F080034A69134303608A68C2620A68CA
:102C80008262114B984214BF234644F001035BB9A2
:102C90000B4B984214BF002301230C4A904203D0EF
:102CA00013B9084B984201D10B69036301234361B7
:102CB00070BC704700000140000800400004004064
:102CC0000044014000480140000401400040014030
:102CD00058B310B5044690F83D300BB3022384F886
:102CE0003D30211D2068FFF773FF012384F8483031
:102CF00084F83E3084F83F3084F8403084F8413026
:102D000084F8423084F8433084F8443084F8453005
:102D100084F8463084F8473084F83D30002010BDF8
:102D200080F83C30FFF740FED8E7012070470000F4
:102D300000284DD0F8B504460D4690F83D30002BE4
:102D400041D0022384F83D30214651F8042B90688D
:102D5000204B034093602068FFF73AFF20688168AA
:102D60008369026A2E680E431B4F1F40AB68A96936
:102D700043EA01231F43194B3B40E968EF6941EAED
:102D8000072119432F692B6A1B0343EA07130B43DF
:102D900022F0AA016A686D6942EA05120A43866058
:102DA00021688B6123681A62012384F8483084F813
:102DB0003E3084F83F3084F8443084F8453084F85D
:102DC0003D300020F8BD80F83C3004F04DFAB8E703
:102DD00001207047F8BFFEFFFCFCFFFF0303FFFF6D
:102DE00010B4846824F47F4442EA03230B43234352
:102DF00083605DF8044B704790F83C30012B74D031
:102E000010B50446012380F83C30022380F83D30A1
:102E100002689068364B034093600B68602B50D07B
:102E20001DD9B3F1101F2ED035D8B3F5005F3CD0BB
:102E3000B3F5801F27D0702B0AD1CB684A68896808
:102E40002068FFF7CDFF2268936843F07703936013
:102E5000012384F83D30002084F83C0010BD202B75
:102E600011D00DD9402B36D0502B11D1CA684968EA
:102E70002068FFF767FD50212068FFF78BFDE7E72B
:102E80000BB1102BE4D119462068FFF783FDDFE773
:102E9000302BDDD1F7E7174A9342F4D0103293423A
:102EA000F1D0203A9342D3D1EDE7CB684A688968E4
:102EB0002068FFF795FF2268936843F4804393608E
:102EC000C6E7CA6849682068FFF74FFD602120689F
:102ED000FFF760FDBCE7CA6849682068FFF732FD6C
:102EE00040212068FFF756FDB2E70220704700BF7F
:102EF0008800CEFF3000100090F83C30012B41D00C
:102F000070B4012380F83C30022380F83D30036820
:102F10005A689D681C4E1D4CA34218BFB34203D192
:102F200022F470024C68224322F070020C682243A3
:102F30005A600368144AB3F1804F18BF934213D00C
:102F4000A2F57C4293420FD002F5806293420BD0EF
:102F500002F58062934207D002F57842934203D093
:102F6000A2F56C42934204D125F080058A6815438E
:102F70009D60012380F83D30002380F83C301846E6
:102F800070BC7047022070470000014000040140FF
:102F9000704770477047000038B504460D4610A1D1
:102FA000D1E90001C4E9000184ED020AC4ED030A7D
:102FB00084ED041A6361C4ED061A22779DF810307F
:102FC0006377002384F82E3084F82F3084F8303073
:102FD000042004F0E2FA05602062204638BD00BFFC
:102FE000182D4454FB21094030B595B00446036ABE
:102FF00018680021069105910491039102910191B5
:10300000237F00938123022201F071F8012000F058
:103010007EFB217F42F21073012201F5E061206AFC
:1030200000F047FE05464FF47A7000F070FB236A0B
:10303000186801F011F830B1236A08AA0AA91868C3
:1030400001F0D8F8F3E7284615B030BD30B589B0A7
:103050000446036A186800210691059104910391C2
:1030600002910191237F00930123022201F03FF896
:10307000012000F04CFB217F42F21073012201F588
:10308000E061206A00F015FE05464FF47A7000F00A
:103090003EFB236A186800F0DFFF0028F9D12846BC
:1030A00009B030BD70B584B00446017F042300939D
:1030B000002346F26002006A00F0D4FB217F4FF447
:1030C0007A730093002346F27202206A00F0F7FB45
:1030D000002504AB43F8045D217F0093012342F2F5
:1030E0003B02206A00F059FDD4ED027A9FED217A6F
:1030F00067EE877AFCEEE77ACDED037A217FCDED9E
:10310000007A012342F23B02206A00F039FC3220AF
:1031100000F0FDFA217F64230093022342F23B0278
:10312000206A00F02DFC322000F0F1FA44F6206312
:1031300004AE46F8083D217F00932B4646F28702F5
:10314000206A00F01DFC217F00962B4646F2870284
:10315000206A00F022FD322000F0D9FA206A217F97
:1031600000952B4646F2710200F0D9FB012004B015
:1031700070BD00BF00007A4410B582B00446017FE4
:1031800000F13C030093002342F25A02006A00F06F
:1031900004FDE06B02B010BD10B582B00446436977
:1031A000017F0093012346F28F02006A00F0E8FBE2
:1031B0000A2000F0ACFA206A217F01240094022347
:1031C00046F28F0200F0DCFB0A2000F0A0FA204655
:1031D00002B010BD10B582B00446017F00F1380383
:1031E0000093012346F28F02006A00F0D6FC206AA9
:1031F000217F34340094022346F28F0200F0CDFC8C
:10320000012002B010BD30B583B00446017F862393
:103210000093002346F24002006A00F050FB05468E
:103220001D2000F074FA236A186800F015FF0028CA
:10323000F9D1284603B030BD2DE9F04383B00446F0
:10324000017F284B0B44009301234FF4C052006AC6
:1032500000F096FB0546217F234B0B44009301238E
:1032600041F60102206A00F08BFB8146217F1F4B53
:103270000B440093012341F60202206A00F080FB18
:103280000646217F1A4B0B440093012341F60302AB
:10329000206A00F075FB0746217F164B0B44009314
:1032A00001234FF4A052206A00F06AFB8046217F80
:1032B000114B0B44206A0093012341F2014200F0BC
:1032C0005FFB45EA090313F0FF0307D146EA070352
:1032D00013F0FF0302D148EA0003DBB2184603B043
:1032E000BDE8F083800100808002008080030080C0
:1032F00080040080000200800003008030B583B0AD
:103300000446017F06230093002346F24002006A30
:1033100000F0D5FA05461D2000F0F9F9236A186877
:1033200000F09AFE0028F9D1284603B030BD30B530
:1033300095B00446036A186800210691059104912E
:10334000039102910191237F00938023022200F0D8
:10335000CEFE012000F0DBF9217F42F21073012242
:1033600001F5E061206A00F0A4FC05464FF47A7094
:1033700000F0CDF9236A186800F06EFE30B1236AC0
:1033800008AA0AA9186800F035FFF3E7284615B027
:1033900030BDF0B583B00446017F01F5C0730093E2
:1033A00001234FF4C052006A00F0EAFA0546217F7B
:1033B00001F520730093012341F60102206A00F019
:1033C000DFFA0746217F01F50073009301234FF4D4
:1033D000A052206A00F0D4FA0646217F01F540731E
:1033E000206A0093012341F2014200F0C9FA45EA44
:1033F000070313F0FF0302D146EA0003DBB21846CD
:1034000003B0F0BDF0B583B00446017F8023009384
:10341000002341F20502006A00F0B2FA217F022681
:10342000009633464FF4C052206A00F0EEF9217F37
:103430000025009503234FF4C052206A00F03FFAA4
:10344000217F0096334641F60102206A00F0DDF943
:10345000217F0095032341F60102206A00F02FFA34
:10346000217F00952B464FF4D052206A00F0CDF911
:10347000217F364B009301234FF4D052206A00F095
:103480007FFA217F324B009333464FF4D052206AAB
:1034900000F076FA217F2F4B009303234FF4D05294
:1034A000206A00F06DFA217F032300932B464FF42E
:1034B000D052206A00F0A9F9217F00952B4641F6F1
:1034C0000122206A00F0A1F9217F234B0093012300
:1034D00041F60122206A00F053FA217F012700976C
:1034E0002B4641F60122206A00F08FF9217F0097D8
:1034F00033464FF4A052206A00F087F9217F0097ED
:10350000334641F20142206A00F07FF9217F0095A5
:103510002B4641F20162206A00F077F9217F0F4BC0
:1035200000933B4641F20162206A00F029FA217FB4
:1035300000972B4641F20162206A00F066F92046AE
:10354000FFF727FF384603B0F0BD00BF1000416011
:1035500008006160200064601000776010007160F6
:1035600000B583B002469FED187A20EE070AD0ED31
:10357000037A80EE276ABDEEC66AD0ED025A65EE88
:10358000875AFDEEE55A15EE903A5B4207EE103A87
:10359000B8EEC66BB8EEC77B86FE077BB8EEE56B70
:1035A00087FE467BBDEEC77B17EE103A1BB2006A62
:1035B000117F0093002346F2710200F0B0F9012060
:1035C00003B05DF804FB00BF00007A4410B582B080
:1035D0000346006A1C7F0091002346F24102214607
:1035E00000F05BFA02B010BD70B584B0044600264E
:1035F00004AD25F8026D2946FFF7E8FF217F062379
:103600000093334646F24002206A00F058F96420E5
:1036100000F07DF829462046FFF7D8FF217F0723D9
:103620000093334646F24002206A00F048F96420D5
:1036300000F06DF829462046FFF7C8FF217F0F23D1
:103640000093334646F24002206A00F038F92946DA
:103650002046FFF7BBFF012004B070BD10B582B05B
:103660000446FFF7C1FC2046FFF761FE2046FFF746
:10367000E3FD8DF80700637FE3B92046FFF73EFEC8
:103680002046FFF7C0FD2046FFF7A4FD2046FFF7C8
:1036900083FD2046FFF770FD2046FFF703FD20461F
:1036A000FFF7D4FC2046FFF79FFF012084F830008D
:1036B00002B010BD2046FFF7A5FE84F82F00DCE71E
:1036C00010B582B00446017F00F14403009300234B
:1036D00046F26402006A00F0D8FA606C02B010BDD5
:1036E00010B50446FFF7ECFF94ED007B37EE077B47
:1036F00006EE900AB8EEE66B26EE077B94ED056ABF
:10370000B8EE466B87EE060BB7EEC00B10BD08B5E2
:1037100001F067F808BDC8B27047080A70472DE984
:10372000F04188B004461546984601F5C06611463A
:10373000FFF7F1FF074629462046FFF7EEFF246812
:1037400000230693059304930393CDF8088001901A
:103750000097402308223146204600F0C8FC08B0FC
:10376000BDE8F0812DE9F0419CB00446884616463C
:103770001F46229D006800F06FFC039008F5B063BF
:1037800002930023019313E0129A08929DF81A10F5
:103790009DF8193003EB01239BB2ADF80230029B78
:1037A0009A421FD00120FFF7B2FF019B0133019322
:1037B000019BAB4225D2206800F04EFC0390039B96
:1037C000002BEFD006AA12A9206800F013FD0023F9
:1037D000072BD9DC1CAA1A4412F8581C02F8601CEA
:1037E0000133F5E79DF81830802BDBD0BDF80230AF
:1037F0009BB2B342D6D19DF81B30BB42D2D101203F
:1038000000E000201CB0BDE8F0812DE9F04389B054
:1038100004460E4615461F4601F5C0681146FFF7DF
:103820007AFF814629462046FFF777FF002306935B
:10383000059304939DF84030039302970190CDF8CF
:1038400000902F2308224146206800F050FC0323FB
:1038500000933B462A4631462046FFF783FF09B0D6
:10386000BDE8F0832DE9F04389B004460E461546C5
:103870001F4601F5C0681146FFF74DFF81462946F6
:103880002046FFF74AFF9DF840200023069305934A
:103890000493039202970190CDF800902F23082201
:1038A0004146206800F023FC032300933B462A4650
:1038B00031462046FFF756FF09B0BDE8F0832DE9F9
:1038C000F04788B005460F4616469846BDF840407A
:1038D00001F5C0691146FFF71EFF824631462846B2
:1038E000FFF71BFFE2B2240A00230693059304941A
:1038F0000392CDF808800190CDF800A02B23082278
:103900004946286800F0F3FB032300934346324600
:1039100039462846FFF726FF08B0BDE8F0872DE9B5
:10392000F04788B005460F4616469846BDF9404018
:1039300001F5C0691146FFF7EEFE82463146284682
:10394000FFF7EBFEE2B2C4F30724002306930593CE
:1039500004940392CDF808800190CDF800A02B23A9
:1039600008224946286800F0C2FB0323009343461F
:10397000324639462846FFF7F5FE08B0BDE8F08725
:103980002DE9F04788B005460F4616469846109C2C
:1039900001F5C0691146FFF7BEFE82463146284652
:1039A000FFF7BBFEE3B2C4F30722C4F30741240EC2
:1039B0000694059104920393CDF808800190CDF808
:1039C00000A0232308224946286800F090FB032327
:1039D00000934346324639462846FFF7C3FE08B0F7
:1039E000BDE8F0872DE9F0419CB0044688461646B4
:1039F0001F46229D006800F02FFB039008F5B0637E
:103A000002930023019313E0129A08929DF81A1072
:103A10009DF8193003EB01239BB2ADF80230029BF5
:103A20009A421FD00120FFF772FE019B01330193E0
:103A3000019BAB422DD2206800F00EFB0390039B4C
:103A4000002BEFD006AA12A9206800F0D3FB0023B8
:103A5000072BD9DC1CAA1A4412F8581C02F8601C67
:103A60000133F5E79DF81830802BDBD0BDF802302C
:103A70009BB2B342D6D19DF81B30BB42D2D19DF848
:103A80001D209DF81C3003EB0223239A1380012094
:103A900000E000201CB0BDE8F081F0B585B0044620
:103AA0000D4616461F46FFF73AFE206800F0F7FB6A
:103AB00003900399206800F0F8FB02900A9B0193A1
:103AC000022300933B46324629462046FFF78AFFF1
:103AD00005B0F0BD2DE9F0419CB00446884616467D
:103AE0001F46229D006800F0B7FA039008F5B06306
:103AF00002930023019313E0129A08929DF81A1082
:103B00009DF8193003EB01239BB2ADF80230029B04
:103B10009A421FD00120FFF7FAFD019B0133019368
:103B2000019BAB4235D2206800F096FA0390039BCC
:103B3000002BEFD006AA12A9206800F05BFB00233F
:103B4000072BD9DC1CAA1A4412F8581C02F8601C76
:103B50000133F5E79DF81830802BDBD0BDF802303B
:103B60009BB2B342D6D19DF81B30BB42D2D19DF857
:103B70001F209DF81E301B0403EB02639DF81D20DF
:103B800003EB02239DF81C201344239A13600120A9
:103B900000E000201CB0BDE8F081F0B583B0044621
:103BA0000D4616461F46FFF7BAFD089B01930223F8
:103BB00000933B46324629462046FFF78BFF03B071
:103BC000F0BD2DE9F0419EB00446884616461F46DA
:103BD000249D006800F040FA049008F5B063039358
:103BE0000023029313E0139A09929DF81E109DF88A
:103BF0001D3003EB01239BB2ADF80630039B9A42C4
:103C00001FD00120FFF783FD029B01330293029B2B
:103C1000AB4236D2206800F01FFA0490049B002BC0
:103C2000EFD007AA13A9206800F0E4FA0023072BBD
:103C3000D9DC1EAA1A4412F85C1C02F8641C013379
:103C4000F5E79DF81C30802BDBD0BDF806309BB229
:103C5000B342D6D19DF81F30BB42D2D10023032BF3
:103C60000ADC1A1D1EA90A4412F85C1C1EAA1A447A
:103C700002F8041C0133F2E71D9A259B1A6001200B
:103C800000E000201EB0BDE8F081F0B583B004462E
:103C90000D4616461F46FFF742FD089B01930A2377
:103CA00000933B46324629462046FFF78AFF03B081
:103CB000F0BD2DE9F0419AB00546884617461E46EC
:103CC0000024059418E003AA10A9286800F092FACD
:103CD0000023072B07DC1AAA1A4412F85C1C02F80E
:103CE000641C0133F5E7109B069343450DD1012079
:103CF00010E00120FFF70BFDB4420AD2286800F063
:103D0000ABF90590059B002BDDD1002FF1D00134DC
:103D1000EFE700201AB0BDE8F08100002DE9F04780
:103D200088B00446002303930493059306930793F6
:103D3000504B1B6883B1226B537B013353730023B9
:103D40006360A36023616361A3614FF40002E261D9
:103D5000236208B0BDE8F087B02003F01EFC0546E2
:103D6000444A1060B022002104F0BFFA256301200C
:103D70002870236B00211973236B5973256B032261
:103D800000F0CDFE6860236B586800286CD03A497B
:103D900001F0F8F9206B00231A461946406800F03C
:103DA000E5FE256B03220021012000F0B8FEA8608B
:103DB000236B986800285AD0304901F0E3F9206B52
:103DC00000231A461946806800F0D0FE236B4FF09E
:103DD000FF31986801F0F4F8294DD5F8E03043F050
:103DE0000803C5F8E030D5F8E03003F0080301938C
:103DF000019B022703970497012605964FF0030ABB
:103E0000CDF818A04FF00909CDF81C90DFF87480A8
:103E100003A94046FDF702F9039604970596CDF8ED
:103E200018A0CDF81C9003A94046FDF7F7F8D5F887
:103E3000EC3043F48073C5F8EC30D5F8EC3003F483
:103E400080730293029B002205211320FCF78EFA57
:103E50001320FCF7BDFA002205211320FCF786FA97
:103E60001520FCF7B5FA66E70023236371E700230A
:103E700023636EE7C000002020850008308500081D
:103E800000440258000C0258036B1A7B12B91A78CE
:103E9000012A00D07047F0B589B00446654A1A611E
:103EA000036B00269E61036BDE61036B012583F8C3
:103EB0002050036B83F82150036B83F82250036B6F
:103EC00004225A62036B9D62036B0D21D962036B5E
:103ED00002271F63006B08234362206B8262206B02
:103EE000C162216B0F63216B4D62216B8D62206B70
:103EF0004FF0050CC0F82CC0206B0763206B4562A7
:103F0000206B8562206BC362206B0563206B476268
:103F1000206B85620620216BC862216B0D63216BCB
:103F20004862206B8362206BC362206B0563206B49
:103F30004262206B8362206BC362206B0563206B3F
:103F40004562206B83621F20216BC862206B036374
:103F5000236BC3F824C0236B07219962236B0A21CA
:103F6000D962236B1D63236B5E64236B9D64236B9B
:103F7000DE64236B14211965236B5A65236B9E65E0
:103F8000236BDA65236B1E66236B5A66236B9E6672
:103F9000236BDD66236B1D67236B5E67236B9A675C
:103FA000206B324639461030FCF7D7FC206B324686
:103FB00039461030FCF7D1FC206B1030FCF7E0FCE8
:103FC0000096019602960395049540F2FF730593BF
:103FD000206B1030FCF734FBE0B9206B69461030E1
:103FE000FCF778FCC8B9206B1030FCF7DDFCB8B9E1
:103FF000206B002240F601211030FCF723FE90B91F
:10400000206B00224FF400611030FCF71BFE68B9F2
:1040100009B0F0BD03F0D2F8DFE703F0CFF8E2E734
:1040200003F0CCF8E4E703F0C9F8E9E703F0C6F8D9
:10403000EEE700BF00A0004038B504460025C56289
:10404000056380F83450FFF769FE2046FFF71CFF38
:1040500084F83450204638BD08B5006B402110303C
:10406000FCF7E1FD08BD036B002B3FD030B583B0FA
:104070000D4604464FF0FF31586800F0A1FF236B56
:10408000986801F06BF818BB40F2111323604FF4ED
:10409000A023E360112384F8243084F8253084F8C9
:1040A000263084F8273084F82850206B04F124024D
:1040B00021461030FCF792FC88B100230193206B5D
:1040C00000231A461946406800F050FD03B030BD89
:1040D000236B4FF0FF31986800F072FFD4E7236B39
:1040E0004FF0FF31986800F06BFFE8E770472DE96B
:1040F000F04182B0076B002F4FD0984615460E4610
:1041000004464FF0FF31786800F05AFF236B98683F
:1041100001F024F848B92660082D61D8DFE805F0E1
:104120000C4044484C5054585C00236B4FF0FF3116
:10413000986800F045FFEEE70023E36084F82480F0
:104140009DF8203084F825309DF8243084F82630FE
:104150009DF8283084F827309DF82C3084F82830DA
:104160009DF8303084F829309DF8343084F82A30B6
:104170009DF8383084F82B30206B04F1240221465E
:104180001030FCF72BFC70B300230193206B00234D
:104190001A461946406800F0E9FC02B0BDE8F0811B
:1041A0004FF48033E360C9E74FF40033E360C5E7C1
:1041B0004FF44033E360C1E74FF48023E360BDE791
:1041C0004FF4A023E360B9E74FF4C023E360B5E701
:1041D0004FF4E023E360B1E74FF40023E360ADE781
:1041E0000023E360AAE7236B4FF0FF31986800F0EB
:1041F000E7FECBE7F0B583B0066BEEB117460D4690
:1042000004464FF0FF31706800F0DAFE236B9868C7
:1042100000F0A4FF90B9206B3B462A4640211030A5
:10422000FCF71AFC08B100230193206B00231A4607
:104230001946406800F09AFC03B0F0BD236B4FF0C4
:10424000FF31986800F0BCFEE5E7036B33B310B5AF
:104250008EB004464FF0FF31586800F0B1FE236B7A
:10426000986800F07BFF90B9206B02AB04AA402154
:104270001030FCF7F1FB08B100230193206B002301
:104280001A461946406800F071FC0EB010BD236B51
:104290004FF0FF31986800F093FEE5E7704708B5EE
:1042A000006B1030FCF7D4FB08BD08B5006B103074
:1042B000FCF7B0FC08BD000008B5034B186810B14E
:1042C0001030FCF715FD08BDC000002008B5034BF9
:1042D000186810B11030FCF70BFD08BDC0000020BD
:1042E00002680E4B9A4200D0704700B583B00C4B69
:1042F0001B6802A9002241F8042D986800F05AFDBD
:10430000019B3BB1074B4FF080521A60BFF34F8FB8
:10431000BFF36F8F03B05DF804FB00BF00A0004047
:10432000C000002004ED00E002680E4B9A4200D06D
:10433000704700B583B00C4B1B6802A9002241F8FE
:10434000042D986800F036FD019B3BB1074B4FF000
:1043500080521A60BFF34F8FBFF36F8F03B05DF8C9
:1043600004FB00BF00A00040C000002004ED00E0FE
:1043700002680E4B9A4200D0704700B583B00C4BD8
:104380001B6802A9002241F8042D986800F012FD74
:10439000019B3BB1074B4FF080521A60BFF34F8F28
:1043A000BFF36F8F03B05DF804FB00BF00A00040B7
:1043B000C000002004ED00E002680E4B9A4200D0DD
:1043C000704700B583B00C4B1B6802A9002241F86E
:1043D000042D986800F0EEFC019B3BB1074B4FF0B9
:1043E00080521A60BFF34F8FBFF36F8F03B05DF839
:1043F00004FB00BF00A00040C000002004ED00E06E
:104400008368002B00F0C68010B58CB004460023F2
:10441000089309930A930B93059306930793836874
:104420001B78012B22D0022B39D0032B50D0042B28
:1044300067D0A26800239361A2685362A268936266
:10444000A2681362A3681A89DA61FDF775FCA26895
:104450005368B0FBF3F001385061A0684369B3F5CD
:10446000803F67D30023A3600CB010BD4A4BD3F844
:10447000E82042F01002C3F8E820D3F8E83003F057
:1044800010030193019B002209213620FBF76EFFE8
:104490003620FBF79DFFA368404A1A61C9E73E4BEF
:1044A000D3F8E82042F02002C3F8E820D3F8E8303F
:1044B00003F020030293029B002209213720FBF71F
:1044C00055FF3720FBF784FFA368354A1A61B0E730
:1044D000314BD3F8E82042F04002C3F8E820D3F88B
:1044E000E83003F040030393039B002209212B20B3
:1044F000FBF73CFF2B20FBF76BFFA368294A1A61EF
:1045000097E7254BD3F8E82042F08002C3F8E82073
:10451000D3F8E83003F080030493049B00220921C0
:104520002C20FBF723FF2C20FBF752FFA3681E4A29
:104530001A617EE71030FEF7CBFB10B10023A360B9
:1045400092E70CA94FF4805341F8103DA068103059
:10455000FEF752FC10B10023A36085E7002305930A
:1045600006930793A06805A91030FEF7C5FC10B1AB
:104570000023A36078E7A0681030FEF717FA10B1A7
:104580000023A36070E7A3681A69D36843F00103AE
:10459000D36069E7704700BF004402580010004034
:1045A0000014004000180040001C0040F8B504460C
:1045B0000D4616464FF6FF73038000234360C36029
:1045C000012909D0022D17D0032D25D0042D33D079
:1045D0000023A3602046F8BD284B1B68002BF1D1B7
:1045E000682002F0DAFF0746244A106068220021A2
:1045F00003F07BFEA7602EE0204B5B68002BE3D12D
:10460000682002F0CAFF07461C4A50606822002159
:1046100003F06BFEA7601EE0184B9B68002BD5D102
:10462000682002F0BAFF0746144A90606822002111
:1046300003F05BFEA7600EE0104BDB68002BC7D1D8
:10464000682002F0AAFF07460C4AD06068220021C9
:1046500003F04BFEA760A3681D70A3685E60A368AB
:1046600022881A81A26800231366A268D365A26813
:1046700053662046FFF7C4FEACE700BFCC00002025
:10468000836823B11A69506ADB68184470470020B8
:10469000704710B50446FFF7F3FF07EE900AF8EEF7
:1046A000677AA36893ED010AB8EE400A87EE800AA4
:1046B00010BD38B58368BBB10D460446FFF7E0FF77
:1046C000A8420CD9431B07EE903AF8EE677AA3682C
:1046D00093ED017AB8EE477A87EE870A38BD411B21
:1046E0004B1E07EE903AF0E7BFEE000AF6E7000037
:1046F00003691A6912F0010F2AD0DA6812F0010F6B
:1047000026D010B582B004466FF001021A61038909
:10471000C26813440133C360406E80B1002102AA15
:1047200042F8041D0B4600F0DFFA019B3BB1094B38
:104730004FF080521A60BFF34F8FBFF36F8F236E1D
:1047400003B19847E06D08B100F05AFF02B010BD08
:10475000704700BF04ED00E008B5054B186820B9AC
:10476000044B6FF0FF021A6108BDFFF7C1FFFBE7C2
:10477000CC0000200010004008B5054B586820B957
:10478000044B6FF0FF021A6108BDFFF7B1FFFBE7B2
:10479000CC0000200014004008B5054B986820B9F3
:1047A000044B6FF0FF021A6108BDFFF7A1FFFBE7A2
:1047B000CC0000200018004008B5054BD86820B98F
:1047C000044B6FF0FF021A6108BDFFF791FFFBE792
:1047D000CC000020001C004008B500F061FF002064
:1047E00008BD08B5034600B90123184601F004F9D5
:1047F000002008BD00F1080343604FF0FF328260E3
:10480000C3600361002303607047002303617047A6
:1048100043684B609A688A609A6851609960086141
:10482000036801330360704730B40D68B5F1FF3F92
:1048300002D000F1080202E0026904E01A4653685F
:104840001C68AC42FAD953684B6099608A60516029
:10485000086103680133036030BC70470369426834
:10486000816891608268416851605A68824206D0CE
:10487000002202611A68013A1A601868704782685B
:104880005A60F5E7436A23B1036B1868C0F107006B
:1048900070470020704710B5044601F0B3FDA26BCD
:1048A000E36B9A4204D0002401F0CEFD204610BDF7
:1048B0000124F9E710B5044601F0A4FDA36B23B170
:1048C000002401F0C1FD204610BD0124F9E770B5B8
:1048D00004461646856B026C5AB903681BB100206A
:1048E0000135A56370BD806801F032FA0023A36032
:1048F000F6E76EB9406803F0EDFC226C6368134480
:104900006360A268934219D3236863600020E7E7DD
:10491000C06803F0DFFC226C5242E3681344E3609A
:1049200021688B4202D2A3681A44E260022E01D0B1
:104930000020D5E725B1013D0020D1E70020CFE7D9
:104940000020CDE7026C72B110B5C3681344C36098
:104950008468A34201D30368C3600C46C168204643
:1049600003F0B8FC10BD704738B5054601F04AFDAC
:1049700095F8454064B203E001F070F9013C64B27F
:10498000002C08DD6B6A33B105F1240001F0DAF880
:104990000028F3D0F0E7FF2385F8453001F054FDFF
:1049A00001F030FD95F8444064B203E001F056F99F
:1049B000013C64B2002C08DD2B6933B105F1100015
:1049C00001F0C0F80028F3D0F0E7FF2385F8443069
:1049D00001F03AFD38BD000038B540B94FF0400352
:1049E00083F31188BFF36F8FBFF34F8FFEE7044649
:1049F0000D4601F007FD2168E26B236C03FB0210FA
:104A0000A0600020A0636160013A02FB0313E36031
:104A1000FF2384F8443084F84530A5B923691BB9D5
:104A200001F012FD012038BD04F1100001F08AF8F8
:104A30000028F5D0084B4FF080521A60BFF34F8F1B
:104A4000BFF36F8FECE704F11000FFF7D3FE04F122
:104A50002400FFF7CFFEE3E704ED00E010B5029B72
:104A60000C4639B11A60D8631C6401211846FFF75F
:104A7000B3FF10BD1B60F6E740B94FF0400383F36E
:104A80001188BFF36F8FBFF34F8FFEE710B584B06F
:104A900004467BB1081C18BF0120002A08BF012072
:104AA00088B94FF0400383F31188BFF36F8FBFF3D2
:104AB0004F8FFEE74FF0400383F31188BFF36F8FF2
:104AC000BFF34F8FFEE7B1FA81F04009002A18BF0B
:104AD000012040B94FF0400383F31188BFF36F8F7B
:104AE000BFF34F8FFEE7482003900398482808D073
:104AF0004FF0400383F31188BFF36F8FBFF34F8FE5
:104B0000FEE720461C46039B012384F846300094B0
:104B10009DF81830FFF7A2FF204604B010BD40B941
:104B20004FF0400383F31188BFF36F8FBFF34F8FB4
:104B3000FEE7F0B583B0064611B101FB00F000E0DE
:104B4000002017460C46483001F0FEFD054650B1E6
:104B5000002380F8463000903B4600F14802214691
:104B60003046FFF77BFF284603B0F0BDF0B585B0B7
:104B7000019260B1044699B9026C8AB14FF04003CA
:104B800083F31188BFF36F8FBFF34F8FFEE74FF0B2
:104B9000400383F31188BFF36F8FBFF34F8FFEE79E
:104BA000022B0BD1E26B012A08D04FF0400383F3B4
:104BB0001188BFF36F8FBFF34F8FFEE71E460F467E
:104BC00001F054F850B9019B53B14FF0400383F307
:104BD0001188BFF36F8FBFF34F8FFEE700253AE0D8
:104BE000002538E0324639462046FFF770FE636AFA
:104BF0004BB9A8B13B4B4FF080521A60BFF34F8FB7
:104C0000BFF36F8F0CE004F1240000F09BFF38B17C
:104C1000344B4FF080521A60BFF34F8FBFF36F8F4A
:104C200001F012FC012005B0F0BD01F00DFC0020E8
:104C3000F9E702A800F0C8FF012519E0002384F875
:104C4000443021E0002384F8453023E02046FFF77C
:104C50008BFE00F007FE01F0D5FBA26BE36B9A42DE
:104C6000C0D3022EBED0019B002BDED0002DE0D0A1
:104C700001F0EAFB00F05AFD01F0C4FB94F8443067
:104C80005BB2B3F1FF3FD9D094F845305BB2B3F1DA
:104C9000FF3FD7D001F0D8FB01A902A800F09EFF8A
:104CA000C8B92046FFF7F7FD0028CFD0019904F1DD
:104CB000100000F00FFF2046FFF756FE00F0D2FD77
:104CC0000028C8D1074B4FF080521A60BFF34F8FB6
:104CD000BFF36F8FBFE72046FFF746FE00F0C2FD2F
:104CE0000020A0E704ED00E02DE9F84360B10446A0
:104CF00099B9006C88B14FF0400383F31188BFF37A
:104D00006F8FBFF34F8FFEE74FF0400383F311889F
:104D1000BFF36F8FBFF34F8FFEE7022B0BD1E06B1A
:104D2000012808D04FF0400383F31188BFF36F8F41
:104D3000BFF34F8FFEE71F469046894601F088FC7F
:104D4000EFF311864FF0400383F31188BFF36F8FA9
:104D5000BFF34F8FA26BE36B9A4203D3022F01D0B4
:104D600000200FE094F845506DB23A46494620467F
:104D7000FFF7ADFDB5F1FF3F08D06B1C5BB284F8C7
:104D80004530012086F31188BDE8F883636A5BB182
:104D900004F1240000F0D6FE40B1B8F1000F07D0B6
:104DA0000120C8F80000EDE70120EBE70120E9E76A
:104DB0000120E7E760B170B50446036C8BB14FF09A
:104DC000400383F31188BFF36F8FBFF34F8FFEE76C
:104DD0004FF0400383F31188BFF36F8FBFF34F8F02
:104DE000FEE703682BB30E4601F032FCEFF31185AA
:104DF0004FF0400383F31188BFF36F8FBFF34F8FE2
:104E0000A26BE36B934226D994F845305BB2013232
:104E1000A263B3F1FF3F18D1636AF3B104F1240038
:104E200000F090FED8B1E6B10120306085F3118822
:104E300070BD8368002BD6D04FF0400383F31188F8
:104E4000BFF36F8FBFF34F8FFEE701335BB284F880
:104E500045300120EAE70020E8E70120E6E70120ED
:104E6000E4E70120E2E70000F0B585B0019260B10F
:104E7000044699B9036C8BB14FF0400383F311885A
:104E8000BFF36F8FBFF34F8FFEE74FF0400383F305
:104E90001188BFF36F8FBFF34F8FFEE70F4600F00F
:104EA000E5FE50B9019B53B14FF0400383F31188E5
:104EB000BFF36F8FBFF34F8FFEE700263EE0002663
:104EC0003CE039462046FFF73DFD013DA5632369DF
:104ED00023B901F0B9FA012005B0F0BD04F11000CA
:104EE00000F030FE0028F4D0344B4FF080521A60AE
:104EF000BFF34F8FBFF36F8FEBE701F0A5FA0020F0
:104F0000EAE702A800F060FE012621E0002384F811
:104F1000443029E0002384F845302BE02046FFF799
:104F200023FD00F09FFC09E02046FFF71DFD00F087
:104F300099FC2046FFF7BEFC00283DD101F062FA43
:104F4000A56B002DBDD1019B002BD6D0002ED8D053
:104F500001F07AFA00F0EAFB01F054FA94F84430D8
:104F60005BB2B3F1FF3FD1D094F845305BB2B3F1FF
:104F7000FF3FCFD001F068FA01A902A800F02EFE91
:104F80000028D1D12046FFF795FC0028C6D0019912
:104F900004F1240000F09EFD2046FFF7E5FC00F040
:104FA00061FC0028CAD1054B4FF080521A60BFF354
:104FB0004F8FBFF36F8FC1E700208DE704ED00E056
:104FC00070B584B0019140B94FF0400383F311886C
:104FD000BFF36F8FBFF34F8FFEE70446036C43B1FF
:104FE0004FF0400383F31188BFF36F8FBFF34F8FF0
:104FF000FEE700F03BFE50B9019B5BB14FF0400370
:1050000083F31188BFF36F8FBFF34F8FFEE7002547
:105010002E4651E000252E464EE0013BA363236857
:1050200013B900F04FFFA060236963B104F11000D1
:1050300000F088FD38B1484B4FF080521A60BFF342
:105040004F8FBFF36F8F01F0FFF90125284604B0A1
:1050500070BD45B14FF0400383F31188BFF36F8FEC
:10506000BFF34F8FFEE701F0EFF9EFE702A800F082
:10507000ABFD01262AE0002384F8443032E000230F
:1050800084F8453034E001F0BDF9A06800F0FEFD81
:10509000054601F0D9F93BE02046FFF765FC00F03A
:1050A000E1FB09E02046FFF75FFC00F0DBFB204658
:1050B000FFF700FC002840D101F0A4F9A36B002BFE
:1050C000ABD1019B002BC4D0002ECFD001F0BCF996
:1050D00000F02CFB01F096F994F844305BB2B3F188
:1050E000FF3FC8D094F845305BB2B3F1FF3FC6D064
:1050F00001F0AAF901A902A800F070FD0028D1D1A1
:105100002046FFF7D7FB0028C6D02368002BBAD073
:10511000019904F1240000F0DDFC2046FFF724FC97
:1051200000F0A0FB0028C7D10B4B4FF080521A6053
:10513000BFF34F8FBFF36F8FBEE7002D86D001F016
:1051400061F92046FFF79EFB0146A06800F058FE7B
:1051500001F07AF9002579E704ED00E040B94FF05D
:10516000400383F31188BFF36F8FBFF34F8FFEE7C8
:1051700010B5044601F046F9A46B01F065F920462C
:1051800010BD00000023072B0CD8074A52F833202B
:105190000AB10133F7E7044A42F8331002EBC303C4
:1051A00058607047704700BF4446002070B5044601
:1051B0000D46164601F026F994F844305BB2B3F17F
:1051C000FF3F0DD094F845305BB2B3F1FF3F0BD0F9
:1051D00001F03AF9A36B5BB12046FFF7C5FB70BD48
:1051E000002384F84430EDE7002384F84530EFE7EE
:1051F0003246294604F1240000F086FCECE700006A
:1052000050B141690C4A91420FD1836A14329342E2
:105210000DD073B1002070474FF0400383F3118825
:10522000BFF36F8FBFF34F8FFEE700207047002062
:1052300070470120704700BFDC000020074B9B6ACD
:105240001B6833B1054B9A6AD268D2685268DA6239
:105250007047024B4FF0FF32DA627047DC000020EB
:105260002DE9F04780469946089D099F0A9C266BC8
:105270006FF04043134406EB830626F0070689B31C
:105280000A4600230F2B07D8D05CE11881F83400C0
:10529000D15C09B10133F5E7002384F84330062DD2
:1052A00000D90625E56265644FF0000AC4F848A0FD
:1052B000201DFFF7AAFA04F11800FFF7A6FA2461EF
:1052C000C5F10705A5616462C4F84CA084F850A03C
:1052D0004A464146304601F06BF8206007B13C6019
:1052E000BDE8F087002384F83430D8E770B5002497
:1052F00007E004EB8402930010481844FFF77AFAA1
:105300000134062CF5D90E4C04F1BC063046FFF7EB
:1053100071FA04F1D0052846FFF76CFA04F1140085
:10532000FFF768FA04F1E400FFF764FA2046FFF79C
:1053300061FAA662C4F8F85070BD00BF0C010020ED
:10534000DC00002038B5054601F05CF8264BD3F8A8
:10535000FC200132C3F8FC20D3F8003173B1224B9A
:10536000D3F804318BB9204BD3F80031DA6AEB6AF9
:105370009A420AD81C4BC3F8005106E01A4BC3F8F6
:105380000051D3F8FC30012B2AD0174CD4F8083147
:105390000133C4F80831EB6A01229A40D4F80C11A9
:1053A0000A43C4F80C2104F1300003EB83039A0094
:1053B000291D1044FFF72CFA01F046F8D4F8043107
:1053C0006BB1D4F80031DA6AEB6A9A4207D2074B24
:1053D0004FF080521A60BFF34F8FBFF36F8F38BD0D
:1053E000FFF784FFD1E700BFDC00002004ED00E000
:1053F00010B5044690F8513033B9006B01F01EFA35
:10540000204601F01BFA10BD012B0AD0022BFAD066
:105410004FF0400383F31188BFF36F8FBFF34F8FBB
:10542000FEE701F00BFAEEE738B517E000F0EAFF0F
:105430000D4CD4F8F030DD68281DFFF70FFAD4F8D2
:10544000FC30013BC4F8FC30D4F81031013BC4F807
:10545000103100F0F9FF2846FFF7CAFF024BD3F8DE
:105460001031002BE2D138BDDC00002008B5FFF779
:10547000DBFF064B1B6B012BF9D9054B4FF080521C
:105480001A60BFF34F8FBFF36F8FF0E7DC0000208F
:1054900004ED00E070B504460E46214BD3F81451DC
:1054A000D3F800010430FFF7D9F960B91C4BD3F8E9
:1054B0000021D16A012202FA01F1D3F80C2122EA7B
:1054C0000102C3F80C21B4F1FF3F14BF00230123F4
:1054D000002E08BF002393B92C44114BD3F80031A0
:1054E0005C60A54212D80E4DA86AD5F800110431AF
:1054F000FFF79AF9EB6AA34210D9EC620EE0084874
:10550000D0F800110431FFF783F907E0044BD3F81A
:10551000F800D3F800110431FFF786F970BD00BF21
:10552000DC00002070B586B00B9D0C9C45B94FF097
:10553000400383F31188BFF36F8FBFF34F8FFEE7F4
:1055400044B94FF0400383F31188BFF36F8FBFF36B
:105550004F8FFEE754260496049E542E08D04FF039
:10556000400383F31188BFF36F8FBFF34F8FFEE7C4
:10557000049E2563022584F851500025039502946A
:1055800005AD01950A9D0095FFF76AFE2046FFF7DD
:10559000D9FE059806B070BD2DE9F04385B00746E9
:1055A000884615469946900001F0CEF808B30646A5
:1055B000542001F0C9F80446B8B10663E4B10023F1
:1055C00084F85130039302940D9B01930C9B00933C
:1055D0004B462A4641463846FFF742FE2046FFF733
:1055E000B1FE012005B0BDE8F083304601F026F998
:1055F000E4E74FF0FF30F5E74FF0FF30F2E700004F
:10560000F8B540B94FF0400383F31188BFF36F8FB3
:10561000BFF34F8FFEE7044601F01AF8EFF311874E
:105620004FF0400383F31188BFF36F8FBFF34F8FA9
:105630002046FFF7E5FD60B3174BD3F818310BBBDD
:10564000E26A154BD3F80031DB6A9A4218D2002582
:10565000261D3046FFF702F9E06A012282400E4B18
:10566000D3F80C110A43C3F80C213033314614220D
:1056700002FB0030FFF7CCF887F311882846F8BD0D
:105680000125E5E704F118010448FFF7C1F80025FA
:10569000F2E70025F0E700BFDC000020F00000206A
:1056A00010B588B000240594069407AA06A905A899
:1056B00001F078FB059B0293069B0193009423461F
:1056C000079A17491748FFF72DFF40B100F06EFC0D
:1056D000012806D0B0F1FF3F18D008B010BD00205F
:1056E000F6E74FF0400383F31188BFF36F8FBFF3EA
:1056F0004F8F0D4B4FF0FF32DA620122C3F80421C5
:105700000022C3F8142100F01FFFE6E74FF040032A
:1057100083F31188BFF36F8FBFF34F8FFEE700BF96
:10572000408500086D540008DC000020034AD2F8D0
:1057300018310133C2F81831704700BFDC00002077
:10574000014BD3F814017047DC000020014BD3F863
:10575000FC007047DC0000202DE9F041404BD3F8FD
:105760001831002B6CD13E4BD3F814510135C3F8DE
:105770001451CDB99B6A1B6843B14FF0400383F3CA
:105780001188BFF36F8FBFF34F8FFEE7344B9A6AD8
:10579000D3F8F8109962C3F8F820D3F81C2101322D
:1057A000C3F81C21FFF74AFD2D4BDB6AAB423DD904
:1057B00000242B4AD2F80031DB6A03EB8303990003
:1057C0000A44136B012B42D9012440E00124244BED
:1057D0009B6A1B6863B3224B9B6ADB68DE68736855
:1057E0009D422AD306F104084046FFF737F8B36A12
:1057F0001BB106F11800FFF731F8F36A01229A4055
:10580000174FD7F80C110A43C7F80C2107F13000E5
:1058100003EB83039A0041461044FEF7F9FFF26A56
:10582000D7F80031DB6A9A42D0D2D0E70024CEE725
:105830000B4B4FF0FF32DA62BBE7094AD362B8E79D
:10584000074AD2F820310133C2F820310024044B3A
:10585000D3F8243103B101242046BDE8F08100BF14
:10586000DC000020394BD3F8183143B94FF0400326
:1058700083F31188BFF36F8FBFF34F8FFEE770B5CF
:1058800000F0C0FD314BD3F81821013AC3F81821BC
:10589000D3F81831002B54D12C4BD3F8FC3023B95A
:1058A000002400F0D1FD204670BD0024274B5B6929
:1058B0002BB3264D2B6ADC6804F11800FEF7CEFFEF
:1058C000261D3046FEF7CAFFE36A01229A40D5F84A
:1058D0000C110A43C5F80C2105F1300003EB8303DA
:1058E0009A0031461044FEF793FFE26AD5F8003182
:1058F000DB6A9A42DAD30122C5F82421D6E70CB13B
:10590000FFF79CFC114BD3F8204164B1FFF724FF53
:1059100018B10E4B0122C3F82421013CF6D10B4BE8
:105920000022C3F82021094BD3F824315BB1084B86
:105930004FF080521A60BFF34F8FBFF36F8F012477
:10594000AFE70024ADE70024ABE700BFDC00002098
:1059500004ED00E038B550B1054689B94FF0400379
:1059600083F31188BFF36F8FBFF34F8FFEE74FF0C4
:10597000400383F31188BFF36F8FBFF34F8FFEE7B0
:105980001B4BD3F8183143B14FF0400383F3118818
:10599000BFF36F8FBFF34F8FFEE70C46FFF7C6FED6
:1059A000134BD3F814012A681444824218D9A24236
:1059B0000CD82C60FFF756FF38B90E4B4FF08052D1
:1059C0001A60BFF34F8FBFF36F8F38BDA04201D372
:1059D0002C60EFE72C600021201AFFF75BFDE9E760
:1059E000A24201D8A04201D22C60F4E72C60E1E78A
:1059F000DC00002004ED00E010B5B0B104460F4B10
:105A0000D3F8183143B14FF0400383F31188BFF34B
:105A10006F8FBFF34F8FFEE7FFF788FE0021204610
:105A2000FFF738FDFFF71EFF38B9054B4FF08052E6
:105A30001A60BFF34F8FBFF36F8F10BDDC000020E3
:105A400004ED00E0224BD3F8183123B1204B0122A2
:105A5000C3F8242170471E4A0023C2F82431D2F82B
:105A60000C31B3FA83F3DBB2C3F11F0303EB830002
:105A700081000A44126B42B94FF0400383F311884E
:105A8000BFF36F8FBFF34F8FFEE710B4104A99003A
:105A9000CC18A0001044446B64684463303219444D
:105AA00088000830024494420BD0094903EB830379
:105AB0009A000A44536BDB68C1F800315DF8044B6F
:105AC000704761680248142202FB03025163ECE74D
:105AD000DC00002040B94FF0400383F31188BFF38E
