:020000040800F2
:100000000000022039410008F93F0008FB3F0008CA
:10001000FD3F0008FF3F000801400008000000000D
:100020000000000000000000000000000340000885
:1000300005400008000000000740000809400008D3
:100040008941000889410008894100088941000868
:100050008941000889410008894100088941000858
:100060008941000889410008894100088941000848
:100070008941000889410008894100088941000838
:100080008941000889410008894100084539000874
:100090008941000811400008894100088941000891
:1000A0008941000889410008894100088941000808
:1000B00089410008894100088941000889410008F8
:1000C00089410008894100088941000889410008E8
:1000D00089410008894100088941000889410008D8
:1000E000894100088941000800000000894100089A
:1000F00089410008894100088941000889410008B8
:1001000089410008894100088941000889410008A7
:100110008941000889410008894100088941000897
:100120008941000889410008894100088941000887
:100130008941000889410008894100088941000877
:1001400000000000000000000000000000000000AF
:100150008941000889410008894100088941000857
:100160008941000889410008894100088941000847
:100170008941000889410008894100080000000009
:100180008941000889410008894100088941000827
:100190008941000889410008894100088941000817
:1001A0008941000889410008894100088941000807
:1001B00089410008894100088941000889410008F7
:1001C00089410008894100088941000889410008E7
:1001D00089410008894100088941000889410008D7
:1001E00089410008894100088941000889410008C7
:1001F00089410008894100088941000889410008B7
:1002000089410008894100088941000889410008A6
:100210008941000889410008894100088941000896
:100220008941000889410008894100080000000058
:100230008941000889410008000000008941000848
:100240008941000889410008894100088941000866
:100250008941000889410008894100088941000856
:100260008941000889410008894100088941000846
:100270008941000889410008894100080000000008
:1002800089410008894100088941000800000000F8
:08029000000000008941000894
:1002980010B5054C237833B9044B13B10448AFF3B8
:1002A80000800123237010BDA00000200000000082
:1002B8004C50000808B5034B1BB103490348AFF382
:1002C800008008BD00000000A40000204C50000879
:1002D800104B1B780BB90120704710B504464FF43A
:1002E8007A70B0FBF3F30C4A1068B0FBF3F000F03F
:1002F800C1F868B90F2C01D901200AE00022214673
:100308004FF0FF3000F076F8024B5C60002000E010
:10031800012010BD000000203400002010B503208B
:1003280000F056F801F00AFB0F498B69C3F3032369
:100338000E4AD35C03F01F03D8408B6903F00F0308
:10034800D35C03F01F0320FA03F3094A1360094B37
:1003580018600020FFF7BCFF10B10124204610BD33
:10036800044603F0E9FDF9E700440258E8500008A4
:100378003800002034000020034B1B78034A116822
:100388000B441360704700BF000000203C010020B0
:10039800014B1868704700BF3C01002038B504467F
:1003A800FFF7F6FF0546B4F1FF3F02D0044B1B7878
:1003B8001C44FFF7EDFF401BA042FAD338BD00BF35
:1003C80000000020014B1868000C70470010005C0A
:1003D8000649CB6823F4E0631B041B0C000200F4FD
:1003E800E0600343024A1A43CA60704700ED00E028
:1003F8000000FA0530B4154BDB68C3F30223C3F1E0
:100408000704042C28BF04241D1D062D14D9033B02
:100418004FF0FF3505FA04F421EA0401994005FA82
:1004280003F322EA03031943002807DB0901C9B2D1
:10043800074B195430BC70470023E9E700F00F0060
:100448000901C9B2034B1954F4E700BF00ED00E0FD
:1004580000E400E014ED00E0002807DB00F01F02D4
:10046800400901239340024A42F82030704700BFF8
:1004780000E100E00138B0F1807F0AD2064B5860F5
:10048800064AF02182F823100020986007221A609B
:1004980070470120704700BF10E000E000ED00E069
:1004A80030B4446B0268D2F884106F4B194041EAAB
:1004B8008401C2F884100268D2F8841021F47F0104
:1004C800856B41EA0541C2F88410826B22440468B6
:1004D800D4F88810194041EA8201C4F888100468E9
:1004E800D4F8881021F4FE01C56B41EA0541C4F82F
:1004F8008810C16B02EB41020468D4F8A0101940BF
:1005080041EA8201C4F8A0100468D4F8A01021F4CC
:10051800FE01056C41EA0541C4F8A010046C416C69
:1005280001FB04240268D2F8B010194041EA8401A2
:10053800C2F8B0100268D2F8B01021F4FE01856C40
:1005480041EA0541C2F8B010826CC16C01FB02445B
:100558000268D2F8AC10194041EA8401C2F8AC1024
:10056800026D416D01FB02420468D4F8F010194095
:1005780041EA8201C4F8F0100468D4F8F01021F4BC
:100588007C11856D41EA0541C4F8F010816D02EBDC
:1005980041020468D4F8C0100B4043EA8202C4F850
:1005A800C0200268D2F8C03023F47C13C16D43EA3E
:1005B8000143C2F8C0300268D2F8C03023F07C533F
:1005C800016E43EA0163C2F8C030436B274A1A44FC
:1005D8009200C266836B02EB83030367C16B03EB74
:1005E800C1034367046C416C01FB04F103EB810315
:1005F8008367846CC16C01FB04F103EB8103C3675F
:10060800046D416D01FB04F103EB8103C0F88030F8
:10061800816D03EBC103C0F88430C46D856E05FBA2
:1006280004F403EB8403C0F88830016E01FB05F184
:1006380003EB8103C0F890300D498B420DD9D0F8F7
:100648009C3043F02003C0F89C30032380F8983096
:10065800012007E0002342F8043BD0F89030934291
:10066800F8D8002030BC70470300FFFF002B0010B3
:10067800FCD30040F0B44C68E4B90E698C6826439A
:100688000C6846EA84460D6ACC6944EA05648D69BB
:100698002C434D692C43CD682C43D0F88470806E70
:1006A80003FB00F307EB830547F823606C6008350C
:1006B800002015E00E698C6826430C68264346F036
:1006C8008046E0E71418E678A3781B0443EA06633B
:1006D800647843EA0423145C234345F8043B04305C
:1006E800CB89034CE35C8342ECD8F0BC704700BF75
:1006F8006450000830B595B004464C22A04901A8C2
:1007080004F0DCFB002C00F0388123689D4A9342FA
:1007180020D094F898300BB32268936923F0100323
:100728009361FFF735FE054623689A6912F0080FB2
:100738001AD0FFF72DFE401B0A28F5D9D4F89C30B3
:1007480043F00103C4F89C30032384F89830012057
:1007580015B030BD03F580736360DAE784F899302B
:10076800204603F0FBFBD7E79A6942F001029A6141
:10077800FFF70EFE054623689A6912F0010F0FD1A4
:10078800FFF706FE401B0A28F5D9D4F89C3043F041
:100798000103C4F89C30032384F898300120D7E77C
:1007A8009A6942F002029A61237C012B40D02268A8
:1007B800936943F040039361637C012B3ED0226828
:1007C800936923F480439361A37C012B3CD0226876
:1007D800936943F4805393612268936923F44073C7
:1007E800A1680B4393612268936923F0A403936182
:1007F8002268136923F010031361E368012B29D0E1
:10080800002B2CD0022B00F09B802268936943F0C8
:10081800800393612268136943F010031361E3684E
:10082800032B1CD12268936943F02003936116E0DF
:100838002268936923F040039361BDE722689369B6
:1008480043F480439361BFE72268936923F480539C
:100858009361C1E72268936943F004039361A36934
:100868005A1EE369013B1B0243EA4263226A013ACA
:1008780013436269013A216843EA0243CB61A368E2
:10088800B3F5407F62D0236E33B12268D2F8C0300E
:10089800616E0B43C2F8C030E36D226ED3420DD0B7
:1008A8002168D1F8C83023F00703A26E14A800EB22
:1008B800820252F84C2C1343C1F8C830236C6BB138
:1008C8002168D1F8BC3023F00703626C14A800EB50
:1008D800820252F84C2C1343C1F8BC30A36C73B19C
:1008E8002168D1F8BC3023F07003E26C14A800EB47
:1008F800820252F84C2C43EA0213C1F8BC30236D33
:1009080073B12168D1F8BC3023F4E063626D14A898
:1009180000EB820252F84C2C43EA0223C1F8BC30A7
:100928002268184B9A4222D00023C4F89430C4F8A5
:100938009C30012384F898302046FFF7B1FD07E783
:100948002268936943F02003936188E7A36A013B17
:10095800E26A013A43EA0223226B013A43EA0213AC
:10096800626A013A216843EA0243CB608BE7626816
:10097800936823F003039360D6E70120E8E600BFFD
:100988007450000800A0004090F89830013BDBB29A
:10099800012B07D9D0F89C3043F00203C0F89C30F3
:1009A80001207047CB680A68D2B9072B0ED08A6835
:1009B800DB0643EA82730A6943EA02434A6913433E
:1009C800C26E496842F82130002070470A69CB6935
:1009D8001B0243EA02438A69134343F06053EFE77B
:1009E80010B40A6942EA4372072B0ED08C684B692F
:1009F80043EA8473006F496800EBC10440F8312072
:100A0800636000205DF8044B70478B69F2E790F84B
:100A18009830DBB2012B07D0D0F89C3043F00403A8
:100A2800C0F89C3001207047036842EA01229A64AA
:100A38000020704790F89830DBB2012B07D0D0F82F
:100A48009C3043F00403C0F89C30012070470268D2
:100A5800D36843F40003D3600020704790F89830BF
:100A6800DBB2012B07D0D0F89C3043F00403C0F868
:100A78009C3001207047022380F8983002689369FF
:100A880023F0010393610023C0F89C301846704797
:100A980038B590F89830DBB2022B07D0D0F89C30EC
:100AA80043F00803C0F89C30012038BD0368D3F830
:100AB800C04014F07C5F0CD0D3F8C44014F4001F7D
:100AC8000FD0D0F89C3043F40073C0F89C3001205C
:100AD800EBE7D0F89C3043F02003C0F89C300120AD
:100AE800E3E70546D3F8C440C4F304442346FFF7BC
:100AF800C1FD2A680123A340C2F8D030C5F894305C
:100B08000020D2E7F0B490F89840E4B2022C08D064
:100B1800D0F89C3043F00803C0F89C300120F0BCAA
:100B28007047402939D0412964D0046D8C4240F285
:100B38008E80C46F456D01FB05F504EB85044FF00D
:100B4800000C256805F080455560002D40F0878031
:100B58002568C5F38A451560256805F00055956038
:100B6800256805F000451561A588D561656805F417
:100B78007025D560656805F480155561656805F4CC
:100B880000159561E57905F07F0515626568ED0F3B
:100B9800556204F10805002469E00468D4F8A050FF
:100BA80015F4FE0F16D0D4F8A45015F07F0F19D005
:100BB800D4F8A45015F0807F01D0D4F8A050D4F810
:100BC800A440C4F3052C446F456C0CFB05F504EBFD
:100BD8008504B6E7D0F89C3043F02003C0F89C3079
:100BE80001209CE7D0F89C3043F48073C0F89C3017
:100BF800012094E70468D4F8B05015F4FE0F16D01D
:100C0800D4F8B45015F07F0F19D0D4F8B45015F0BB
:100C1800807F01D0D4F8B050D4F8B440C4F3052C88
:100C2800846FC56C0CFB05F504EB850489E7D0F8E7
:100C38009C3043F02003C0F89C3001206FE7D0F8C7
:100C48009C3043F48073C0F89C30012067E7D0F8EB
:100C58009C3043F02003C0F89C3001205FE72568F2
:100C680025F06045156077E72E5D1E550134D6895D
:100C7800124FBE5DA642F7D840290BD041290ED0AD
:100C88001F2911D80268012303FA01F1C2F898104C
:100C9800002044E70368C3F8A8C000203FE70368C2
:100CA800C3F8B8C000203AE701F01F010268012329
:100CB80003FA01F1C2F89C10002030E764500008E4
:100CC800402905D00368D3F8B40000F07F007047CE
:100CD8000368D3F8A40000F07F00704790F89830BC
:100CE800013BDBB2012B07D9D0F89C3043F002035B
:100CF800C0F89C300120704710B403689C6D0C420A
:100D080024D1DC6D44F00104DC6511F4007F05D0CA
:100D18000468D4F8E0301343C4F8E03011F4806F6D
:100D280005D00468D4F8E4301A43C4F8E420006815
:100D3800436D0C4A0A40134343650B4A536943EA1F
:100D48009171516100205DF8044B70479C6D31EA48
:100D5800040402D00324DC65D7E7DC6D44F0020408
:100D6800DC65D2E7FFFFCF3F00A80040704770471F
:100D780070477047704770477047704770477047B3
:100D880070477047704770472DE9F0470446954B08
:100D98001A695B694FEA837A0AEA827A03681A6DEC
:100DA80002F470495A6D09EA02091A6D02F00F0837
:100DB8005A6D08EA02081F6D07F0F0075A6D1740D0
:100DC8001D6D05F071555A6D15401E6D06F0607663
:100DD8005A6D16405A6D12F4807F03D01A6D12F4C2
:100DE800807F78D123685A6D12F4806F03D01A6D12
:100DF80012F4806F78D1BAF1000F40F08480B9F115
:100E0800000F40F08C80B8F1000F40F09480002F64
:100E180040F09D8023685A6D12F4006F04D01A6D5B
:100E280012F4006F40F09D8023685A6D12F4007F21
:100E380004D01A6D12F4007F40F09D8023685A6D2B
:100E480012F4002F04D01A6D12F4002F40F0A28083
:100E580023685A6D12F4803F04D01A6D12F4803F53
:100E680040F0A28023685A6D12F4802F04D01A6DC6
:100E780012F4802F40F0A28023685A6D12F4003FCC
:100E88000FD01A6D12F4003F0BD04FF400321A65E0
:100E9800544B00221A61D4F89C3043F08003C4F804
:100EA8009C30002E40F094804DB123681D65AA0F38
:100EB8004C4B1A61D4F89C301D43C4F89C502268EE
:100EC800494B9A4200F09280D4F89C30002B40F0B5
:100ED800ED80BDE8F0874FF480721A65414B00221F
:100EE8001A61FFF74AFF7DE7D3F8DC10D3F8E42056
:100EF8004FF4806018653B4B002018611140204674
:100F0800FFF738FF77E7236800221A654FEA9A72DD
:100F1800344B1A6151462046FFF728FF6FE72368D4
:100F2800C3F850904FEA99722E4B1A6149462046F1
:100F3800FFF71DFF67E72368C3F850804FEA9872F0
:100F4800284B1A614146204602F002FD5FE72368FC
:100F58001F65BA0F234B1A6139462046FFF708FF71
:100F680058E74FF400621A651E4B00221A612046AA
:100F7800FFF7FFFE58E7D3F8D810D3F8E0204FF476
:100F880000701865174B002018611140204602F0C8
:100F9800F2FC53E74FF400221A65124B00221A6143
:100FA800204602F0E4FC53E74FF480321A650D4BFB
:100FB80000221A612046FFF7DEFE53E74FF4802235
:100FC8001A65084B00221A612046FFF7D5FE53E741
:100FD80023681E65B20F034B1A6131462046FFF79E
:100FE800CEFE61E700A8004000A0004063689A6850
:100FF80012F0030F3FF468AF196A01F00F015A6A43
:10100800186A00F03008586A08EA00081F6A07F4EE
:10101800C077586A07401E6A06F4FC46586A0640BC
:101028001D6A05F4F025586A054011401FD1B8F132
:10103800000F21D163685A6A12F0400F03D01A6A70
:1010480012F0400F20D157BB36B163681E62D4F846
:101058009C301E43C4F89C60002D3FF435AF636894
:101068001D62D4F89C301D43C4F89C502CE71962CB
:101078002046FFF785FEDAE76368C3F8208041461B
:101088002046FFF77EFED5E7D96BDA6B4020186261
:1010980002F03F02090C2046FFF774FED3E76368AD
:1010A8001F6239462046FFF76EFECDE72046FFF760
:1010B80065FE0EE7F0B583B000233AE0092400E0AE
:1010C8000024B4403C4302356E4E46F825406E4C31
:1010D8002568D44304EA05064F6817F4803F01D019
:1010E80042EA0506684D2E606E6804EA06054F68F8
:1010F80017F4003F01D042EA0605634E75604FF0D1
:10110800B0452D6804EA05064F6817F4801F01D022
:1011180042EA05064FF0B0452E606D682C404E68D7
:1011280016F4001F01D042EA05044FF0B0425460A3
:1011380001330A6832FA03F400F0A28001249C40CB
:101148002240F5D04D686E1E112D18BF012E01D911
:10115800122D12D186685F000325BD4026EA0506D8
:10116800CD68BD4035438560466826EA04064D686B
:10117800C5F300149C4034434460C6685F000325EF
:10118800BD40EC4326408D68BD403543C5604D6881
:10119800122D18BF022D13D1DE08083650F826E0AC
:1011A80003F007054FEA850C0F2505FA0CF52EEA22
:1011B800050E0D6905FA0CF545EA0E0540F82650AE
:1011C800056825404C6804F00304BC402C430460C7
:1011D8004C6814F0805FABD02C4CD4F8F45045F038
:1011E8000205C4F8F450D4F8F44004F00204019461
:1011F800019C9D08AE1C234C54F8267003F0030490
:10120800A6000F24B44027EA0407214CA0423FF46B
:1012180057AF04F58064A04222D004F58064A04250
:1012280020D004F58064A0421ED004F58064A0425A
:101238001CD004F58064A0421AD004F58064A04252
:1012480018D004F58064A04216D004F58064A0424A
:1012580014D004F58064A0423FF430AF0A2430E78C
:1012680001242EE702242CE703242AE7042428E794
:10127800052426E7062424E7072422E7082420E794
:1012880003B0F0BD00040058800000580044025824
:101298000000025812B909048161704781617047E2
:1012A800134BDB6813F0040F07D1114BDB6803F015
:1012B800070383421AD00120704710B50C4AD3683F
:1012C80023F007031843D060FFF762F80446084B81
:1012D8005B6813F4005F07D1FFF75AF8001BB0F5FD
:1012E8007A7FF4D9012000E0002010BD002070476B
:1012F80000480258002800F00C8338B504460368FB
:1013080013F0010F25D09D4A136903F03803926A40
:10131800102B15D0182B0FD06368B3F5803F3FD042
:10132800002B53D1954B1A6822F480321A601A6840
:1013380022F480221A6038E002F00302022AEBD17C
:101348008E4B1B6813F4003F03D06368002B00F03A
:10135800E282236813F0020F00F08B80874A13693A
:10136800926A13F038035AD0182B55D0E368002B33
:1013780000F0C88081490A6822F0190213430B6003
:10138800FFF706F805467D4B1B6813F0040F40F085
:101398009780FEF7FDFF401B0228F4D90320BFE227
:1013A800764A136843F48033136063682BB3FEF7FF
:1013B800EFFF0546714B1B6813F4003FC9D1FEF7D8
:1013C800E7FF401B6428F5D90320A9E2B3F5A02F55
:1013D80009D06A4B1A6822F480321A601A6822F41B
:1013E80080221A60E1E7654B1A6842F480221A608D
:1013F8001A6842F480321A60D7E7FEF7C9FF05463B
:101408005E4B1B6813F4003FA3D0FEF7C1FF401BDF
:101418006428F5D9032083E212F0030FA6D1574BB5
:101428001B6813F0040F03D0E368002B00F07582EB
:10143800FEF7C8FF41F20303984212D82269402AF6
:1014480007D04E494B6823F47C3343EA02334B60A0
:101458000FE04A4A536823F47C3343F40033536063
:1014680007E0464A536823F0FE43216943EA0163D3
:101478005360236813F0100F00F08A803F4A136905
:1014880003F03803926A082B54D0182B4ED0E36926
:10149800002B00F0BA80394A136843F080031360C8
:1014A800FEF776FF0546354B1B6813F4807F40F046
:1014B8008A80FEF76DFF401B0228F4D903202FE233
:1014C800FEF780FF41F20303984212D82269402AAE
:1014D80007D02A494B6823F47C3343EA02334B6034
:1014E800C7E7264A536823F47C3343F40033536038
:1014F800BFE7224A536823F0FE43216943EA0163A8
:101508005360B6E71D4A136823F001031360FEF722
:101518003FFF0546194B1B6813F0040FA9D0FEF7CF
:1015280037FF401B0228F5D90320F9E102F0030236
:10153800012AACD1114B1B6813F4807F04D0E369F6
:10154800802B01D00120EBE1FEF73CFF41F20303C1
:10155800984215D8226A202A07D008494B6823F0F8
:10156800F84343EA82634B6012E0044A536823F06D
:10157800F84343F0804353600AE000BF0044025838
:101588009A4AD36823F07C53216A43EA0163D36003
:10159800236813F0080F60D06369002B49D0934A81
:1015A800536F43F001035367FEF7F2FE05468F4B76
:1015B8005B6F13F0020F50D1FEF7EAFE401B0228C2
:1015C800F5D90320ACE1FEF7FDFE41F20303984292
:1015D80012D8226A202A07D084494B6823F0F8439E
:1015E80043EA82634B60D3E7804A536823F0F843A9
:1015F80043F080435360CBE77C4AD36823F07C53A5
:10160800216A43EA0163D360C2E7784A136823F08A
:1016180080031360FEF7BCFE0546744B1B6813F489
:10162800807FB5D0FEF7B4FE401B0228F5D9032011
:1016380076E16E4A536F23F001035367FEF7A8FE65
:1016480005466A4B5B6F13F0020F06D0FEF7A0FE4B
:10165800401B0228F5D9032062E1236813F0200F0C
:1016680029D0A3699BB1614A136843F4805313607E
:10167800FEF78EFE05465D4B1B6813F4005F1AD11A
:10168800FEF786FE401B0228F5D9032048E1574A99
:10169800136823F480531360FEF77AFE0546534B14
:1016A8001B6813F4005F06D0FEF772FE401B022889
:1016B800F5D9032034E1236813F0040F21D1636ABC
:1016C800002B00F02C81494A126902F03802182ACE
:1016D80000F0EE80022B75D0444A136823F0807323
:1016E8001360FEF755FE0446404B1B6813F0007F5D
:1016F80000F0DC80FEF74CFE001B0228F4D9032022
:101708000EE13B4A136843F480731360FEF740FE12
:101718000546374B1B6813F4807F06D1FEF738FE69
:10172800401B6428F5D90320FAE0A368012B0AD0EE
:101738000BBB2E4B1A6F22F001021A671A6F22F0A8
:1017480004021A6704E0294A136F43F00103136780
:10175800A36833B3FEF71CFE0546244B1B6F13F03A
:10176800020FACD1FEF714FE401B41F288339842B9
:10177800F3D90320D4E0052B09D01C4B1A6F22F0B3
:1017880001021A671A6F22F004021A67E0E7174B82
:101798001A6F42F004021A671A6F42F001021A67C0
:1017A800D6E7FEF7F5FD0546104B1B6F13F0020F49
:1017B80085D0FEF7EDFD401B41F288339842F3D9FE
:1017C8000320ADE0094A136823F080731360FEF725
:1017D800DFFD0546054B1B6813F0007F0AD0FEF7B6
:1017E800D7FD401B0228F5D9032099E00044025890
:1017F800004802584E4B996A4E4A0A40A16AE06A6C
:1018080041EA00110A439A62226B013AC2F30802C4
:10181800616B0139490289B20A43A16B0139090494
:1018280001F4FE010A43E16B0139090601F0FE41AA
:101838000A431A63DA6A22F00102DA62596B3E4AF5
:101848000A40A16C42EAC1025A63DA6A22F00C0229
:10185800216C0A43DA62DA6A22F00202616C0A43F6
:10186800DA62DA6A42F48032DA62DA6A42F4003220
:10187800DA62DA6A42F48022DA62DA6A42F0010253
:10188800DA621A6842F080721A60FEF781FD044637
:10189800274B1B6813F0007F06D1FEF779FD001B6C
:1018A8000228F5D903203BE0002039E0002037E08A
:1018B8001F4A916A106B012B33D001F00303A26A0F
:1018C800934201D001202BE0C1F30511E36A99424C
:1018D80001D0012024E0C0F30802236B013B9A42A7
:1018E80001D001201CE0C0F34622636B013B9A4201
:1018F80001D0012014E0C0F30642A36B013B9A42D9
:1019080011D1C0F30660E36B013B98420DD0012072
:1019180006E001207047012002E0012000E00020DD
:1019280038BD0120FCE70120FAE70020F8E700BFF6
:10193800004402580CFCFFFF0700FFFF724B1B69B5
:1019480003F03803102B00F0DB80182B10D00BB1FC
:101958006E4870476C4B1B6813F0200F00F0D28064
:10196800694B1868C0F3C100694B23FA00F070474F
:10197800654A916A01F00301906AC0F30510D36AC1
:1019880003F00103526BC2F3CC0203FB02F307EE30
:10199800903AF8EE677A002800F0B580012966D001
:1019A800F9B1022900F08F8007EE100AF8EE476AB5
:1019B8009FED586A86EE267A534B1B6BC3F30803D8
:1019C80006EE903AF8EE666A9FED536A67EE867AFD
:1019D80076EEA77AF7EE006A77EEA67A27EE277AF0
:1019E80061E0494B1B6813F0200F23D046490A6871
:1019F800C2F3C102464BD34007EE103AF8EE476AED
:101A080007EE100AB8EE476A86EE867A0B6BC3F3C8
:101A1800080306EE903AF8EE666A9FED3F6A67EEB5
:101A2800867A76EEA77AF7EE006A77EEA67A27EE40
:101A3800277A38E007EE100AF8EE476A9FED376A12
:101A480086EE267A304B1B6BC3F3080306EE903AFA
:101A5800F8EE666A9FED306A67EE867A76EEA77AC8
:101A6800F7EE006A77EEA67A27EE277A1BE007EEF4
:101A7800100AF8EE476A9FED276A86EE267A224B0F
:101A88001B6BC3F3080306EE903AF8EE666A9FED07
:101A9800226A67EE867A76EEA77AF7EE006A77EE24
:101AA800A67A27EE277A184B1B6BC3F3462301331C
:101AB80007EE903AF8EE677AC7EE276AFCEEE67A08
:101AC80017EE900A704707EE100AF8EE476A9FED86
:101AD800146A86EE267A0C4B1B6BC3F3080306EEDA
:101AE800903AF8EE666A9FED0C6A67EE867A76EEB3
:101AF800A77AF7EE006A77EEA67A27EE277AD2E77A
:101B080008487047024870470044025800093D00E1
:101B18000090D0030024744A000000390024744C5B
:101B28000024F44A00127A00002800F036810346A7
:101B38009C4A126802F00F028A420CD29948026845
:101B480022F00F020A430260026802F00F028A4282
:101B580001D00120704770B51A6812F0040F0CD03C
:101B68001869914A926902F07002904205D98E4C28
:101B7800A26922F070021043A0611A6812F0080FDF
:101B88000CD05869884AD26902F07002904205D98F
:101B9800854CE26922F070021043E0611A6812F085
:101BA800100F0CD09869804AD26902F4E062904222
:101BB80005D97D4CE26922F4E0621043E0611A68BD
:101BC80012F0200F0CD0D869774A126A02F070021E
:101BD800904205D9744C226A22F0700210432062A8
:101BE8001A6812F0020F0CD0D8686F4A926902F096
:101BF8000F02904205D96C4CA26922F00F021043E3
:101C0800A0611C460D461B6813F0010F41D0664ABF
:101C1800936923F47063A1680B4393616368022B93
:101C28000AD0032B27D0012B2CD05F4A126812F060
:101C3800040F06D10120AFE0126812F4003F00F053
:101C4800AE8059490A6922F0070213430B61FEF777
:101C58009FFB0646544B1B6903F038036268B3EBDD
:101C6800C20F16D0FEF794FB801B41F288339842CE
:101C7800F0D9032090E04C4A126812F0007FE0D1BE
:101C8800012089E0484A126812F4807FD9D10120E6
:101C980082E0236813F0020F0CD0E268424B9B6984
:101CA80003F00F039A4205D23F498B6923F00F03D3
:101CB8001A438A613B4B1B6803F00F03AB420CD9F4
:101CC800384A136823F00F032B431360136803F09B
:101CD8000F03AB4201D001205EE0236813F0040F2C
:101CE8000CD02269304B9B6903F070039A4205D2ED
:101CF8002D498B6923F070031A438A61236813F016
:101D0800080F0CD06269284BDB6903F070039A4214
:101D180005D22549CB6923F070031A43CA612368A9
:101D280013F0100F0CD0A2691F4BDB6903F4E063BA
:101D38009A4205D21C49CB6923F4E0631A43CA616D
:101D4800236813F0200F0CD0E269174B1B6A03F0CD
:101D580070039A4205D214490B6A23F070031A43A0
:101D68000A62FFF7EBFD10498B69C3F303230F4A9F
:101D7800D35C03F01F03D8408B6903F00F03D35CD7
:101D880003F01F0320FA03F3094A1360094B186094
:101D9800094B1868FEF79CFA70BD012070470120B6
:101DA800FAE700BF0020005200440258E85000083B
:101DB800380000203400002004000020404B9B6ABB
:101DC80003F00303032B79D070B50E4604463C4A52
:101DD800136823F080631360FEF7DAFA0546384B80
:101DE8001B6813F0006F06D0FEF7D2FA401B0228DA
:101DF800F5D9032070BD324B9A6A22F47C322168EF
:101E080042EA01329A626268013AC2F30802A168A2
:101E18000139490289B20A43E1680139090401F428
:101E2800FE010A4321690139090601F0FE410A430E
:101E38009A63DA6A22F0C00261690A43DA62DA6AEE
:101E480022F02002A1690A43DA62DA6A22F010025B
:101E5800DA62D96B1B4A0A40E16942EAC102DA63D5
:101E6800DA6A42F01002DA62C6B91A46DB6A43F44B
:101E78000023D362124A136843F080631360FEF7AD
:101E880087FA04460E4B1B6813F0006F14D1FEF757
:101E98007FFA001B0228F5D90320ABE7012E05D0F5
:101EA800074AD36A43F40013D362E3E7044AD36AC8
:101EB80043F48013D362DDE700209BE701207047DD
:101EC800004402580700FFFF404B9B6A03F00303DE
:101ED800032B79D070B50E4604463C4A136823F0AC
:101EE80080531360FEF754FA0546384B1B6813F00D
:101EF800005F06D0FEF74CFA401B0228F5D90320F4
:101F080070BD324B9A6A22F07C72216842EA015213
:101F18009A626268013AC2F30802A168013949026B
:101F280089B20A43E1680139090401F4FE010A4350
:101F380021690139090601F0FE410A431A64DA6A87
:101F480022F4406261690A43DA62DA6A22F40072B2
:101F5800A1690A43DA62DA6A22F48072DA62596C99
:101F68001B4A0A40E16942EAC1025A64DA6A42F449
:101F78008072DA62C6B91A46DB6A43F48003D36218
:101F8800124A136843F080531360FEF701FA0446BF
:101F98000E4B1B6813F0005F14D1FEF7F9F9001B14
:101FA8000228F5D90320ABE7012E05D0074AD36AEA
:101FB80043F08073D362E3E7044AD36A43F400032F
:101FC800D362DDE700209BE70120704700440258F8
:101FD8000700FFFFF8B50446036813F0006F2BD025
:101FE800436EB3F5801F18D007D9B3F5001F1DD075
:101FF800B3F5401F2ED1002506E05BBB934AD36A98
:1020080043F40033D3620025904A136D23F4401340
:10201800616E0B431365002610E002210430FFF7C0
:10202800CDFE0546002DEFD02E4607E002212430D4
:10203800FFF74AFF0546F5E700263546236813F4FF
:10204800807F17D0636D042B32D8DFE803F00624B5
:102058002A0B0B0001263546F0E77C4AD36A43F485
:102068000033D3623DBB794A136D23F00703616DDA
:102078000B431365236813F4007F33D0A36D802BC3
:1020880044D01AD80BB3402B1CD10021201DFFF7D8
:1020980095FE05461EE00021201DFFF78FFE054630
:1020A800E0E7002104F12400FFF70EFF0546D9E719
:1020B80001263546DEE72E46DCE7C02B0AD0B3F50D
:1020C800807F07D0012635460CE0604AD36A43F486
:1020D8000033D3620DBB5D4A136D23F4E073A16D29
:1020E8000B431365236813F4806F2FD0D4F8A43002
:1020F800B3F5800F3ED012D8D3B1B3F5001F14D179
:102108000021201DFFF75AFE054616E0002104F1C4
:102118002400FFF7D9FE0546DCE72E46E2E7B3F5D3
:10212800C00F0AD0B3F5000F07D0012635460DE0E1
:10213800464AD36A43F40033D36215BB434A936DCE
:1021480023F46003D4F8A4100B439365236813F4B5
:10215800006F2FD0D4F8A830B3F1007F37D012D851
:10216800D3B1B3F1807F14D10021201DFFF726FEE3
:10217800054616E0002104F12400FFF7A5FE0546F8
:10218800DBE72E46E2E7B3F1407F0AD0B3F1806F78
:1021980007D0012635460DE02C4AD36A43F40033B4
:1021A800D362DDB9294A936D23F0E063D4F8A8100F
:1021B8000B439365236813F0007F2AD0A36C102B80
:1021C80012D00DD9202B1DD0302B12D009E00021C0
:1021D80004F12400FFF778FE0546E2E72E46E9E71A
:1021E8003BB10126354614E0184AD36A43F400335C
:1021F800D3626DB9154AD36C23F03003A16C0B433D
:10220800D36406E00221201DFFF7D8FD0546F0E75C
:102218002E46236813F4805F27D0E36DB3F5005F83
:102228003ED009D8A3B1B3F5805F0BD10021201DA2
:10223800FFF7C4FD054610E0B3F5405F0DD0B3F5D8
:10224800804F0AD0012635460FE000BF00440258EF
:10225800934AD36A43F40033D36245BB904A136D63
:1022680023F4E043E16D0B431365236813F4005F27
:1022780033D0236EB3F5003F27D01AD83BB1B3F55E
:10228800803F1FD10121201DFFF798FD05461DBB8A
:10229800834A136D23F4E023216E0B4313651CE07E
:1022A800002104F12400FFF70FFE0546D5E72E466E
:1022B800DBE7B3F5802FEAD0B3F5A02FE7D0B3F56D
:1022C800403FE4D00126354607E0012104F124000F
:1022D800FFF7FAFD0546DAE72E46236813F4804F28
:1022E8002CD0D4F8AC30B3F1005F1FD012D83BB17A
:1022F800B3F1805F17D10121201DFFF75FFD05466F
:10230800DDB9674A936D23F0E043D4F8AC100B4372
:10231800936513E0B3F1804FF2D0B3F1A04FEFD043
:10232800B3F1405FECD00126354607E0012104F106
:102338002400FFF7C9FD0546E2E72E46236813F49B
:10234800004F1FD0E36EB3F1805F06D0B3F1005F9A
:1023580011D03BB10126354614E0514AD36A43F403
:102368000033D3626DB94E4A136D23F04053E16ECA
:102378000B43136506E00121201DFFF71FFD0546ED
:10238800F0E72E46236813F0807F1ED0636C032B82
:1023980017D8DFE803F007021007414AD36A43F46D
:1023A8000033D36285B93E4AD36C23F00303616CD2
:1023B8000B43D36409E00221201DFFF7FFFC05460B
:1023C800F0E70126354600E02E46236813F4800F17
:1023D8001FD1236813F0010F00F09E80A36F282BF4
:1023E80000F29680DFE803F0849494949494949493
:1023F8007F949494949494948D94949494949494B1
:1024080084949494949494948494949494949494A4
:102418008400244A136843F480731360FDF7B8FFFF
:102428000746204B1B6813F4807F05D1FDF7B0FFEA
:10243800C01B6428F5D90325002D50D1184B1B6FFC
:10244800D4F8B020534013F4407F0CD0144B1A6FCB
:1024580022F44072196F41F480311967196F21F421
:10246800803119671A67D4F8B030B3F5807F1BD074
:10247800002D36D1D4F8B03003F44072B2F5407F65
:1024880023D0074A136923F47C53136104490B6F63
:10249800D4F8B020C2F30B0213430B6799E700BFCF
:1024A8000044025800480258FDF772FF0746AC4B3B
:1024B8001B6F13F0020FDBD1FDF76AFFC01B41F25F
:1024C80088339842F3D90325D2E7A548026922F454
:1024D8007C52A44901EA131313430361D6E72E463D
:1024E80077E72E4675E70121201DFFF767FC0546B3
:1024F8008DB99B4A536D23F03803A16F0B43536585
:102508000AE0012104F12400FFF7DEFC0546EFE7AD
:102518000126354600E02E46236813F0020F20D02E
:10252800636F052B19D8DFE803F0080311080808C2
:102538000121201DFFF742FC05468DB9884A536DDD
:1025480023F00703616F0B4353650AE0012104F18F
:102558002400FFF7B9FC0546EFE70126354600E001
:102568002E46236813F0040F22D0D4F89030052BA0
:102578001AD8DFE803F00803120808080121201D13
:10258800FFF71CFC054695B9754A936D23F00703C0
:10259800D4F890100B4393650AE0012104F124005C
:1025A800FFF792FC0546EEE70126354600E02E4689
:1025B800236813F0200F2CD0D4F88C30B3F1005FCF
:1025C8001FD012D83BB1B3F1805F17D10021201D75
:1025D800FFF7F4FB0546DDB9614A536D23F0E0438C
:1025E800D4F88C100B43536513E0B3F1804FF2D04D
:1025F800B3F1A04FEFD0B3F1405FECD001263546E0
:1026080007E0022104F12400FFF75EFC0546E2E73B
:102618002E46236813F0400F2CD0D4F89830B3F529
:10262800006F1FD012D83BB1B3F5806F17D10021CE
:10263800201DFFF7C3FB0546DDB9494A936D23F416
:10264800E053D4F898100B43936513E0B3F5805F1B
:10265800F2D0B3F5A05FEFD0B3F5406FECD0012610
:10266800354607E0022104F12400FFF72DFC05465A
:10267800E2E72E46236813F0800F2CD0D4F89C3064
:10268800B3F5804F1FD012D83BB1B3F5005F17D117
:102698000021201DFFF792FB0546DDB9304A936DF6
:1026A80023F46043D4F89C100B43936513E0B3F50F
:1026B800004FF2D0B3F5204FEFD0B3F5C04FECD0B8
:1026C8000126354607E0022104F12400FFF7FCFB50
:1026D8000546E2E72E46236813F0080F0CD0D4F81D
:1026E8008030B3F5805F28D01D4A536D23F44053E2
:1026F800D4F880100B435365236813F0100F0CD0E7
:10270800D4F89430B3F5807F20D0154A936D23F424
:102718004073D4F894100B439365236813F4002F87
:1027280039D0D4F8A030B3F5803F2CD0B3F5003FB2
:102738001FD0CBB1012635462DE0022104F124003B
:10274800FFF7C2FB0028CFD00126CDE7022104F114
:102758002400FFF7B9FB0028D7D00126D5E700BF32
:1027680000440258CFFFFF000021201DFFF726FB81
:1027780005467DB9644A936D23F44033D4F8A0101C
:102788000B43936507E0022104F12400FFF79CFB4B
:102798000546EEE72E46236813F4802F24D0D4F89C
:1027A8008430B3F5001F17D0B3F5401F0AD0B3F536
:1027B800801F02D00126354616E0534AD36A43F4F7
:1027C8000033D3627DB9504A536D23F44013D4F8D3
:1027D80084100B43536507E0012104F12400FFF73F
:1027E80073FB0546EEE72E46236813F4803F14D0AA
:1027F800E36C2BB1B3F5803F23D0012635460CE0BE
:10280800414AD36A43F40033D36205BB3E4AD36CD2
:1028180023F48033E16C0B43D364236813F0005F27
:1028280017D1236813F4003F2DD0E36FB3F5807FF1
:102838001BD017D9B3F5007F1CD0B3F5407F12D158
:1028480018E00221201DFFF7B9FA0546DDE72E46FC
:10285800E3E7022104F12400FFF736FB0028E0D06B
:102868000126DEE733B101260DE0274AD36A43F497
:102878000033D362002D3DD1234A536D23F44073B6
:10288800E16F0B435365236813F4801F06D01E4A7B
:10289800136D23F00043216F0B431365236813F076
:1028A800805F07D0184A136923F48043D4F8B41022
:1028B8000B431361236813F4001F06D0124A136DEB
:1028C80023F08073A16E0B431365236813F0804FC8
:1028D80009D00D4B1A6922F400421A611A69D4F81A
:1028E800B8100A431A612368002B05DB06B10126DC
:1028F8003046F8BD2E46C6E7034AD36C23F0405352
:10290800216D0B43D364F1E70044025808B5FDF785
:1029180045FD08BD0000000038B504460D4610A16D
:10292800D1E90001C4E9000184ED020AC4ED030AFB
:1029380084ED041A6361C4ED061A22779DF81030FD
:102948006377002384F82E3084F82F3084F83030F1
:10295800042001F016FC05602062204638BD00BF47
:10296800182D4454FB21094030B595B00446036A3C
:102978001868002106910591049103910291019133
:10298800237F00938123022200F045FF0120FDF7F9
:1029980005FD217F42F21073012201F5E061206AF2
:1029A80000F0B1FD05464FF47A70FDF7F7FC236A95
:1029B800186800F029FF30B1236A08AA0AA9186824
:1029C80000F087FFF3E7284615B030BD30B589B071
:1029D8000446036A18680021069105910491039141
:1029E80002910191237F00930123022200F013FF3B
:1029F8000120FFF78BFF217F42F21073012201F5BE
:102A0800E061206A00F07FFD05464FF47A70FFF719
:102A18007DFF236A186800F0F7FE0028F9D12846E0
:102A280009B030BD10B582B00446017F062300937B
:102A3800002346F24002006A00F0E3FB3220FFF771
:102A480065FF217F07230093002346F24002206A96
:102A580000F0D7FB3220FFF759FF206A217F0F23B0
:102A68000093002346F2400200F0CBFB012002B0A5
:102A780010BD000070B584B00446017F04230093A4
:102A8800002346F26002006A00F08EFB217F4FF4BB
:102A98007A730093002346F27202206A00F0B1FBB9
:102AA800002504AB43F8045D217F0093012342F223
:102AB8003B02206A00F09BFCD4ED027A9FED217A5C
:102AC80067EE877AFCEEE77ACDED037A217FCDEDCC
:102AD800007A012342F23B02206A00F0F3FB322025
:102AE800FFF714FF217F64230093022342F23B0285
:102AF800206A00F0E7FB3220FFF708FF44F6206366
:102B080004AE46F8083D217F00932B4646F2870223
:102B1800206A00F0D7FB217F00962B4646F28702F9
:102B2800206A00F064FC3220FFF7F0FE206A217F63
:102B380000952B4646F2710200F093FB012004B089
:102B480070BD00BF00007A4410B582B00446017F12
:102B580000F13C030093002342F25A02006A00F09D
:102B680046FCE06B02B010BD10B582B00446436964
:102B7800017F0093012346F28F02006A00F0A2FB56
:102B88000A20FFF7C3FE206A217F01240094022354
:102B980046F28F0200F096FB0A20FFF7B7FE2046A8
:102BA80002B010BD10B582B00446017F00F13803B1
:102BB8000093012346F28F02006A00F018FC206A95
:102BC800217F34340094022346F28F0200F00FFC78
:102BD800012002B010BD30B583B00446017F8623C2
:102BE8000093002346F24002006A00F00AFB054603
:102BF8001D20FFF78BFE236A186800F005FE0028E9
:102C0800F9D1284603B030BD2DE9F04383B004461E
:102C1800017F284B0B44009301234FF4C052006AF4
:102C280000F050FB0546217F234B0B440093012302
:102C380041F60102206A00F045FB8146217F1F4BC7
:102C48000B440093012341F60202206A00F03AFB8C
:102C58000646217F1A4B0B440093012341F60302D9
:102C6800206A00F02FFB0746217F164B0B44009388
:102C780001234FF4A052206A00F024FB8046217FF4
:102C8800114B0B44206A0093012341F2014200F0EA
:102C980019FB45EA090313F0FF0307D146EA0703C6
:102CA80013F0FF0302D148EA0003DBB2184603B071
:102CB800BDE8F083800100808002008080030080EE
:102CC80080040080000200800003008030B583B0DB
:102CD8000446017F06230093002346F24002006A5F
:102CE80000F08FFA05461D20FFF710FE236A1868CA
:102CF80000F08AFD0028F9D1284603B030BD30B570
:102D080095B00446036A186800210691059104915C
:102D1800039102910191237F00938023022200F006
:102D28007AFD0120FFF7F2FD217F42F210730122A4
:102D380001F5E061206A00F0E6FB05464FF47A7081
:102D4800FFF7E4FD236A186800F05EFD30B1236ADE
:102D580008AA0AA9186800F0BCFDF3E7284615B0D0
:102D680030BDF0B583B00446017F01F5C073009310
:102D780001234FF4C052006A00F0A4FA0546217FEF
:102D880001F520730093012341F60102206A00F047
:102D980099FA0746217F01F50073009301234FF448
:102DA800A052206A00F08EFA0646217F01F5407392
:102DB800206A0093012341F2014200F083FA45EAB8
:102DC800070313F0FF0302D146EA0003DBB21846FB
:102DD80003B0F0BDF0B583B00446017F80230093B3
:102DE800002341F20502006A00F06CFA217F0226F6
:102DF800009633464FF4C052206A00F0A8F9217FAC
:102E08000025009503234FF4C052206A00F0F9F919
:102E1800217F0096334641F60102206A00F097F9B7
:102E2800217F0095032341F60102206A00F0E9F9A9
:102E3800217F00952B464FF4D052206A00F087F985
:102E4800217F364B009301234FF4D052206A00F0C3
:102E580039FA217F324B009333464FF4D052206A1F
:102E680000F030FA217F2F4B009303234FF4D05208
:102E7800206A00F027FA217F032300932B464FF4A2
:102E8800D052206A00F063F9217F00952B4641F665
:102E98000122206A00F05BF9217F234B0093012374
:102EA80041F60122206A00F00DFA217F01270097E0
:102EB8002B4641F60122206A00F049F9217F00974C
:102EC80033464FF4A052206A00F041F9217F009761
:102ED800334641F20142206A00F039F9217F00951A
:102EE8002B4641F20162206A00F031F9217F0F4B35
:102EF80000933B4641F20162206A00F0E3F9217F2A
:102F080000972B4641F20162206A00F020F9204622
:102F1800FFF727FF384603B0F0BD00BF100041603F
:102F28000800616020006460100077601000716024
:102F380010B582B00446FFF717FD2046FFF7DFFE05
:102F48002046FFF761FE8DF80700637F13BB20461C
:102F5800FFF7BCFE2046FFF73EFE2046FFF722FEA5
:102F68002046FFF701FE2046FFF7EEFD2046FFF75B
:102F780081FD2046FFF72AFD2046FFF753FD012378
:102F880084F83030637F1BB194F82F3003B10120EF
:102F980002B010BD2046FFF71DFF84F82F00D6E7CA
:102FA80000B583B002469FED187A20EE070AD0EDEF
:102FB800037A80EE276ABDEEC66AD0ED025A65EE46
:102FC800875AFDEEE55A15EE903A5B4207EE103A45
:102FD800B8EEC66BB8EEC77B86FE077BB8EEE56B2E
:102FE80087FE467BBDEEC77B17EE103A1BB2006A20
:102FF800117F0093002346F2710200F032F901209C
:1030080003B05DF804FB00BF00007A4410B582B03D
:103018000446017F00F144030093002346F2640252
:10302800006A00F05CFA606C02B010BD10B504468E
:10303800FFF7ECFF94ED007B37EE077B06EE900A76
:10304800B8EEE66B26EE077B94ED056AB8EE466BA4
:1030580087EE060BB7EEC00B10BDC8B27047080A62
:1030680070472DE9F04188B004461546984601F5A9
:10307800C0661146FFF7F1FF074629462046FFF7CD
:10308800EEFF246800230693059304930393CDF879
:10309800088001900097402308223146204600F01E
:1030A800BAFB08B0BDE8F0812DE9F0419CB00446B8
:1030B800884616461F46229D006800F0A5FB03902F
:1030C80008F5B06302930023019313E0129A089263
:1030D8009DF81A109DF8193003EB01239BB2ADF847
:1030E8000230029B9A421FD00120FDF757F9019B3D
:1030F80001330193019BAB4225D2206800F084FB89
:103108000390039B002BEFD006AA12A9206800F0B9
:10311800E0FB0023072BD9DC1CAA1A4412F8581C20
:1031280002F8601C0133F5E79DF81830802BDBD0DE
:10313800BDF802309BB2B342D6D19DF81B30BB42DA
:10314800D2D1012000E000201CB0BDE8F0812DE9BB
:10315800F04389B004460E4615461F4601F5C0687F
:103168001146FFF77AFF814629462046FFF777FF89
:1031780000230693059304939DF840300393029728
:103188000190CDF800902F2308224146206800F0D6
:1031980042FB032300933B462A4631462046FFF76D
:1031A80083FF09B0BDE8F0832DE9F04389B00446F8
:1031B8000E4615461F4601F5C0681146FFF74DFF3C
:1031C800814629462046FFF74AFF9DF84020002304
:1031D800069305930493039202970190CDF800900B
:1031E8002F2308224146206800F015FB0323009393
:1031F8003B462A4631462046FFF756FF09B0BDE850
:10320800F0832DE9F04788B005460F4616469846E4
:10321800BDF8404001F5C0691146FFF71EFF824620
:1032280031462846FFF71BFFE2B2240A0023069323
:10323800059304940392CDF808800190CDF800A07E
:103248002B2308224946286800F0E5FA0323009357
:103258004346324639462846FFF726FF08B0BDE800
:10326800F0872DE9F04788B005460F461646984680
:10327800BDF9404001F5C0691146FFF7EEFE8246F0
:1032880031462846FFF7EBFEE2B2C4F307240023D9
:103298000693059304940392CDF808800190CDF825
:1032A80000A02B2308224946286800F0B4FA03231B
:1032B80000934346324639462846FFF7F5FE08B0E4
:1032C800BDE8F0872DE9F04788B005460F46164659
:1032D8009846109C01F5C0691146FFF7BEFE82466C
:1032E80031462846FFF7BBFEE3B2C4F30722C4F316
:1032F8000741240E0694059104920393CDF80880A3
:103308000190CDF800A0232308224946286800F040
:1033180082FA032300934346324639462846FFF78C
:10332800C3FE08B0BDE8F0872DE9F0419CB0044623
:10333800884616461F46229D006800F065FA0390ED
:1033480008F5B06302930023019313E0129A0892E0
:103358009DF81A109DF8193003EB01239BB2ADF8C4
:103368000230029B9A421FD00120FDF717F8019BFB
:1033780001330193019BAB4235D2206800F044FA37
:103388000390039B002BEFD006AA12A9206800F037
:10339800A0FA0023072BD9DC1CAA1A4412F8581CDF
:1033A80002F8601C0133F5E79DF81830802BDBD05C
:1033B800BDF802309BB2B342D6D19DF81B30BB4258
:1033C800D2D19DF81F209DF81E301B0403EB026329
:1033D8009DF81D2003EB02239DF81C201344239A1B
:1033E8001360012000E000201CB0BDE8F081F0B5BA
:1033F80083B004460D4616461F46FFF732FE089B6B
:103408000193022300933B46324629462046FFF7A4
:103418008BFF03B0F0BD2DE9F0419EB0044688460D
:1034280016461F46249D006800F0EEF9049008F542
:10343800B06303930023029313E0139A09929DF853
:103448001E109DF81D3003EB01239BB2ADF806302A
:10345800039B9A421FD00120FCF7A0FF029B013377
:103468000293029BAB4236D2206800F0CDF904905B
:10347800049B002BEFD007AA13A9206800F029FAB3
:103488000023072BD9DC1EAA1A4412F85C1C02F888
:10349800641C0133F5E79DF81C30802BDBD0BDF8A8
:1034A80006309BB2B342D6D19DF81F30BB42D2D171
:1034B8000023032B0ADC1A1D1EA90A4412F85C1CFF
:1034C8001EAA1A4402F8041C0133F2E71D9A259B30
:1034D8001A60012000E000201EB0BDE8F081F0B5C0
:1034E80083B004460D4616461F46FFF7BAFD089BF3
:1034F8000193022300933B46324629462046FFF7B4
:103508008AFF03B0F0BD2DE9F0419AB00546884620
:1035180017461E460024059418E003AA10A9286837
:1035280000F0D7F90023072B07DC1AAA1A4412F86F
:103538005C1C02F8641C0133F5E7109B06934345B5
:103548000DD1012010E00120FCF728FFB4420AD277
:10355800286800F059F90590059B002BDDD1002F54
:10356800F1D00134EFE700201AB0BDE8F081000087
:103578002DE9F04F89B00446002303930493059383
:1035880006930793334B1B6873B1226B937801330F
:10359800937000236360A36023616361A361E361A7
:1035A800236209B0BDE8F08FA42000F0EAFD0546CB
:1035B800284A1060A422002101F08BFC2563012712
:1035C8002F70236B00265E70236B9E70224DD5F8FA
:1035D800E03043F00803C5F8E030D5F8E03003F0F8
:1035E80008030193019B4FF00208CDF80C80CDF839
:1035F800108005974FF0030BCDF818B04FF0090A6B
:10360800CDF81CA0DFF8549003A94846FDF752FDF9
:103618000397CDF810800597CDF818B0CDF81CA009
:1036280003A94846FDF746FDD5F8EC3043F480730E
:10363800C5F8EC30D5F8EC3003F480730293029BA4
:10364800324631461320FCF7D5FE1320FCF704FF61
:103658009BE700BFBC00002000440258000C025841
:10366800036B5A7812B91A78012A00D07047F0B55E
:1036780089B004465D4A5A60036B0026DE60036B1E
:103688001E61036B01251D75036B5D75036B9D75CD
:10369800036B04229A61036BDD61036B0D211962D0
:1036A800036B02275F62006B08238361206BC26192
:1036B800206B0162216B4F62216B8D61216BCD61A3
:1036C800206B4FF0050CC0F820C0206B4762206BC0
:1036D8008561206BC561206B0362206B4562206B9E
:1036E8008761206BC5610620216B0862216B4D62E2
:1036F800216B8861206BC361206B0362206B45627C
:10370800206B8261206BC361206B0362206B456272
:10371800206B8561206BC3611F20216B0862206BC1
:103728004362236BC3F818C0236B0721D961236B4D
:103738000A211962236B5D62236B9E63236BDD6331
:10374800236B1E64236B14215964236B9A64236BC7
:10375800DE64236B1A65236B5E65236B9A65236BA6
:10376800DE65236B1D66236B5D66236B9E66236B8C
:10377800DA66206B324639460430FDF748F9206B8B
:10378800324639460430FDF742F9206B0430FDF724
:1037980051F90096019602960395049540F2FF733D
:1037A8000593206B0430FCF7A5FF98B9206B694698
:1037B8000430FDF7E9F880B9206B0430FDF74EF9C5
:1037C80070B9206B002201210430FDF787FA50B947
:1037D80009B0F0BD00F0AEFBE8E700F0ABFBEBE7AB
:1037E80000F0A8FBEDE700F0A5FBF1E700A0004022
:1037F80010B50446FFF7BCFE2046FFF731FF002353
:1038080084F83830204610BD08B5006B40210430DC
:10381800FDF756FA08BD10B504460160082A4FD8CE
:10382800DFE802F0052E32363A3E42464A000022D0
:10383800C26084F824309DF8083084F825309DF85B
:103848000C3084F826309DF8103084F827309DF825
:10385800143084F828309DF8183084F829309DF801
:103868001C3084F82A309DF8203084F82B30206BE7
:1038780004F1240221460430FDF70AF918BB10BDF3
:103888004FF48032C260D4E74FF40032C260D0E710
:103898004FF44032C260CCE74FF48022C260C8E7E0
:1038A8004FF4A022C260C4E74FF4C022C260C0E750
:1038B8004FF4E022C260BCE74FF40022C260B8E7D0
:1038C8000022C260B5E7022384F8253000F032FBFD
:1038D800D5E710B50446006B13460A46402104306C
:1038E800FDF710F940B9206B00224FF40021043095
:1038F800FDF7F4F918B910BD00F01CFBF3E700F070
:1039080019FBF8E700B58DB06B4602AA0021FDF758
:10391800F9F858B90023072B0BDC0CAA1A4412F843
:10392800301C054A1A4411710133F4E700F002FB18
:10393800F0E70DB05DF804FBBC00002008B5034BB0
:10394800186810B10430FDF71FFA08BDBC0000204C
:1039580010B504464021FDF7B3F9002201212046A5
:10396800FDF7BCF900B910BD00F0E4FAFBE708B5B3
:10397800FFF7C8FF08BD08B5FFF7C4FF08BD000082
:10398800F0B52DED028BF9B069A8FFF731FF9FED77
:10399800678A00240094F3EE0E1A42F21073B7EE11
:1039A800001AF0EE480AB0EE000A012269A950A8F0
:1039B800FEF7B2FF50A8FFF7BBFA0094F3EE0E1A19
:1039C80042F21073B7EE001AF0EE480AB0EE000AA1
:1039D800012269A908A8FEF79FFF0094F3EE0E1ACA
:1039E80042F21073B7EE001AF0EE480AB0EE000A81
:1039F800022269A920A8FEF78FFF0094F3EE0E1AA1
:103A080042F21073B7EE001AF0EE480AB0EE000A60
:103A1800032269A938A8FEF77FFF022C54DC04EBC7
:103A28004403580108AB1844FFF782FA0134F4E75D
:103A38000025022D3BDCAF003D4C3C442368E3608D
:103A480005EB45035E0108AB1E443046FFF7EEFA6E
:103A580084ED000AD4ED066AC4ED096A354B1F44AB
:103A6800D7ED007A37EEC00A84ED060AD3ED037A63
:103A780060EE277AC4ED0C7A93ED047A9FED2E6AF6
:103A880027EE067A30EE660A27EE000A84ED0F0A62
:103A98009FED2A7A84ED127A37EE800A30EE070A13
:103AA80084ED150A3046FFF77BFA0135C1E7214B53
:103AB800D3ED057A9FED227A67EE877AFDEEE77AF5
:103AC80017EE900AFCF76AFC02AC1E4B93E807005D
:103AD80084E8070005AC0C3393E8070084E8070086
:103AE8000024022CA4DCFCF753FC07EE900AB8EE85
:103AF800670AA50002AB2B4493ED008A05AB2B4463
:103B0800D3ED007A9FED107A67EE877A67EE807AB8
:103B18009FED0B0A87EE800A00F04CFB28EE000AA6
:103B2800044B2B4483ED000A0134DAE77DC5573F87
:103B3800C8000020080000200000C8420000000063
:103B480000007A44C0500008DB0FC9402DE9F04F4F
:103B58008DB000240794089409940A940B94724B2E
:103B6800D3F8E02042F00402C3F8E020D3F8E020C4
:103B780002F004020092009AD3F8E02042F080029A
:103B8800C3F8E020D3F8E02002F080020192019A05
:103B9800D3F8E02042F00102C3F8E020D3F8E02097
:103BA80002F001020292029AD3F8E02042F00202E7
:103BB800C3F8E020D3F8E02002F002020392039A4F
:103BC800D3F8E02042F00802C3F8E020D3F8E02060
:103BD80002F008020492049AD3F8E02042F040026E
:103BE800C3F8E020D3F8E02002F040020592059ADD
:103BF800D3F8E02042F01002C3F8E020D3F8E03018
:103C080003F010030693069BDFF82C91224644F23A
:103C180001014846FDF73EFBDFF8208122464FF4BC
:103C280080614046FDF736FB224602213F48FDF7FA
:103C380031FB4FF4005BCDF81CB0089409943C4F5D
:103C480007A93846FDF736FA322307930225089567
:103C580009940A940B260B9607A93846FDF72AFA09
:103C680086230793089509940A940B96DFF8D0A049
:103C780007A95046FDF71EFA44F2010307930127EE
:103C8800089709940A9407A94846FDF713FACDF84E
:103C98001CB0089509940A940B9607A94846FDF7A5
:103CA80009FA4FF440730793089509940A94072377
:103CB8000B9307A94046FDF7FDF94FF4806307937E
:103CC800089709940A9407A94046FDF7F3F9802359
:103CD8000793184B0893099408F5406807A94046CC
:103CE800FDF7E8F94FF4C8530793089509940A9427
:103CF8000A230B9307A95046FDF7DCF94FF420532C
:103D08000793089509940A940B9607A94046FDF76E
:103D1800D1F90795089709940A9407A90348FDF76C
:103D2800C9F90DB0BDE8F08F0044025800100258E0
:103D3800000802580000111100040258000C025833
:103D48000000025810B588B0244A40F221331360AD
:103D58000023536093604FF44031D1601361536185
:103D68009361D36113620093019302220292039339
:103D780040F20172049240F2FF720592184C194AFF
:103D88002260A360E36023746374A37401226261F8
:103D9800A2610621E161032121626262A262E262FC
:103DA80022636363A263E3631421216404216164D1
:103DB800A364E16423656165A365E36522666366C0
:103DC800A1662046FCF796FC69462046FCF7DCFD18
:103DD8002046FCF743FE08B010BD00BFF0010020EC
:103DE8004001002000A0004010B5CCB04C220021BA
:103DF80039A801F06EF82022002131A801F069F8F5
:103E0800BC22002102A801F064F80220FDF748FA5C
:103E180000230193254BDA6A22F00102DA62DB6A99
:103E280003F001030193224A936923F4404343F4C6
:103E380080439361936903F440430193019B1C4BB6
:103E48009B6913F4005FFAD00223399301223C9254
:103E580040223D92429300244394042244920B2230
:103E6800459246930322479248930C2249924A93DB
:103E78004FF400634B9339A8FDF73CFA3F23319385
:103E88003294339434943594369437943894214644
:103E980031A8FDF749FE4FF4004302934FF08053D9
:103EA8001D9302A8FEF796F84CB010BD0004005808
:103EB8000048025810B50446012000F0BDF8022061
:103EC80000F0BAF8002000F0B7F8012C07D014B1C0
:103ED800022C08D010BD002000F09EF8FAE701205F
:103EE80000F09AF8F6E7022000F096F8F2E70000F2
:103EF80008B5FCF713FAFFF777FFFFF727FEFFF780
:103F080021FF0B4B08221A70AD225A700020FFF7D0
:103F1800D1FF0120FFF7CEFF0220FFF7CBFF0020E3
:103F2800FFF7C8FF0120FFF7C5FFFFF729FDFCE7F2
:103F3800E00100207047000082B0074BD3F8F4205E
:103F480042F00202C3F8F420D3F8F43003F002037D
:103F58000193019B02B070470044025810B588B025
:103F680000230393049305930693079302681D4B5C
:103F78009A4201D008B010BD1B4BD3F8EC2042F494
:103F88008072C3F8EC20D3F8EC2002F4807201921E
:103F9800019AD3F8E02042F00802C3F8E020D3F8F1
:103FA800E03003F008030293029B032303930224E7
:103FB800049406930923079303A90C48FDF77AF89C
:103FC800002201211320FCF715FA1320FCF744FA0C
:103FD800002221461520FCF70DFA1520FCF73CFAC3
:103FE800C8E700BF00A0004000440258000C025877
:103FF8007047FEE7FEE7FEE7FEE770477047704749
:1040080008B5FCF7B9F908BD08B50248FCF7BCFECD
:1040180008BD00BF4001002008B50122044B33F859
:104028001010044B53F82000FDF734F908BD00BF09
:10403800D85000082400002008B50022044B33F8AB
:104048001010044B53F82000FDF724F908BD00BFF9
:10405800D8500008240000200120704708B500F05F
:10406800FBFE162303604FF0FF3008BD08B54FF084
:10407800FF31FFF7F3FFFEE708B503460B4A126866
:1040880042B10A4A106803446A46934206D8074A6E
:10409800136008BD054A06491160F2E700F0DCFE2E
:1040A8000C2303604FF0FF30F3E700BF2801002026
:1040B80040020020184AD2F8883043F47003C2F84E
:1040C8008830164B1A6842F001021A6000221A6101
:1040D80018681349014019609A61DA611A629A6294
:1040E800DA621A635A639A63DA631A645A6419685B
:1040F80021F4802119601A660A4B1A680A4B13408A
:10410800B3F1005F02D2094B01221A60024B4FF053
:1041180000629A60704700BF00ED00E0004402585A
:104128007FEDF6EA0010005C0000FFFF08810051F7
:10413800DFF834D0002103E00C4B5B5843500431C6
:104148000B480C4B42189A42F6D30B4A02E0002364
:1041580042F8043B094B9A42F9D3FFF7ABFF00F052
:1041680081FEFFF7C5FE704700000220D05400080A
:1041780000000020A0000020A00000204002002035
:10418800FEE710B5002814BF04460124204600F0BD
:104198008DFE30B900F006F808B900F055FE8047EA
:1041A800F4E710BD024B1868BFF35B8F704700BF80
:1041B8003001002000B510EE103A214A23F00043E8
:1041C800934283B01ADDB3F1FF4F04DB30EE400AAF
:1041D80003B05DF804FB684600F036F800F0030011
:1041E800012813D0022820D0B8B1DDED010A9DEDD9
:1041F800000A00F075F9B1EE400AE9E70020DFEDAA
:10420800110A00F017FD03B05DF804FBDDED010AAB
:104218009DED000A00F064F9DAE70120DDED010AFE
:104228009DED000A00F006FDD2E70120DDED010A50
:104238009DED000A00F0FEFCB1EE400AC8E700BFA1
:10424800D80F493F0000000070B510EE103A964AAA
:1042580023F00044944286B0054669DD934A9442AF
:1042680010EE106A1ADC002B24F00F04DFED907AB0
:10427800904A64DD944270EE677A00F0CF809FED3B
:104288008E7A77EEC76A012077EEE67AC5ED006A86
:1042980077EEC77AC5ED017A06B070BD874A9442B9
:1042A80061DDB4F1FF4F80F2B180E215863AA4EBEC
:1042B800C25307EE903ABDEEE77ADFED816AB8EEB9
:1042C800C77A77EEC77A8DED037A67EEA67ABDEEE8
:1042D800E77AB8EEC77A77EEC77A8DED047A67EE9B
:1042E800A67AF5EE407AF1EE10FACDED057A40F0B7
:1042F800C780B5EE407AF1EE10FA0CBF0123022315
:10430800704901910221009103A8294600F06AF939
:10431800002E12DA95ED007AD5ED017AB1EE477AE2
:10432800F1EE677A404285ED007AC5ED017A04E046
:10433800002285ED000A4260002006B070BD94425C
:1043480070EE277A00F089809FED5B7A77EE876AB6
:104358004FF0FF3077EEE67AC5ED006A77EE877AA0
:10436800C5ED017AE9E700F0ADFCDFED576ADFED56
:10437800505A9FED517AF6EE007AE0EE267AFDEE7D
:10438800E77A17EE900AF8EEE76A1F28B1EE666A38
:10439800A6EE250A66EE877A52DD30EE677A17EECA
:1043A800103AE415C3F3C753E31A082B52DDDFEDC7
:1043B800477A9FED477AF0EE405AE6EE275A30EEFC
:1043C800650AA6EE270AF0EE407AD6EE877A35EE31
:1043D800E77A17EE103AC3F3C753E41A192C51DCE5
:1043E80085ED007AB0EE650A30EE470A002E30EE11
:1043F800670A85ED010AA0DAB1EE477AB1EE400A04
:1044080085ED007A85ED010A404296E770EE407A24
:104418000020C5ED017AC5ED007A8EE7DFED2B6A45
:104428009FED2B7A77EEE67A012077EEC76A77EE72
:10443800E67AC5ED006A77EEC77AC5ED017A7CE7C2
:10444800421E244B53F8223024F0FF029A4230EEE9
:10445800677AA4D085ED007AC6E7DFED1C6A9FED88
:104468001C7A77EEA67A4FF0FF3077EE876A77EE00
:10447800E67AC5ED006A77EE877AC5ED017A5CE7E2
:1044880003233DE79FED147A9FED145AB0EE650AB9
:10449800A6EE070A75EEC07AE6EE077AD6EE857ABA
:1044A80030EE677AD6E700BFD80F493FE3CB164016
:1044B800800FC93FD00FC93F43443537800F494368
:1044C800000080437851000884F9223F00443537C2
:1044D80008A3852EF850000800A3852E32318D24BC
:1044E80010EE103A23F00043B3F1485F2CDAFDEEEA
:1044F800C07A17EE903A002B5BD020EE007ADFED01
:10450800314A9FED315ADFED315A9FED316ADFEDC7
:10451800317ADFED316AA7EE245AE7EE055AA7EEA5
:10452800256AE7EE067AE7EE276A66EE876A60EEA6
:10453800C00AB6EE006AE7EE260AF7EE007AD7EE72
:10454800060A37EEE00A704720EE007ADFED1D4AD2
:104558009FED1D5ADFED1D5A9FED1D6ADFED1D7A97
:10456800DFED1D6A1D4AA7EE245A9342E5EE075A6D
:10457800A5EE876AE6EE077AE7EE876A66EE876A4F
:10458800D5DD174A934217DC03F17F4307EE903AD3
:10459800B7EE006A36EE676A60EEC00AF6EE005AB9
:1045A800E7EE260AD7EE257A77EEE07A36EE670A46
:1045B8007047B7EE000A7047B6EE076AF5EE027A62
:1045C800EAE700BF4ED747ADF6740F317CF293B4DB
:1045D800010DD037610BB6BAABAA2A3D9999993E1D
:1045E8000000483F2DE9F04F2DED048BD7B003F1C3
:1045F800FF390293D31E48BF131DB24C649D059129
:10460800DB1023EAE37354F82560039303F10108F0
:10461800A2EBC80816EB09028646A3EB090316D4D9
:104628001A449FEDA97A6598511C1AAA002BA4BFB9
:1046380050F8234007EE904A03F10103ACBFF8EEAF
:10464800E77AF0EE477A8B42E2EC017AEED1029BF0
:10465800002E4FEA83044FEA860A1DDB1AAB1819AD
:1046680043AA7346191902EB0A0742ADF446B9F199
:10467800000FDFED957A09DB02466346F3EC016A29
:1046880032ED017A8B42E6EE877AF7D1E5EC017AD2
:10469800BD4200F10400EAD1AAF1080306ADEB1807
:1046A80004939FED8B9ADFED898A009605ABB3469C
:1046B80074449A4442AF76464FEA8B0156AB0B449A
:1046C800BBF1000F13ED140A16DD07EB8B032A4626
:1046D80060EE097AB0EE407AFDEEE77A73ED016A92
:1046E800F8EEE77ABB42A7EEE87A37EEA60ABDEE07
:1046F800C77AA2EC017AEBD14046019100F030FB79
:10470800B0EE408AB4EE000A28EE000A00F0E2FAA1
:10471800F2EE007AA0EE678AB8F1000F0199FDEE7B
:10472800C89AF8EEE97A38EE678A40F3C4800BF14C
:10473800FF3CC8F1080355F82C2042FA03F000FAB0
:1047480003F3D31A45F82C3019EE90CA8444C8F103
:10475800070209EE90CA43FA02F2002A31DD19EE87
:10476800903ABBF1000F03F1010309EE903A40F3D0
:1047780029822868002840F08680BBF1010F0BD001
:10478800AE464FF0010C5EF8040F0CF1010300284F
:104798007CD19B459C46F6D1B8F1000F0EDDB8F1EF
:1047A800010F00F03281B8F1020F07D10BF1FF3190
:1047B80055F8213003F03F0345F82130022A00F074
:1047C8001281B5EE408AF1EE10FA40F09580009B18
:1047D8000BF1FF3C63450EDC0BF18041013905EB21
:1047E8008101002051F80439514540EA0300F9D10C
:1047F800002840F01381009B013B55F82330002B23
:1048080040F00081049B4FF0010C53F804290CF18F
:10481800010C002AF9D0DC440BF1010EE64530DC2E
:10482800039B029A0EEB03015A4403EB0C0B1AABE1
:1048380001F1804103EB8202659B013903EB8101A1
:1048480007EB8E0E03EB8B0B51F8043F9FED1E7A9E
:1048580007EE903AF8EEE77A1046B9F1000FE0EC6F
:10486800017A09DB334601E072ED017AF3EC016A63
:10487800A342A6EEA77AF7D15945AEEC017A0246D3
:10488800E2D1E34618E701234FF0000CC0F5807031
:104898009B4545F82C000CDD55F82300294405EB11
:1048A800830300E01868C0F1FF0043F8040B8B4253
:1048B800F8D1012070E70FD10BF1FF3355F8232011
:1048C80012124AE7BC5400080000000000008043B0
:1048D8000000803B0000C93FF6EE007AB4EEE78A9C
:1048E800F1EE10FA80F25881B5EE408AF1EE10FA36
:1048F8004FF000023FF46BAFB0EE480AC8F1000079
:104908009146009E00F02CFA1FED107AB4EEC70A0B
:10491800F1EE10FAC0F258815FED137A60EE277A53
:104928000BF10103FDEEE77A08F10808F8EEE77AE3
:10493800A7EEC70AFDEEE77ABDEEC00A10EE102A10
:1049480045F82B2017EE902A45F823204046B7EE6D
:10495800000A009300F004FA009B002BC0F24B8180
:10496800980042AA00F1040C1FED277A1044011D9B
:1049780005EB0C0272ED017AF8EEE77AAA4267EECF
:10498800807A20EE070A61ED017AF3D10DF1B80EB5
:104998001FED306A0546774603F101080024002E12
:1049A800C0F20581A148DFEDA27A2946B0EE467A29
:1049B800002203E0A24208DCB0EC017AF1EC016AC3
:1049C80001329642E6EE877AF4DA01344445E7ECA0
:1049D800017AA5F10405E2D1649A032A53D8DFE8E5
:1049E80002F0CAB6B65BB7EE000A30EE488A002875
:1049F8003FF4E7AE4046019200F0B2F9019A38EE72
:104A0800408ADEE64FF0010C05E70BF1FF3155F85F
:104A1800213003F07F0345F82130CFE6914655F861
:104A28002C20009E6346A8F10808002A8ED10CF1BC
:104A38008042013A05EB820252F80419013BA8F1C1
:104A480008080029F8D081E74A46DFED797A002A7C
:104A580040F0C2809DED2E7A059A002BC2ED007AB7
:104A680077EE677A0CDD2FA90122B1EC017A0132C9
:104A7800934277EE877AF8DA4B46002B40F0B880FD
:104A8800059BC3ED017A19EE903A03F0070057B081
:104A9800BDEC048BBDE8F08F002B40F3C480980078
:104AA80056AA02440DF1B80E03F1804152ED286A6E
:104AB80001390EEB830272ED017A37EEA67A96453C
:104AC80077EEC77A82ED007A77EEA67AF0EE476A3B
:104AD800C2ED017AEFD1012B40F3A58056AB184403
:104AE80089000B1D50ED286A73442FAA73ED017AD3
:104AF80037EEA67A9A4277EEC77A83ED007A77EE98
:104B0800A67AF0EE476AC3ED017AEFD10831DFEDFE
:104B1800487A0EEB01030EF1080E33ED017A9E453B
:104B280077EE877AF9D14B46DDED2E6A9DED2F7A27
:104B38002BB1F1EE666AB1EE477AF1EE677A059B22
:104B4800C3ED006A83ED017AC3ED027A9BE7002B7F
:104B5800FFF67AAF2EA901EB8302DFED357A043236
:104B680032ED017A914277EE877AF9D14A46002AE6
:104B78003FF470AF30E0DFED2E7AF4443CED017A7B
:104B8800E64577EE877AF9D14B460BB1F1EE677AB5
:104B9800059BC3ED007A76E719EE903ABBF1000F5A
:104BA80003F1010309EE903A37DD0222E1E5DFED7A
:104BB800207A01344445E7EC017AA5F104057FF435
:104BC800EEAE09E70020E7E5BDEEC00A5B4610EE51
:104BD800102A45F82B20B9E6DDED2E6A059AB1EECC
:104BE800677A002B76EEE77A82ED007A3FF73BAFE3
:104BF800F1EE677A44E7649A032A3FF644AF01A1CD
:104C080051F822F01D4C0008574B0008574B00087C
:104C1800A14A0008DFED067AB6E7F7EE007A37EE2C
:104C2800C88A0222CDE5DFED027A7CE794540008B9
:104C38000000000010EE103A23F00043B3F1485F83
:104C480004DAFDEEC07A17EE903A23B360EE007AEC
:104C58009FED155ADFED155A9FED156ADFED156AC0
:104C68009FED157AE7EE855A20EE275AA5EEA76A3A
:104C7800E6EE276AA6EEA77A70B127EE457AF6EE39
:104C8800006AA0EEA67ADFED0D6AD7EE270AE5EEF8
:104C9800260A30EE600A7047DFED096AE7EE876A98
:104CA800A6EE850A704700BFD3C92E2F342FD7B27E
:104CB8001BEF3836010D50B98988083CABAA2A3E4B
:104CC800ABAA2ABE10EE103A23F0004300EE103AC9
:104CD800704700BF10EE102A22F00041CB0D7F3B39
:104CE800162B1CDC002B10EE100A1EDB194919418B
:104CF8000A4227D0DFED187A70EE277AF5EEC07AEF
:104D0800F1EE10FA1EDD002A04DA4FF4000242FA2E
:104D180003F3184420EA010300EE103A7047B1F19A
:104D2800FF4F0FD330EE000A7047DFED0B7A70EEBD
:104D3800277AF5EEC07AF1EE10FA03DD002A02DBDD
:104D48009FED060A7047FFEE007A002900FE270A49
:104D5800704700BFFFFF7F00CAF2497100000000E2
:104D680008B510EE103A33F000422DED028B11D049
:104D7800B2F1FF4F11D2B2F5000F13D3D20D024496
:104D8800FE2A1CDC002A2ADD23F0FF4343EAC25333
:104D980000EE103ABDEC028B08BDBDEC028B30EE84
:104DA800000A08BD1D4BDFED1E7A984220EE270A47
:104DB80010DB10EE103AC3F3C752193ADFE79FED44
:104DC800198AF0EE400AB0EE480A00F031F820EEF9
:104DD800080ADFE7DFED140A20EE200ADAE712F10D
:104DE800160F0EDA4CF250339842E8DC9FED0E8A2B
:104DF800F0EE400AB0EE480A00F01AF820EE080A71
:104E0800C8E7193223F0FF4343EAC253DFED077ABC
:104E180000EE103A20EE270ABCE700BFB03CFFFFC7
:104E28000000004CCAF249716042A20D0000003334
:104E380010EE103A10EE902A23F0004302F00042E0
:104E4800134300EE103A704708B5062000F0DCF86E
:104E58000120FFF70BF90000014B1868704700BFED
:104E68003C00002070B50D4E0D4CA41BA41000256D
:104E7800A54209D10B4E0C4C00F0E4F8A41BA41079
:104E88000025A54205D170BD56F825309847013553
:104E9800EEE756F8253098470135F2E7C854000880
:104EA800C8540008C8540008CC540008024B0146F6
:104EB800186800F017B800BF3C00002010B5431E6A
:104EC8000A44914200D110BD11F8014B03F8014F7B
:104ED800F7E702440346934200D1704703F8011BE9
:104EE800F9E7000070B5CD1C25F0030508350C2D39
:104EF80038BF0C25002D064601DBA94203D90C2337
:104F08003360002070BD00F09BF8214A14682146E8
:104F180091B9204C23681BB9304600F03DF8206059
:104F28002946304600F038F8431C24D10C2333605E
:104F3800304600F086F8E4E70B685B1B18D40B2BAF
:104F48000FD90B60CD50CC18304600F07AF804F138
:104F58000B00231D20F00700C31AD3D05A42E25099
:104F6800D0E78C424B6816BF636013600C46EBE7D2
:104F78000C464968CCE7C41C24F00304A04205D0C1
:104F8800211A304600F008F80130CFD02560DBE761
:104F9800340100203801002038B5064C00230546AE
:104FA80008462360FFF768F8431C02D1236803B161
:104FB8002B6038BD3C0200201F2938B504460D4639
:104FC80004D9162303604FF0FF3038BD426C12B18C
:104FD80052F821304BB9204600F030F82A460146F5
:104FE8002046BDE8384000F017B8012B0AD0591CFC
:104FF80003D1162303600120E7E7002442F8254087
:10500800284698470020E0E7024B01461868FFF75A
:10501800D3BF00BF3C00002038B5074C002305462D
:10502800084611462360FFF719F8431C02D123688C
:1050380003B12B6038BD00BF3C020020FFF70CB85D
:1050480070477047F8B500BFF8BC08BC9E4670476B
:0C505800F8B500BFF8BC08BC9E467047CD
:105064000001020304050607080C10141820304040
:10507400000000000000000000000000000000002C
:105084000000000001000000020000000300000016
:105094000400000000000000050000000000000003
:1050A40000000000000000000600000000000000F6
:1050B4000000000000000000070000000000003FA6
:1050C4000000803FCDCCCC3F1F856B3E0000003FED
:1050D4000000803F010002000040000028000000A2
:1050E4000020000000000000010203040102030488
:1050F40006070809000FC93F000F494000CB96403E
:10510400000FC9400053FB4000CB164100ED2F4176
:10511400000F49410031624100537B41003A8A410A
:1051240000CB9641005CA34100EDAF41007EBC4141
:10513400000FC94100A0D5410031E24100C2EE4157
:105144000053FB4100F20342003A0A42008310423A
:1051540000CB164200141D42005C234200A52942E4
:1051640000ED2F4200363642007E3C4200C74242E8
:10517400000F4942A2000000F90000008300000073
:105184006E0000004E000000440000001500000006
:1051940029000000FC000000270000005700000068
:1051A400D1000000F500000034000000DD00000024
:1051B400C0000000DB000000620000009500000059
:1051C400990000003C000000430000009000000033
:1051D40041000000FE0000005100000063000000D8
:1051E400AB000000DE000000BB000000C5000000B2
:1051F40061000000B7000000240000006E00000001
:105204003A000000420000004D000000D2000000FF
:10521400E000000006000000490000002E0000002D
:10522400EA00000009000000D10000009200000024
:105234001C000000FE0000001D000000EB00000048
:105244001C000000B100000029000000A7000000BD
:105254003E000000E800000082000000350000006D
:10526400F50000002E000000BB0000004400000018
:1052740084000000E90000009C00000070000000B1
:1052840026000000B40000005F0000007E00000063
:10529400410000003900000091000000D600000029
:1052A40039000000830000005300000039000000B2
:1052B400F40000009C000000840000005F00000077
:1052C4008B000000BD000000F90000002800000071
:1052D4003B0000001F000000F800000097000000E1
:1052E400FF000000DE000000050000009800000040
:1052F4000F000000EF0000002F000000110000006C
:105304008B0000005A0000000A0000006D0000003D
:105314001F0000006D000000360000007E00000049
:10532400CF00000027000000CB00000009000000AF
:10533400B70000004F000000460000003F000000DE
:10534400660000009E0000005F000000EA0000000C
:105354002D0000007500000027000000BA000000C6
:10536400C7000000EB000000E5000000F1000000B1
:105374007B0000003D000000070000003900000031
:10538400F70000008A0000005200000092000000B4
:10539400EA0000006B000000FB0000005F0000005A
:1053A400B10000001F0000008D0000005D0000003F
:1053B4000800000056000000030000003000000058
:1053C40046000000FC0000007B0000006B000000B1
:1053D400AB000000F0000000CF000000BC000000A3
:1053E400200000009A000000F400000036000000D5
:1053F4001D000000A9000000E3000000910000006F
:10540400610000005E000000E60000001B000000D8
:1054140008000000650000009900000085000000FD
:105424005F00000014000000A000000068000000FD
:10543400400000008D000000FF000000D8000000C4
:10544400800000004D0000007300000027000000F1
:1054540031000000060000000600000015000000F6
:1054640056000000CA00000073000000A8000000FD
:10547400C900000060000000E20000007B000000A2
:10548400C00000008C0000006B0000000000C93F59
:105494000000F0390000DA370000A2330000842E47
:1054A4000000502B0000C2270000D0220000C41FBF
:1054B4000000C61B000044170400000007000000A1
:0454C40009000000DB
:0454C800BD02000819
:0454CC009902000839
:1054D000010000001000000085EB113F1F856B3EAE
:1054E0008FC2F53DEC51383E0AD7233C0AD7A33B87
:1054F0006F12833A00040258001002580004025848
:10550000000802580090D0030090D0034000002013
:10551000000000000000000000000000000000008B
:10552000000000000000000000000000000000007B
:10553000000000000000000000000000000000006B
:10554000000000000000000000000000000000005B
:10555000000000000000000000000000000000004B
:10556000000000000000000000000000000000003B
:040000050800413975
:00000001FF
