:020000040800F2
:10000000000002207D3300083D3200083F32000826
:100010004132000843320008453200080000000069
:10002000000000000000000000000000473200084F
:1000300049320008000000004B3200084D32000831
:10004000CD330008CD330008CD330008CD33000890
:10005000CD330008CD330008CD330008CD33000880
:10006000CD330008CD330008CD330008CD33000870
:10007000CD330008CD330008CD330008CD33000860
:10008000CD330008CD330008CD330008CD2C000857
:10009000CD33000855320008CD330008CD330008B9
:1000A000CD330008CD330008CD330008CD33000830
:1000B000CD330008CD330008CD330008CD33000820
:1000C000CD330008CD330008CD330008CD33000810
:1000D000CD330008CD330008CD330008CD33000800
:1000E000CD330008CD33000800000000CD330008F8
:1000F000CD330008CD330008CD330008CD330008E0
:10010000CD330008CD330008CD330008CD330008CF
:10011000CD330008CD330008CD330008CD330008BF
:10012000CD330008CD330008CD330008CD330008AF
:10013000CD330008CD330008CD330008CD3300089F
:1001400000000000000000000000000000000000AF
:10015000CD330008CD330008CD330008CD3300087F
:10016000CD330008CD330008CD330008CD3300086F
:10017000CD330008CD330008CD3300080000000067
:10018000CD330008CD330008CD330008CD3300084F
:10019000CD330008CD330008CD330008CD3300083F
:1001A000CD330008CD330008CD330008CD3300082F
:1001B000CD330008CD330008CD330008CD3300081F
:1001C000CD330008CD330008CD330008CD3300080F
:1001D000CD330008CD330008CD330008CD330008FF
:1001E000CD330008CD330008CD330008CD330008EF
:1001F000CD330008CD330008CD330008CD330008DF
:10020000CD330008CD330008CD330008CD330008CE
:10021000CD330008CD330008CD330008CD330008BE
:10022000CD330008CD330008CD33000800000000B6
:10023000CD330008CD33000800000000CD330008A6
:10024000CD330008CD330008CD330008CD3300088E
:10025000CD330008CD330008CD330008CD3300087E
:10026000CD330008CD330008CD330008CD3300086E
:10027000CD330008CD330008CD3300080000000066
:10028000CD330008CD330008CD3300080000000056
:0802900000000000CD3300085E
:1002980010B5054C237833B9044B13B10448AFF3B8
:1002A80000800123237010BD84000020000000009E
:1002B800FC35000808B5034B1BB103490348AFF3ED
:1002C800008008BD0000000088000020FC35000800
:1002D800104B1B780BB90120704710B504464FF43A
:1002E8007A70B0FBF3F30C4A1068B0FBF3F000F03F
:1002F800BFF868B90F2C01D901200AE00022214675
:100308004FF0FF3000F062F8024B5C60002000E024
:10031800012010BD000000201800002010B50320A7
:1003280000F042F801F01EFB0F498B69C3F3032369
:100338000E4AD35C03F01F03D8400D4B18608B693D
:1003480003F00F03D35C03F01F03D840094B186078
:100358000020FFF7BDFF10B10124204610BD044660
:1003680002F00CFFF9E700BF00440258803600088D
:10037800180000201C000020034B1B78034A11685A
:100388000B441360704700BF00000020C00000202D
:10039800014B1868704700BFC0000020014B186867
:1003A800000C70470010005C0649CB6823F4E0633A
:1003B8001B041B0C000200F4E0600343024A1A43CA
:1003C800CA60704700ED00E00000FA0530B4154B34
:1003D800DB68C3F30223C3F10704042C28BF0424F9
:1003E8001D1D062D14D9033B4FF0FF3505FA04F403
:1003F80021EA0401994005FA03F322EA03031943A9
:10040800002807DB0901C9B2074B195430BC7047F3
:100418000023E9E700F00F000901C9B2034B1954A2
:10042800F4E700BF00ED00E000E400E014ED00E0B8
:10043800002807DB00F01F02400901239340024A0D
:1004480042F82030704700BF00E100E000280CDBD4
:1004580000F01F024009012393402030034A42F86C
:100468002030BFF34F8FBFF36F8F704700E100E07C
:100478000138B0F1807F0AD2064B5860064AF02155
:1004880082F823100020986007221A607047012024
:10049800704700BF10E000E000ED00E030B4446BAE
:1004A8000268D2F884106F4B194041EA8401C2F8FF
:1004B80084100268D2F8841021F47F01856B41EA28
:1004C8000541C2F88410826B22440468D4F888106D
:1004D800194041EA8201C4F888100468D4F88810E9
:1004E80021F4FE01C56B41EA0541C4F88810C16BCF
:1004F80002EB41020468D4F8A010194041EA8201D5
:10050800C4F8A0100468D4F8A01021F4FE01056C0A
:1005180041EA0541C4F8A010046C416C01FB0424B5
:100528000268D2F8B010194041EA8401C2F8B0104C
:100538000268D2F8B01021F4FE01856C41EA054149
:10054800C2F8B010826CC16C01FB02440268D2F898
:10055800AC10194041EA8401C2F8AC10026D416D3B
:1005680001FB02420468D4F8F010194041EA820104
:10057800C4F8F0100468D4F8F01021F47C11856DEB
:1005880041EA0541C4F8F010816D02EB41020468AC
:10059800D4F8C0100B4043EA8202C4F8C0200268B5
:1005A800D2F8C03023F47C13C16D43EA0143C2F88A
:1005B800C0300268D2F8C03023F07C53016E43EAA1
:1005C8000163C2F8C030436B274A1A449200C266DE
:1005D800836B02EB83030367C16B03EBC1034367C0
:1005E800046C416C01FB04F103EB81038367846CA9
:1005F800C16C01FB04F103EB8103C367046D416D1A
:1006080001FB04F103EB8103C0F88030816D03EB3B
:10061800C103C0F88430C46D856E05FB04F403EB98
:100628008403C0F88830016E01FB05F103EB8103F8
:10063800C0F890300D498B420DD9D0F89C3043F06A
:100648002003C0F89C30032380F89830012007E08D
:10065800002342F8043BD0F890309342F8D80020A9
:1006680030BC70470300FFFF002B0010FCD3004094
:10067800F0B44C68E4B90E698C6826430C6846EA05
:1006880084460D6ACC6944EA05648D692C434D693A
:100698002C43CD682C43D0F88470806E03FB00F3A4
:1006A80007EB830547F823606C600835002015E0E8
:1006B8000E698C6826430C68264346F08046E0E7BE
:1006C8001418E678A3781B0443EA0663647843EABF
:1006D8000423145C234345F8043B0430CB89034CC2
:1006E800E35C8342ECD8F0BC704700BF14360008C6
:1006F80030B595B004464C22A04901A802F0B6FED8
:10070800002C00F0388123689D4A934220D094F849
:1007180098300BB32268936923F010039361FFF7B5
:1007280037FE054623689A6912F0080F1AD0FFF7BA
:100738002FFE401B0A28F5D9D4F89C3043F001035A
:10074800C4F89C30032384F89830012015B030BDDC
:1007580003F580736360DAE784F89930204602F085
:100768001FFDD7E79A6942F001029A61FFF710FE70
:10077800054623689A6912F0010F0FD1FFF708FEAA
:10078800401B0A28F5D9D4F89C3043F00103C4F87B
:100798009C30032384F898300120D7E79A6942F007
:1007A80002029A61237C012B40D02268936943F0AE
:1007B80040039361637C012B3ED02268936923F444
:1007C80080439361A37C012B3CD02268936943F456
:1007D800805393612268936923F44073A1680B43A3
:1007E80093612268936923F0A403936122681369D3
:1007F80023F010031361E368012B29D0002B2CD0C0
:10080800022B00F09B802268936943F08003936178
:100818002268136943F010031361E368032B1CD1AA
:100828002268936943F02003936116E02268936974
:1008380023F040039361BDE72268936943F4804342
:100848009361BFE72268936923F480539361C1E7FA
:100858002268936943F004039361A3695A1EE3690C
:10086800013B1B0243EA4263226A013A134362696D
:10087800013A216843EA0243CB61A368B3F5407F9C
:1008880062D0236E33B12268D2F8C030616E0B4358
:10089800C2F8C030E36D226ED3420DD02168D1F882
:1008A800C83023F00703A26E14A800EB820252F8A6
:1008B8004C2C1343C1F8C830236C6BB12168D1F8B4
:1008C800BC3023F00703626C14A800EB820252F8D4
:1008D8004C2C1343C1F8BC30A36C73B12168D1F818
:1008E800BC3023F07003E26C14A800EB820252F8CB
:1008F8004C2C43EA0213C1F8BC30236D73B1216854
:10090800D1F8BC3023F4E063626D14A800EB8202D6
:1009180052F84C2C43EA0223C1F8BC302268184B29
:100928009A4222D00023C4F89430C4F89C300123A2
:1009380084F898302046FFF7B1FD07E722689369ED
:1009480043F02003936188E7A36A013BE26A013A16
:1009580043EA0223226B013A43EA0213626A013A2C
:10096800216843EA0243CB608BE76268936823F00F
:1009780003039360D6E70120E8E600BF24360008A9
:1009880000A0004090F89830013BDBB2012B07D95A
:10099800D0F89C3043F00203C0F89C300120704727
:1009A800CB680A68D2B9072B0ED08A68DB0643EAFF
:1009B80082730A6943EA02434A691343C26E49686B
:1009C80042F82130002070470A69CB691B0243EACC
:1009D80002438A69134343F06053EFE710B40A698E
:1009E80042EA4372072B0ED08C684B6943EA847342
:1009F800006F496800EBC10440F8312063600020B3
:100A08005DF8044B70478B69F2E790F89830DBB2D9
:100A1800012B07D0D0F89C3043F00403C0F89C3079
:100A280001207047022380F898300268936923F008
:100A3800010393610023C0F89C301846704738B50D
:100A480090F89830DBB2022B07D0D0F89C3043F0F6
:100A58000803C0F89C30012038BD0368D3F8C040B3
:100A680014F07C5F0CD0D3F8C44014F4001F0FD0EE
:100A7800D0F89C3043F40073C0F89C300120EBE7B9
:100A8800D0F89C3043F02003C0F89C300120E3E705
:100A98000546D3F8C440C4F304442346FFF7E8FDF1
:100AA8002A680123A340C2F8D030C5F8943000204A
:100AB800D2E70000F0B490F89840E4B2022C08D0D5
:100AC800D0F89C3043F00803C0F89C300120F0BCFB
:100AD8007047402937D041295BD0046D8C427ED9BC
:100AE800C46F456D01FB05F504EB85044FF0000C60
:100AF800256805F080455560002D78D12568C5F337
:100B08008A451560256805F000559560256805F04B
:100B180000451561A588D561656805F47025D5601F
:100B2800656805F480155561656805F400159561DB
:100B3800E57905F07F0515626568ED0F556204F1EA
:100B4800080500245BE00468D4F8A05015F4FE0FF3
:100B58000FD0D4F8A45015F07F0F12D0D4F8A440C9
:100B6800C4F3052C446F456C0CFB05F504EB8504B8
:100B7800BEE7D0F89C3043F02003C0F89C30012039
:100B8800A5E7D0F89C3043F48073C0F89C3001206E
:100B98009DE70468D4F8B05015F4FE0F0FD0D4F8D0
:100BA800B45015F07F0F12D0D4F8B440C4F3052C1C
:100BB800846FC56C0CFB05F504EB850498E7D0F849
:100BC8009C3043F02003C0F89C3001207FE7D0F828
:100BD8009C3043F48073C0F89C30012077E7D0F84C
:100BE8009C3043F02003C0F89C3001206FE7256853
:100BF80025F06045156085E72E5D1E550134D689C0
:100C0800124FBE5DA642F7D840290BD041290ED01D
:100C18001F2911D80268012303FA01F1C2F89810BC
:100C2800002054E70368C3F8A8C000204FE7036812
:100C3800C3F8B8C000204AE701F01F010268012389
:100C480003FA01F1C2F89C10002040E714360008AE
:100C580090F89830013BDBB2012B07D9D0F89C30D3
:100C680043F00203C0F89C300120704710B40368B9
:100C78009C6D0C4224D1DC6D44F00104DC6511F458
:100C8800007F05D00468D4F8E0301343C4F8E0309E
:100C980011F4806F05D00468D4F8E4301A43C4F81E
:100CA800E4200068436D0C4A0A40134343650B4A2D
:100CB800536943EA9171516100205DF8044B704714
:100CC8009C6D31EA040402D00324DC65D7E7DC6DAF
:100CD80044F00204DC65D2E7FFFFCF3F00A80040E4
:100CE8007047704770477047704770477047704744
:100CF80070477047704770477047704770470000EB
:100D08002DE9F0470446954B1A695B694FEA837AE7
:100D18000AEA827A03681A6D02F470495A6D09EA80
:100D280002091A6D02F00F085A6D08EA02081F6DD1
:100D380007F0F0075A6D17401D6D05F071555A6D93
:100D480015401E6D06F060765A6D16405A6D12F405
:100D5800807F03D01A6D12F4807F78D123685A6D92
:100D680012F4806F03D01A6D12F4806F78D1BAF143
:100D7800000F40F08480B9F1000F40F08C80B8F18A
:100D8800000F40F09480002F40F09D8023685A6D3A
:100D980012F4006F04D01A6D12F4006F40F09D80B9
:100DA80023685A6D12F4007F04D01A6D12F4007F84
:100DB80040F09D8023685A6D12F4002F04D01A6DFC
:100DC80012F4002F40F0A28023685A6D12F4803F7D
:100DD80004D01A6D12F4803F40F0A28023685A6D47
:100DE80012F4802F04D01A6D12F4802F40F0A280E4
:100DF80023685A6D12F4003F0FD01A6D12F4003FA9
:100E08000BD04FF400321A65544B00221A61D4F803
:100E18009C3043F08003C4F89C30002E40F094804E
:100E28004DB123681D65AA0F4C4B1A61D4F89C304C
:100E38001D43C4F89C502268494B9A4200F09280A6
:100E4800D4F89C30002B40F0ED80BDE8F0874FF4DB
:100E580080721A65414B00221A61FFF749FF7DE74E
:100E6800D3F8DC10D3F8E4204FF4806018653B4BCE
:100E78000020186111402046FFF737FF77E7236805
:100E880000221A654FEA9A72344B1A61514620467D
:100E9800FFF726FF6FE72368C3F850904FEA99726F
:100EA8002E4B1A6149462046FFF71BFF67E7236868
:100EB800C3F850804FEA9872284B1A614146204681
:100EC80001F00AFF5FE723681F65BA0F234B1A6119
:100ED80039462046FFF706FF58E74FF400621A65C7
:100EE8001E4B00221A612046FFF7FDFE58E7D3F893
:100EF800D810D3F8E0204FF400701865174B002085
:100F0800186111402046FFF7EFFE53E74FF4002227
:100F18001A65124B00221A61204601F0F8FE53E7C9
:100F28004FF480321A650D4B00221A612046FFF7F4
:100F3800DDFE53E74FF480221A65084B00221A6140
:100F48002046FFF7D4FE53E723681E65B20F034B14
:100F58001A6131462046FFF7CDFE61E700A8004040
:100F680000A0004063689A6812F0030F3FF468AF6E
:100F7800196A01F00F015A6A186A00F03008586AB5
:100F880008EA00081F6A07F4C077586A07401E6A13
:100F980006F4FC46586A06401D6A05F4F025586AAE
:100FA800054011401FD1B8F1000F21D163685A6A7A
:100FB80012F0400F03D01A6A12F0400F20D157BB2D
:100FC80036B163681E62D4F89C301E43C4F89C6036
:100FD800002D3FF435AF63681D62D4F89C301D4383
:100FE800C4F89C502CE719622046FFF784FEDAE724
:100FF8006368C3F8208041462046FFF77DFED5E7A9
:10100800D96BDA6B4020186202F03F02090C2046C7
:10101800FFF773FED3E763681F6239462046FFF780
:101028006DFECDE72046FFF764FE0EE7F0B482B010
:1010380000233AE0092400E00024B4403C43023590
:101048006F4E46F825406F4C2568D44304EA0506E0
:101058004F6817F4803F01D042EA0506694D2E60BB
:101068006E6804EA06054F6817F4003F01D042EAAB
:101078000605644E75604FF0B0452D6804EA050614
:101088004F6817F4801F01D042EA05064FF0B045BB
:101098002E606D682C404E6816F4001F01D042EA9D
:1010A80005044FF0B042546001330A6832FA03F481
:1010B80000F0A28001249C402240F5D04D68122DFA
:1010C80018BF022D10D1DE08083650F826C003F0EC
:1010D8000705AF000F25BD402CEA050C0D69BD4082
:1010E80045EA0C0540F8265006685F000325BD4018
:1010F800ED4305EA060C4E6806F00306BE4046EAD4
:101108000C0606604E6806F1FF3C112E18BFBCF1B4
:10111800010F01D9122E11D1866805EA060CCE6896
:10112800BE4046EA0C068660466826EA040C4E680D
:10113800C6F300149C4044EA0C044460C46825408B
:101148008C68BC402C43C4604C6814F0805FABD002
:101158002D4CD4F8F45045F00205C4F8F450D4F8F6
:10116800F44004F002040194019C9D08AE1C244C38
:1011780054F8267003F00304A6000F24B44027EAAD
:101188000407224CA0423FF457AF04F58064A04204
:1011980022D004F58064A04220D004F58064A042E7
:1011A8001ED004F58064A0421CD004F58064A042DF
:1011B8001AD004F58064A04218D004F58064A042D7
:1011C80016D004F58064A04214D004F58064A042CF
:1011D8003FF430AF0A2430E701242EE702242CE73D
:1011E80003242AE7042428E7052426E7062424E71D
:1011F800072422E7082420E702B0F0BC704700BFAC
:1012080000040058800000580044025800000258AA
:10121800002331FA03F200F09780F0B52CE009269C
:1012280000E0002606FA04F4AC4272D005685C00BF
:10123800032606FA04F42543056023FA06F5083563
:1012480050F8256003F007074FEA870C0F2707FAC5
:101258000CF726EA070640F825608568E443254030
:101268008560456825EA02024260C2681440C4608D
:10127800013331FA03F266D001229A4012EA0107DB
:10128800F6D04FEA930C0CF10205304C54F8255077
:1012980003F00304A4000F2606FA04FE0EEA05056F
:1012A8002B4EB042BDD006F58066B04221D006F57F
:1012B8008066B0421FD006F58066B0421DD006F5A4
:1012C8008066B0421BD006F58066B04219D006F59C
:1012D8008066B04217D006F58066B04215D006F594
:1012E8008066B04213D006F58066B04297D00A26D1
:1012F80098E7012696E7022694E7032692E7042654
:1013080090E705268EE706268CE707268AE7082653
:1013180088E70E4C0CF1020554F8256026EA0E0603
:1013280044F825600B4D2E68FC4326402E606E68FD
:1013380026406E604FF0B0452E6826402E606E68DD
:1013480034406C6072E7F0BD704700BF000400587D
:10135800000002588000005812B9090481617047E2
:1013680081617047124BDB6813F0040F07D1104BF3
:10137800DB6803F00703834201D00120704710B5F2
:101388000B4AD36823F007031843D060FFF700F82F
:101398000446074B5B6813F4005F07D1FEF7F8FFBC
:1013A800001BB0F57A7FF4D9032000E0002010BDBF
:1013B80000480258002800F0CB8238B5044603687C
:1013C80013F0010F25D0A94A136903F03803926A74
:1013D800102B15D0182B0FD06368B3F5803F3FD082
:1013E800002B53D1A14B1A6822F480321A601A6874
:1013F80022F480221A6038E002F00302022AEBD1BC
:101408009A4B1B6813F4003F03D06368002B00F06D
:10141800A182236813F0020F00F08E80934A1369AB
:10142800926A13F038035AD0182B55D0E368002B72
:1014380000F0C8808D490A6822F0190213430B6036
:10144800FEF7A6FF0546894B1B6813F0040F40F012
:10145800A180FEF79DFF401B0228F4D903207EE2FD
:10146800824A136843F48033136063682BB3FEF732
:101478008FFF05467D4B1B6813F4003FC9D1FEF76B
:1014880087FF401B6428F5D9032068E2B3F5A02F35
:1014980009D0764B1A6822F480321A601A6822F44E
:1014A80080221A60E1E7714B1A6842F480221A60C0
:1014B8001A6842F480321A60D7E7FEF769FF0546DA
:1014C8006A4B1B6813F4003FA3D0FEF761FF401B73
:1014D8006428F5D9032042E212F0030FA6D1634B2A
:1014E8001B6813F0040F03D0E368002B00F034826C
:1014F8005E4A136823F01903E1680B431360FEF793
:1015080047FF0546594B1B6813F0040F06D1FEF739
:101518003FFF401B0228F5D9032020E2FEF73EFFDB
:1015280041F2030398422CD8504A536823F47C3381
:10153800216943EA01335360236813F0100F71D017
:101548004A4A136903F03803926A082B52D0182BC1
:101558004CD0E369002B00F0A380444A136843F0A1
:1015680080031360FEF714FF0546404B1B6813F415
:10157800807F7DD1FEF70CFF401B0228F5D90320A0
:10158800EDE13A4A536823F0FE43216943EA0163D7
:101598005360D1E7FEF702FF41F20303984208D8EF
:1015A800324A536823F47C33216943EA0133536098
:1015B800C2E72E4A536823F0FE43216943EA0163D8
:1015C8005360B9E7294A136823F001031360FEF753
:1015D800DFFE0546254B1B6813F0040FACD0FEF761
:1015E800D7FE401B0228F5D90320B8E102F0030218
:1015F800012AAED11D4B1B6813F4807F04D0E36928
:10160800802B01D00120AAE1FEF7C8FE41F20303B6
:10161800984222D8154A536823F0F843216A43EACE
:1016280081635360236813F0080F61D06369002B4E
:101638004AD00E4A536F43F001035367FEF7A8FEE2
:1016480005460A4B5B6F13F0020F51D1FEF7A0FE5F
:10165800401B0228F5D9032081E1044AD36823F00E
:101668007C53216A43EA0163D360DBE700440258F4
:10167800FEF794FE41F20303984208D8AE4A536835
:1016880023F0F843216A43EA81635360CAE7AA4A10
:10169800D36823F07C53216A43EA0163D360C1E72E
:1016A800A54A136823F080031360FEF771FE054610
:1016B800A14B1B6813F4807FB4D0FEF769FE401B72
:1016C8000228F5D903204AE19B4A536F23F001030E
:1016D8005367FEF75DFE0546974B5B6F13F0020FED
:1016E80006D0FEF755FE401B0228F5D9032036E147
:1016F800236813F0200F29D0A3699BB18E4A136881
:1017080043F480531360FEF743FE05468A4B1B687B
:1017180013F4005F1AD1FEF73BFE401B0228F5D9EF
:1017280003201CE1844A136823F480531360FEF7F6
:101738002FFE0546804B1B6813F4005F06D0FEF7AA
:1017480027FE401B0228F5D9032008E1236813F07F
:10175800040F21D1636A002B00F00081764A1269D8
:1017680002F03802182A00F0FB80022B75D0724A6A
:10177800136823F080731360FEF70AFE04466E4B6D
:101788001B6813F0007F00F0E180FEF701FE001BEC
:101798000228F4D90320E2E0684A136843F480730E
:1017A8001360FEF7F5FD0546644B1B6813F4807F54
:1017B80006D1FEF7EDFD401B6428F5D90320CEE0E5
:1017C800A368012B0AD00BBB5B4B1A6F22F00102F6
:1017D8001A671A6F22F004021A6704E0564A136F58
:1017E80043F001031367A36833B3FEF7D1FD054641
:1017F800514B1B6F13F0020FACD1FEF7C9FD401B14
:1018080041F288339842F3D90320A8E0052B09D088
:10181800494B1A6F22F001021A671A6F22F004026C
:101828001A67E0E7444B1A6F42F004021A671A6F0E
:1018380042F001021A67D6E7FEF7AAFD05463E4BBD
:101848001B6F13F0020F85D0FEF7A2FD401B41F27B
:1018580088339842F3D9032081E0374A136823F08C
:1018680080731360FEF794FD0546334B1B6813F035
:10187800007F06D0FEF78CFD401B0228F5D9032017
:101888006DE02D4B996A2E4A0A40A16AE06A41EA46
:1018980000110A439A62226B013AC2F30802616B93
:1018A8000139490289B20A43A16B0139090401F4DB
:1018B800FE010A43E16B0139090601F0FE410A43C2
:1018C8001A63DA6A22F00102DA62596B1D4A0A4089
:1018D800A16C42EAC1025A63DA6A22F00C02216C56
:1018E8000A43DA62DA6A22F00202616C0A43DA62B7
:1018F800DA6A42F48032DA62DA6A42F40032DA6290
:10190800DA6A42F48022DA62DA6A42F00102DA62C2
:101918001A6842F080721A60FEF73AFD0446064BD8
:101928001B6813F0007F0FD1FEF732FD001B022861
:10193800F5D9032013E000BF0044025800480258BC
:101948000CFCFFFF0700FFFF002008E0002006E076
:1019580001207047012002E0012000E0002038BD8E
:101968000120FCE7724B1B6903F03803102B00F0D1
:10197800DB80182B10D00BB16E4870476C4B1B687E
:1019880013F0200F00F0D280694B1868C0F3C10033
:10199800694B23FA00F07047654A916A01F0030128
:1019A800906AC0F30510D36A03F00103526BC2F3C7
:1019B800CC0203FB02F307EE903AF8EE677A0028B0
:1019C80000F0B580012966D0F9B1022900F08F80B6
:1019D80007EE100AF8EE476A9FED586A86EE267AF7
:1019E800534B1B6BC3F3080306EE903AF8EE666A96
:1019F8009FED536A67EE867A76EEA77AF7EE006A6D
:101A080077EEA67A27EE277A61E0494B1B6813F038
:101A1800200F23D046490A68C2F3C102464BD3407F
:101A280007EE103AF8EE476A07EE100AB8EE476A72
:101A380086EE867A0B6BC3F3080306EE903AF8EE4F
:101A4800666A9FED3F6A67EE867A76EEA77AF7EECA
:101A5800006A77EEA67A27EE277A38E007EE100AB2
:101A6800F8EE476A9FED376A86EE267A304B1B6B95
:101A7800C3F3080306EE903AF8EE666A9FED306A03
:101A880067EE867A76EEA77AF7EE006A77EEA67AA0
:101A980027EE277A1BE007EE100AF8EE476A9FED5B
:101AA800276A86EE267A224B1B6BC3F3080306EEE1
:101AB800903AF8EE666A9FED226A67EE867A76EECD
:101AC800A77AF7EE006A77EEA67A27EE277A184B00
:101AD8001B6BC3F34623013307EE903AF8EE677A9F
:101AE800C7EE276AFCEEE67A17EE900A704707EE13
:101AF800100AF8EE476A9FED146A86EE267A0C4BB8
:101B08001B6BC3F3080306EE903AF8EE666A9FED86
:101B18000C6A67EE867A76EEA77AF7EE006A77EEB9
:101B2800A67A27EE277AD2E7084870470248704716
:101B38000044025800093D000090D0030024744A74
:101B4800000000390024744C0024F44A00127A0082
:101B5800002800F02C810346974A126802F00F0211
:101B68008A420CD29448026822F00F020A430260AB
:101B7800026802F00F028A4201D00120704770B556
:101B88001A6812F0040F0CD018698C4A926902F096
:101B98007002904205D9894CA26922F07002104364
:101BA800A0611A6812F0080F0CD05869834AD269EC
:101BB80002F07002904205D9804CE26922F070026E
:101BC8001043E0611A6812F0100F0CD098697B4A34
:101BD800D26902F4E062904205D9784CE26922F4B5
:101BE800E0621043E0611A6812F0200F0CD0D86947
:101BF800724A126A02F07002904205D96F4C226A4A
:101C080022F07002104320621A6812F0020F0CD002
:101C1800D8686A4A926902F00F02904205D9674C67
:101C2800A26922F00F021043A0611C460D461B68F2
:101C380013F0010F41D0614A936923F47063A168DE
:101C48000B4393616368022B0AD0032B27D0012B27
:101C58002CD05A4A126812F0040F06D10120A5E0D0
:101C6800126812F4003F00F0A48054490A6922F077
:101C7800070213430B61FEF78BFB06464F4B1B69AC
:101C880003F038036268B3EBC20F16D0FEF780FB8F
:101C9800801B41F288339842F0D9032086E0474AF6
:101CA800126812F0007FE0D101207FE0434A1268F9
:101CB80012F4807FD9D1012078E0236813F0020F55
:101CC8000CD0E2683D4B9B6903F00F039A4205D2A2
:101CD8003A498B6923F00F031A438A61364B1B6814
:101CE80003F00F03AB420CD9334A136823F00F03F8
:101CF8002B431360136803F00F03AB4201D001209C
:101D080054E0236813F0040F0CD022692B4B9B6915
:101D180003F070039A4205D228498B6923F07003B7
:101D28001A438A61236813F0080F0CD06269234BA9
:101D3800DB6903F070039A4205D22049CB6923F08E
:101D480070031A43CA61236813F0100F0CD0A269FC
:101D58001A4BDB6903F4E0639A4205D21749CB6951
:101D680023F4E0631A43CA61236813F0200F0CD0F0
:101D7800E269124B1B6A03F070039A4205D20F49BD
:101D88000B6A23F070031A430A62FFF7EBFD0B4B53
:101D98009B69C3F303230A4AD35C03F01F03D840AB
:101DA800084B1860084B1868FEF792FA70BD0120BE
:101DB80070470120FAE700BF002000520044025893
:101DC800803600081800002004000020404B9B6A61
:101DD80003F00303032B79D070B50E4604463C4A42
:101DE800136823F080631360FEF7D2FA0546384B78
:101DF8001B6813F0006F06D0FEF7CAFA401B0228D2
:101E0800F5D9032070BD324B9A6A22F47C322168DE
:101E180042EA01329A626268013AC2F30802A16892
:101E28000139490289B20A43E1680139090401F418
:101E3800FE010A4321690139090601F0FE410A43FE
:101E48009A63DA6A22F0C00261690A43DA62DA6ADE
:101E580022F02002A1690A43DA62DA6A22F010024B
:101E6800DA62D96B1B4A0A40E16942EAC102DA63C5
:101E7800DA6A42F01002DA62C6B91A46DB6A43F43B
:101E88000023D362124A136843F080631360FEF79D
:101E98007FFA04460E4B1B6813F0006F14D1FEF74F
:101EA80077FA001B0228F5D90320ABE7012E05D0ED
:101EB800074AD36A43F40013D362E3E7044AD36AB8
:101EC80043F48013D362DDE700209BE701207047CD
:101ED800004402580700FFFF404B9B6A03F00303CE
:101EE800032B79D070B50E4604463C4A136823F09C
:101EF80080531360FEF74CFA0546384B1B6813F005
:101F0800005F06D0FEF744FA401B0228F5D90320EB
:101F180070BD324B9A6A22F07C72216842EA015203
:101F28009A626268013AC2F30802A168013949025B
:101F380089B20A43E1680139090401F4FE010A4340
:101F480021690139090601F0FE410A431A64DA6A77
:101F580022F4406261690A43DA62DA6A22F40072A2
:101F6800A1690A43DA62DA6A22F48072DA62596C89
:101F78001B4A0A40E16942EAC1025A64DA6A42F439
:101F88008072DA62C6B91A46DB6A43F48003D36208
:101F9800124A136843F080531360FEF7F9F90446B8
:101FA8000E4B1B6813F0005F14D1FEF7F1F9001B0C
:101FB8000228F5D90320ABE7012E05D0074AD36ADA
:101FC80043F08073D362E3E7044AD36A43F400031F
:101FD800D362DDE700209BE70120704700440258E8
:101FE8000700FFFFF8B50446036813F0006F2BD015
:101FF800436EB3F5801F18D007D9B3F5001F1DD065
:10200800B3F5401F2ED1002506E05BBB934AD36A87
:1020180043F40033D3620025904A136D23F4401330
:10202800616E0B431365002610E002210430FFF7B0
:10203800CDFE0546002DEFD02E4607E002212430C4
:10204800FFF74AFF0546F5E700263546236813F4EF
:10205800807F17D0636D042B32D8DFE803F00624A5
:102068002A0B0B0001263546F0E77C4AD36A43F475
:102078000033D3623DBB794A136D23F00703616DCA
:102088000B431365236813F4007F33D0A36D802BB3
:1020980044D01AD80BB3402B1CD10021201DFFF7C8
:1020A80095FE05461EE00021201DFFF78FFE054620
:1020B800E0E7002104F12400FFF70EFF0546D9E709
:1020C80001263546DEE72E46DCE7C02B0AD0B3F5FD
:1020D800807F07D0012635460CE0604AD36A43F476
:1020E8000033D3620DBB5D4A136D23F4E073A16D19
:1020F8000B431365236813F4806F2FD0D4F8A430F2
:10210800B3F5800F3ED012D8D3B1B3F5001F14D168
:102118000021201DFFF75AFE054616E0002104F1B4
:102128002400FFF7D9FE0546DCE72E46E2E7B3F5C3
:10213800C00F0AD0B3F5000F07D0012635460DE0D1
:10214800464AD36A43F40033D36215BB434A936DBE
:1021580023F46003D4F8A4100B439365236813F4A5
:10216800006F2FD0D4F8A830B3F1007F37D012D841
:10217800D3B1B3F1807F14D10021201DFFF726FED3
:10218800054616E0002104F12400FFF7A5FE0546E8
:10219800DBE72E46E2E7B3F1407F0AD0B3F1806F68
:1021A80007D0012635460DE02C4AD36A43F40033A4
:1021B800D362DDB9294A936D23F0E063D4F8A810FF
:1021C8000B439365236813F0007F2AD0A36C102B70
:1021D80012D00DD9202B1DD0302B12D009E00021B0
:1021E80004F12400FFF778FE0546E2E72E46E9E70A
:1021F8003BB10126354614E0184AD36A43F400334C
:10220800D3626DB9154AD36C23F03003A16C0B432C
:10221800D36406E00221201DFFF7D8FD0546F0E74C
:102228002E46236813F4805F27D0E36DB3F5005F73
:102238003ED009D8A3B1B3F5805F0BD10021201D92
:10224800FFF7C4FD054610E0B3F5405F0DD0B3F5C8
:10225800804F0AD0012635460FE000BF00440258DF
:10226800934AD36A43F40033D36245BB904A136D53
:1022780023F4E043E16D0B431365236813F4005F17
:1022880033D0236EB3F5003F27D01AD83BB1B3F54E
:10229800803F1FD10121201DFFF798FD05461DBB7A
:1022A800834A136D23F4E023216E0B4313651CE06E
:1022B800002104F12400FFF70FFE0546D5E72E465E
:1022C800DBE7B3F5802FEAD0B3F5A02FE7D0B3F55D
:1022D800403FE4D00126354607E0012104F12400FF
:1022E800FFF7FAFD0546DAE72E46236813F4804F18
:1022F8002CD0D4F8AC30B3F1005F1FD012D83BB16A
:10230800B3F1805F17D10121201DFFF75FFD05465E
:10231800DDB9674A936D23F0E043D4F8AC100B4362
:10232800936513E0B3F1804FF2D0B3F1A04FEFD033
:10233800B3F1405FECD00126354607E0012104F1F6
:102348002400FFF7C9FD0546E2E72E46236813F48B
:10235800004F1FD0E36EB3F1805F06D0B3F1005F8A
:1023680011D03BB10126354614E0514AD36A43F4F3
:102378000033D3626DB94E4A136D23F04053E16EBA
:102388000B43136506E00121201DFFF71FFD0546DD
:10239800F0E72E46236813F0807F1ED0636C032B72
:1023A80017D8DFE803F007021007414AD36A43F45D
:1023B8000033D36285B93E4AD36C23F00303616CC2
:1023C8000B43D36409E00221201DFFF7FFFC0546FB
:1023D800F0E70126354600E02E46236813F4800F07
:1023E8001FD1236813F0010F00F09E80A36F282BE4
:1023F80000F29680DFE803F0849494949494949483
:102408007F949494949494948D94949494949494A0
:102418008494949494949494849494949494949494
:102428008400244A136843F480731360FDF7B0FFF7
:102438000746204B1B6813F4807F05D1FDF7A8FFE2
:10244800C01B6428F5D90325002D50D1184B1B6FEC
:10245800D4F8B020534013F4407F0CD0144B1A6FBB
:1024680022F44072196F41F480311967196F21F411
:10247800803119671A67D4F8B030B3F5807F1BD064
:10248800002D36D1D4F8B03003F44072B2F5407F55
:1024980023D0074A136923F47C53136104490B6F53
:1024A800D4F8B020C2F30B0213430B6799E700BFBF
:1024B8000044025800480258FDF76AFF0746AA4B35
:1024C8001B6F13F0020FDBD1FDF762FFC01B41F257
:1024D80088339842F3D90325D2E7A348026922F446
:1024E8007C52A24901EA131313430361D6E72E462F
:1024F80077E72E4675E70121201DFFF767FC0546A3
:102508008DB9994A536D23F03803A16F0B43536576
:102518000AE0012104F12400FFF7DEFC0546EFE79D
:102528000126354600E02E46236813F0020F20D01E
:10253800636F052B19D8DFE803F0080311080808B2
:102548000121201DFFF742FC05468DB9864A536DCF
:1025580023F00703616F0B4353650AE0012104F17F
:102568002400FFF7B9FC0546EFE70126354600E0F1
:102578002E46236813F0040F22D0D4F89030052B90
:102588001AD8DFE803F00803120808080121201D03
:10259800FFF71CFC054695B9734A936D23F00703B2
:1025A800D4F890100B4393650AE0012104F124004C
:1025B800FFF792FC0546EEE70126354600E02E4679
:1025C800236813F0200F2CD0D4F88C30B3F1005FBF
:1025D8001FD012D83BB1B3F1805F17D10021201D65
:1025E800FFF7F4FB0546DDB95F4A536D23F0E0437E
:1025F800D4F88C100B43536513E0B3F1804FF2D03D
:10260800B3F1A04FEFD0B3F1405FECD001263546CF
:1026180007E0022104F12400FFF75EFC0546E2E72B
:102628002E46236813F0400F2CD0D4F89830B3F519
:10263800006F1FD012D83BB1B3F5806F17D10021BE
:10264800201DFFF7C3FB0546DDB9474A936D23F408
:10265800E053D4F898100B43936513E0B3F5805F0B
:10266800F2D0B3F5A05FEFD0B3F5406FECD0012600
:10267800354607E0022104F12400FFF72DFC05464A
:10268800E2E72E46236813F0800F2CD0D4F89C3054
:10269800B3F5804F1FD012D83BB1B3F5005F17D107
:1026A8000021201DFFF792FB0546DDB92E4A936DE8
:1026B80023F46043D4F89C100B43936513E0B3F5FF
:1026C800004FF2D0B3F5204FEFD0B3F5C04FECD0A8
:1026D8000126354607E0022104F12400FFF7FCFB40
:1026E8000546E2E72E46236813F0080F0AD0D4F80F
:1026F8008030B3F5805F24D01B494A6D22F44052E4
:1027080013434B65236813F0100F0AD0D4F89430A4
:10271800B3F5807F1ED014498A6D22F440721343AA
:102728008B65236813F4002F39D0D4F8A030B3F5A3
:10273800803F2CD0B3F5003F1FD0CBB101263546E2
:102748002DE0022104F12400FFF7C6FB0028D9D0B0
:102758000126D7E7022104F12400FFF7BDFB00287A
:10276800DFD00126DDE700BF00440258CFFFFF009D
:102778000021201DFFF72AFB05467DB9644A936DA9
:1027880023F44033D4F8A0100B43936507E00221EB
:1027980004F12400FFF7A0FB0546EEE72E46236868
:1027A80013F4802F24D0D4F88430B3F5001F17D049
:1027B800B3F5401F0AD0B3F5801F02D00126354675
:1027C80016E0534AD36A43F40033D3627DB9504AC2
:1027D800536D23F44013D4F884100B43536507E07A
:1027E800012104F12400FFF777FB0546EEE72E46AA
:1027F800236813F4803F14D0E36C2BB1B3F5803F0A
:1028080023D0012635460CE0414AD36A43F400330D
:10281800D36205BB3E4AD36C23F48033E16C0B438F
:10282800D364236813F0005F17D1236813F4003FC3
:102838002DD0E36FB3F5807F1BD017D9B3F5007F98
:102848001CD0B3F5407F12D118E00221201DFFF7FC
:10285800BDFA0546DDE72E46E3E7022104F1240030
:10286800FFF73AFB0028E0D00126DEE733B1012666
:102878000DE0274AD36A43F40033D362002D3DD1DB
:10288800234A536D23F44073E16F0B435365236868
:1028980013F4801F06D01E4A136D23F00043216FE6
:1028A8000B431365236813F0805F07D0184A136938
:1028B80023F48043D4F8B4100B431361236813F452
:1028C800001F06D0124A136D23F08073A16E0B43CC
:1028D8001365236813F0804F09D00D4B1A6922F451
:1028E80000421A611A69D4F8B8100A431A612368B9
:1028F800002B05DB06B101263046F8BD2E46C6E79B
:10290800034AD36C23F04053216D0B43D364F1E7A2
:102918000044025808B5036B13B11B78012B00D093
:1029280008BD074AD2F8EC3023F48073C2F8EC30C3
:1029380003210448FEF76CFC1320FDF787FDEFE741
:1029480000440258000C025810B50446036B2BB122
:102958009A78013A9A70036B9B780BB1204610BDA8
:10296800FFF7D8FF236B1B78012BF7D1014B00220F
:102978001A60F3E7A000002070B588B00446002371
:1029880003930493059306930793284B1B686BB135
:10299800226B93780133937000236360A3602361F3
:1029A8006361A361E361236208B070BDA42000F0F5
:1029B8000AFD1E4B1860A422002100F062FD236B63
:1029C80001221A70236B00265E70236B9E70184DCF
:1029D800D5F8E03043F00803C5F8E030D5F8E0302A
:1029E80003F008030193019B03230393022204923B
:1029F800059606930923079303A90E48FEF716FBCD
:102A0800D5F8EC3043F48073C5F8EC30D5F8EC30E9
:102A180003F480730293029B324631461320FDF77C
:102A2800D5FC1320FDF704FDB2E700BFA00000208D
:102A380000440258000C0258036B5A7812B91A78ED
:102A4800012A00D0704730B589B00446354A5A602B
:102A5800026B0023D360026B1361026B1375026B68
:102A68005375026B9375026B04219161006B01220F
:102A7800C261206B0D250562206B02254562206B23
:102A88008262206BC262206B0263206B4263206B00
:102A98008363206BC363206B0364206B0825456444
:102AA800206B8164206BC364206B0165206B4365D8
:102AB800206B8165206BC365206B0366206B4266C3
:102AC800206B8366206BC166009301930293039287
:102AD800049240F2FF730593206B0844FDF708FE4B
:102AE80098B9206B69460430FDF74CFF80B9206B1C
:102AF8000430FDF78AFF70B9206B002201210430F1
:102B0800FEF7A6F850B909B030BD00F035FBE8E78C
:102B180000F032FBEBE700F02FFBEDE700F02CFBB9
:102B2800F1E700BF00A0004010B50446FFF724FFFE
:102B38002046FFF781FF002384F83830204610BD77
:102B480010B5044640F2213303604FF40023C360FC
:102B5800082380F82430AD2380F8253080F826102B
:102B6800006B04F1240221460430FDF768FF00B928
:102B780010BD022384F8253000F0FEFAF8E710B5FE
:102B880004460160082A4FD8DFE802F0052E3236E5
:102B98003A3E42464A000022C26084F824309DF83A
:102BA800083084F825309DF80C3084F826309DF8DC
:102BB800103084F827309DF8143084F828309DF8B8
:102BC800183084F829309DF81C3084F82A309DF894
:102BD800203084F82B30206B04F124022146043085
:102BE800FDF72DFF18BB10BD4FF48032C260D4E74B
:102BF8004FF40032C260D0E74FF44032C260CCE7F5
:102C08004FF48022C260C8E74FF4A022C260C4E734
:102C18004FF4C022C260C0E74FF4E022C260BCE7B4
:102C28004FF40022C260B8E70022C260B5E7022371
:102C380084F8253000F0A0FAD5E710B50446006BFB
:102C480013460A4640210430FDF734FF40B9206B93
:102C580000224FF400210430FDF7FAFF18B910BD27
:102C680000F08AFAF3E700F087FAF8E700B58DB0CC
:102C7800006B6B4602AA40210430FDF71BFF10B918
:102C88000DB05DF804FB00F077FAF9E700B58DB0F8
:102C98006B4602AA0021FDF70DFF58B90023072B48
:102CA8000BDC0CAA1A4412F8301C054A1A4411719C
:102CB8000133F4E700F060FAF0E70DB05DF804FBCB
:102CC800A000002008B5034B186810B10430FEF7C7
:102CD80017F808BDA000002011F0010F00D17047BF
:102CE80010B58CB004466B4602AA4021FDF7E2FEFF
:102CF80038B9002201212046FDF7AAFF20B90CB0FF
:102D080010BD00F039FAF4E700F036FAF7E708B535
:102D1800FFF7BCFF08BDF0B5A5B0002418941994BE
:102D280009A8FFF701FF082109A8FFF709FF0821F3
:102D380009A8FFF705FF06940594049403940294E8
:102D480001940123009381230222214609A8FFF759
:102D580016FF18AB1AAA402115980430FDF7AAFEF1
:102D6800002866D109A8FFF781FF0024069405947E
:102D780004940394029401940123009302222146AF
:102D880009A8FFF7FCFE18AA1AA909A8FFF755FF1A
:102D980006940594049403940294602501954127B0
:102DA80000974023082240F2016109A8FFF7E7FED7
:102DB80006940594049406230393029401954026EF
:102DC80000962B23082240F2016109A8FFF7D7FEDD
:102DD800069405940494862303930294019500961F
:102DE8002B23082240F2016109A8FFF7C8FE0694C8
:102DF800059404940394029401950097334608229D
:102E080040F2016109A8FFF7BAFE069405940494FC
:102E1800022303930294019500952B23082240F284
:102E2800016109A8FFF7ABFE09A8FFF78DFD25B0E2
:102E3800F0BD00F0A1F995E72DE9F04F8DB0002421
:102E48000794089409940A940B94724BD3F8E020E1
:102E580042F00402C3F8E020D3F8E02002F00402B4
:102E68000092009AD3F8E02042F08002C3F8E020F4
:102E7800D3F8E02002F080020192019AD3F8E02012
:102E880042F00102C3F8E020D3F8E02002F001028A
:102E98000292029AD3F8E02042F00202C3F8E0203E
:102EA800D3F8E02002F002020392039AD3F8E0205C
:102EB80042F00802C3F8E020D3F8E02002F008024C
:102EC8000492049AD3F8E02042F04002C3F8E020CC
:102ED800D3F8E02002F040020592059AD3F8E020EA
:102EE80042F01002C3F8E020D3F8E03003F01003FA
:102EF8000693069BDFF82C91224644F201014846CE
:102F0800FEF72AFADFF8208122464FF48061404616
:102F1800FEF722FA224602213F48FEF71DFA4FF437
:102F2800005BCDF81CB0089409943C4F07A93846BB
:102F3800FEF77CF8322307930225089509940A9432
:102F48000B260B9607A93846FEF770F886230793D9
:102F5800089509940A940B96DFF8D0A007A9504663
:102F6800FEF764F844F201030793012708970994D0
:102F78000A9407A94846FEF759F8CDF81CB00895F9
:102F880009940A940B9607A94846FEF74FF84FF4A0
:102F980040730793089509940A9407230B9307A98C
:102FA8004046FEF743F84FF4806307930897099467
:102FB8000A9407A94046FEF739F880230793184B6F
:102FC8000893099408F5406807A94046FEF72EF8CB
:102FD8004FF4C8530793089509940A940A230B934E
:102FE80007A95046FEF722F84FF420530793089597
:102FF80009940A940B9607A94046FEF717F8079517
:10300800089709940A9407A90348FEF70FF80DB02A
:10301800BDE8F08F0044025800100258000802581A
:103028000000111100040258000C02580000025858
:1030380010B5CCB04C22002139A800F022FA202289
:10304800002131A800F01DFABC22002102A800F0DE
:1030580018FA0220FEF786F900230193254BDA6A55
:1030680022F00102DA62DB6A03F001030193224ACB
:10307800936923F4404343F480439361936903F4D1
:1030880040430193019B1C4B9B6913F4005FFAD0EA
:10309800032239924FF4A0233A9301213C91202333
:1030A8003D930223429343934491182145914693BB
:1030B800479248930C23499300244A944B9439A887
:1030C800FEF778F93F23319332943394349435944E
:1030D800369437943894214631A8FEF739FD4FF4D9
:1030E800004302934FF080531D9302A8FEF77AFF26
:1030F8004CB010BD000400580048025810B50446F2
:10310800012000F0BBF8022000F0B8F8002000F021
:10311800B5F8012C07D014B1022C08D010BD00203E
:1031280000F09CF8FAE7012000F098F8F6E7022092
:1031380000F094F8F2E7000008B5FDF7EFF8FFF7A4
:1031480077FFFFF779FE0B4B08221A70AD225A70F1
:103158000020FFF7D3FF0120FFF7D0FF0220FFF781
:10316800CDFF0020FFF7CAFF0120FFF7C7FFFFF7D9
:10317800D2FDFCE7640100207047000082B0074BD5
:10318800D3F8F42042F00202C3F8F420D3F8F43064
:1031980003F002030193019B02B0704700440258F8
:1031A80010B588B0002303930493059306930793FF
:1031B80002681D4B9A4201D008B010BD1B4BD3F8D2
:1031C800EC2042F48072C3F8EC20D3F8EC2002F42F
:1031D80080720192019AD3F8E02042F00802C3F805
:1031E800E020D3F8E03003F008030293029B0323A6
:1031F80003930224049406930923079303A90C4814
:10320800FDF714FF002201211320FDF7DFF813203A
:10321800FDF70EF9002221461520FDF7D7F81520F5
:10322800FDF706F9C8E700BF00A0004000440258B7
:10323800000C02587047FEE7FEE7FEE7FEE770471E
:103248007047704708B5FDF797F808BD08B50248FC
:10325800FDF756FD08BD00BFC400002008B50122D7
:10326800044B33F81010044B53F82000FEF774F8A1
:1032780008BD00BF703600080800002008B500220D
:10328800044B33F81010044B53F82000FEF764F891
:1032980008BD00BF703600080800002001207047F4
:1032A80008B500F0B1F8162303604FF0FF3008BDF1
:1032B80008B54FF0FF31FFF7F3FFFEE708B5034607
:1032C8000B4A126842B10A4A106803446A4693429C
:1032D80006D8074A136008BD054A06491160F2E797
:1032E80000F092F80C2303604FF0FF30F3E700BFC3
:1032F800AC000020C8010020184AD2F8883043F4F6
:103308007003C2F88830164B1A6842F001021A603E
:1033180000221A6118681349014019609A61DA613C
:103328001A629A62DA621A635A639A63DA631A64EF
:103338005A64196821F4802119601A660A4B1A68C0
:103348000A4B1340B3F1005F02D2094B01221A6005
:10335800024B4FF000629A60704700BF00ED00E03A
:10336800004402587FEDF6EA0010005C0000FFFF01
:1033780008810051DFF834D0002103E00C4B5B5882
:10338800435004310B480C4B42189A42F6D30B4A6F
:1033980002E0002342F8043B094B9A42F9D3FFF7B5
:1033A800ABFF00F037F8FFF7C7FE704700000220B8
:1033B80098360008000000208400002084000020C7
:1033C800C4010020FEE710B5002814BF04460124FC
:1033D800204600F043F830B900F006F808B900F0CC
:1033E8000BF88047F4E710BD024B1868BFF35B8FFA
:1033F800704700BFB400002008B5062000F0DCF8D4
:103408000120FFF755FF0000014B1868704700BF07
:103418002000002070B50D4E0D4CA41BA4100025F3
:10342800A54209D10B4E0C4C00F0E4F8A41BA410E3
:103438000025A54205D170BD56F8253098470135BD
:10344800EEE756F8253098470135F2E79036000840
:10345800903600089036000894360008024B014662
:10346800186800F017B800BF2000002010B5431EF0
:103478000A44914200D110BD11F8014B03F8014FE5
:10348800F7E702440346934200D1704703F8011B53
:10349800F9E7000070B5CD1C25F0030508350C2DA3
:1034A80038BF0C25002D064601DBA94203D90C23A1
:1034B8003360002070BD00F09BF8214A1468214653
:1034C80091B9204C23681BB9304600F03DF82060C4
:1034D8002946304600F038F8431C24D10C233360C9
:1034E800304600F086F8E4E70B685B1B18D40B2B1A
:1034F8000FD90B60CD50CC18304600F07AF804F1A3
:103508000B00231D20F00700C31AD3D05A42E25003
:10351800D0E78C424B6816BF636013600C46EBE73C
:103528000C464968CCE7C41C24F00304A04205D02B
:10353800211A304600F008F80130CFD02560DBE7CB
:10354800B8000020BC00002038B5064C0023054612
:1035580008462360FFF7B2FE431C02D1236803B17B
:103568002B6038BDC00100201F2938B504460D4620
:1035780004D9162303604FF0FF3038BD426C12B1F6
:1035880052F821304BB9204600F030F82A4601465F
:103598002046BDE8384000F017B8012B0AD0591C66
:1035A80003D1162303600120E7E7002442F82540F1
:1035B800284698470020E0E7024B01461868FFF7C5
:1035C800D3BF00BF2000002038B5074C00230546B4
:1035D800084611462360FFF763FE431C02D12368A7
:1035E80003B12B6038BD00BFC0010020FFF756BEF5
:1035F80070477047F8B500BFF8BC08BC9E467047D6
:0C360800F8B500BFF8BC08BC9E46704737
:103614000001020304050607080C101418203040AA
:103624000000000000000000000000000000000096
:103634000000000001000000020000000300000080
:10364400040000000000000005000000000000006D
:103654000000000000000000060000000000000060
:10366400000000000000000007000000010002004C
:1036740000400000280000000020000000000000BE
:0C36840001020304010203040607080908
:04369000BD0200086F
:04369400990200088F
:103698000100000010000000000402580010025849
:1036A80000040258000802580090D0030090D0038C
:1036B80024000020000000000000000000000000BE
:1036C80000000000000000000000000000000000F2
:1036D80000000000000000000000000000000000E2
:1036E80000000000000000000000000000000000D2
:1036F80000000000000000000000000000000000C2
:1037080000000000000000000000000000000000B1
:0437180000000000AD
:040000050800337D3F
:00000001FF
